:020000040800F2
:100000005828002001010008F12A0008F32A0008FE
:10001000F72A0008FB2A0008FF2A00080000000059
:10002000000000000000000000000000032B00089A
:10003000052B000800000000072B0008092B000812
:100040001B0100081B0100081B0100081B01000820
:100050001B0100081B0100081B0100081B01000810
:100060001B0100081B0100081B0100081B01000800
:100070001B0100081B0100081B0100081B010008F0
:100080001B0100081B0100081B0100081B010008E0
:100090001B0100081B0100081B010008417E00082D
:1000A0001B0100081B0100081B0100081B010008C0
:1000B000CB2B00081B0100081B0100081B010008D6
:1000C0001B0100081B0100081B0100081B010008A0
:1000D0001B0100080B2B00084B2B00088B2B000882
:1000E0000D7E00081B0100081B010008DFF80CD082
:1000F00007F0EAFE00480047592900085828002068
:100100000648804706480047FEE7FEE7FEE7FEE7B1
:10011000FEE7FEE7FEE7FEE7FEE7FEE7F12C00085C
:10012000ED00000831490143314A1160704770B554
:10013000002100230F22C4780CB32D4C246804F452
:10014000E064C4F5E064210AC1F10403CA404478C4
:1001500004FA03F18478144021430901254C067800
:10016000A155047804F01F050124AC4005786D11F9
:100170004FF0E02606EB8505C5F8004109E004785C
:1001800004F01F050124AC401B4D0678761145F89C
:10019000264070BD194A0A400243154B1B1F1A60C6
:1001A000704739B1124A121D12680243104B1B1DD1
:1001B0001A6006E00E4A121D126882430C4B1B1D8A
:1001C0001A607047042808D14FF0E021096941F016
:1001D00004014FF0E022116107E04FF0E0210969CE
:1001E00021F004014FF0E022116170470000FA0590
:1001F0000CED00E000E400E080E100E080FFFF1F84
:1002000010B50446F948844208D10121401500F098
:10021000ABFE0021601500F0A7FE17E0F448844211
:1002200008D10121001500F09FFE0021201500F0EB
:100230009BFE0BE0EF48844208D10121C80300F087
:1002400093FE00214FF4004000F08EFE10BD30B54B
:100250000246002000235068E74C20400D790C68CE
:1002600044EA0524204350609068E44C2040D1E9E2
:1002700002542C434D7944EA450420439060D06AEF
:1002800020F470000C7C641EE4B2234340EA035067
:10029000D06230BD00210160017141718160C16097
:1002A00001210174704721B1826842F0010282602D
:1002B00003E0826822F001028260704721B1826807
:1002C00042F48072826003E0826822F4807282606D
:1002D000704710B50023CBB21AB144681C43446088
:1002E00002E044689C43446010BD816841F008010D
:1002F00081607047014600208A6812F0080F01D023
:10030000012000E000207047816841F00401816015
:100310007047014600208A6812F0040F01D00120C6
:1003200000E00020704721B1826842F4A0028260A0
:1003300003E0826822F4A002826070470146002038
:100340008A6812F4800F01D0012000E0002070477D
:1003500010B50A4600210023416821F46041531E74
:1003600041EA4331416010BD21B1426842F400626C
:10037000426003E0426822F4006242607047F0B5D8
:1003800004460D4600200021092D11DDE068A5F18D
:100390000A0606EB4607072606FA07F18843A5F189
:1003A0000A0606EB460603FA06F10843E0600CE095
:1003B000206905EB4507072606FA07F1884305EB98
:1003C000450603FA06F108432061072A0FDA606B3D
:1003D000561E06EB86071F2606FA07F18843561EAF
:1003E00006EB860605FA06F10843606322E00D2A53
:1003F0000FDA206BD61F06EB86071F2606FA07F1D9
:100400008843D61F06EB860605FA06F108432063EB
:1004100010E0E06AA2F10D0606EB86071F2606FA39
:1004200007F18843A2F10D0606EB860605FA06F1F0
:100430000843E062F0BD21B1826842F4801282601C
:1004400003E0826822F48012826070470146C86C23
:1004500080B2704765484C300068704721B14268EF
:1004600042F48062426003E0426822F480624260AB
:10047000704721B1426842F48052426003E0426812
:1004800022F48052426070470A460021816821F4BC
:10049000E04111438160704721B1826842F400421B
:1004A000826003E0826822F400428260704721B1DA
:1004B000826842F40212826003E0826822F402122F
:1004C00082607047014600208A6812F4001F01D044
:1004D000012000E000207047F0B5044615460020DA
:1004E00000220026092911DDE068A1F10A0707EBC7
:1004F000470C072707FA0CF29043A1F10A0707EB14
:10050000470703FA07F21043E0600CE0206901EBB3
:10051000410C072707FA0CF2904301EB410703FA5D
:1005200007F210432061A06BC0F30156EF1C06F1E7
:10053000010CA7EB0C0707EB870C1F2707FA0CF23F
:100540009043EF1C06F1010CA7EB0C0707EB8707A4
:1005500001FA07F21043A063F0BD10B50A4600216E
:100560000023816B21F44011531E41EA0351816342
:1005700010BD10B5002303460B441A6010BD02469F
:100580000023134601F128000344186880B2704725
:100590000A46002141681A4B1940114341607047D7
:1005A0004162826270470A460021416821F01F01C2
:1005B00011434160704740B10C490831096841F46A
:1005C00000010A4A0832116007E008490831096849
:1005D00021F40001054A08321160704702460020EC
:1005E00013680B420ED001200DE0000000240140F2
:1005F00000280140003C0140FFFEF0FFFDF7F1FF45
:10060000FFFD3FFF00207047CA430260704770B58E
:1006100002460020002300240B125568CEB205EAE2
:10062000060415681D4202D00CB1012000E0002034
:1006300070BD00220A12D3430360704710B5012039
:1006400000F0ACFC002000F0A9FC10BD24490860BB
:1006500070472349091F08607047214984310860A9
:100660007047014600201F4A10884FF67F42104015
:1006700008431C4A1080704701460020194A108820
:100680004FF6807210400843164A108070470022CF
:10069000144A2C3A02441160704701460022114A64
:1006A0002C3A0A44108870470D489C300068C0B24C
:1006B00070470C480830008840F0010009490831B3
:1006C000088070470648A0300068C0B270470548EF
:1006D0000830008840F00200024908310880704765
:1006E00004860D422C6C0040002044490860091D1E
:1006F0000860091D0860091D086041483F49143120
:100700000860704700213D498279002A3AD00A46A4
:10071000126803689A430B461A600A1D1268036840
:100720009A430B1D1A60027911440A6803681A4340
:100730000A60324A0832126803689A432F4B083322
:100740001A601A1D126803689A432C4B0C331A6006
:100750004279102A0ED11A1F126803681A43274BD8
:1007600008331A601A1D126803681A43234B0C33AE
:100770001A600DE02149427911440A6803681A435E
:100780000A6005E0027911440A6803689A430A6026
:1007900070470021016001710C21417100218171BC
:1007A00070471649103109680143144A103211602C
:1007B000704701460020114A143212680A4201D0E3
:1007C000012000E0002070470C4914310860704798
:1007D000014600200022094B1B6803EA0102074B77
:1007E00014331B680B4202D00AB1012000E0002044
:1007F000704702491431086070470000000401404E
:10080000FFFF0F0010B50446CA48844208D10121F9
:10081000042000F0A9FB0021042000F0A5FB46E025
:10082000C548844208D10121082000F09DFB002129
:10083000082000F099FB3AE0C048844208D1012129
:10084000102000F091FB0021102000F08DFB2EE025
:10085000BB48844208D10121202000F085FB002103
:10086000202000F081FB22E0B648844208D101211B
:10087000402000F079FB0021402000F075FB16E0DD
:10088000B148844208D10121802000F06DFB002195
:10089000802000F069FB0AE0AC48844207D10121C6
:1008A000801500F061FB0021A01500F05DFB10BD7C
:1008B00010B50121084600F057FB0021012000F08F
:1008C00053FB10BD2DE9F041024600250026002013
:1008D00000230024002791F803C00CF00F0591F8C5
:1008E00003C01CF0100F03D091F802C04CEA0505BC
:1008F00091F800C0BCF1000F31D0146800202BE04B
:100900004FF0010C0CFA00F3B1F800C00CEA03063A
:100910009E4220D183004FF00F0C0CFA03F7BC432A
:1009200005FA03FC4CEA040491F803C0BCF1280F5B
:1009300006D14FF0010C0CFA00FCC2F814C00AE01A
:1009400091F803C0BCF1480F05D14FF0010C0CFA2F
:1009500000FCC2F810C0401C0828D1D31460B1F8C4
:1009600000C0BCF1FF0F34DD546800202EE000F120
:10097000080C4FF0010808FA0CF3B1F800C00CEABB
:1009800003069E4221D183004FF00F0C0CFA03F7AF
:10099000BC4305FA03FC4CEA040491F803C0BCF123
:1009A000280F05D100F1080C08FA0CF8C2F81480E1
:1009B00091F803C0BCF1480F07D100F1080C4FF0CB
:1009C000010808FA0CF8C2F81080401C0828CED3A1
:1009D0005460BDE8F0814FF6FF7101800221817003
:1009E0000421C17070470246002093680B4201D079
:1009F000012000E0002070470146886880B27047FF
:100A000002460020D3680B4201D0012000E0002004
:100A100070470146C86880B2704701617047416104
:100A200070470AB1016100E041617047C1607047E1
:100A30004FF480320A4382618161826182698269F6
:100A4000704702460020424B18684FF680731840EA
:100A500040EA021008433E4B186070473D49C861A8
:100A60007047F0B50A46002300240021002500F05D
:100A70000046B6F1004F02D1354EF16901E0344E27
:100A80007168C0F3034583B200F44016B6F5401F09
:100A900008D121F070612E4E766826F070662C4FDA
:100AA0007E6012E000F48016B6F5801F06D10326A2
:100AB00006FA05F4A14341F0706106E0460D3601E7
:100AC00003FA06F6B14341F0706122B1460D3601DA
:100AD00003FA06F6314300F00046B6F1004F02D1AA
:100AE0001B4EF16101E01A4E7160F0BD30B500227D
:100AF0008B071C0F0F2303FA04F2154B08338C10DD
:100B000053F824309343124C08348D1044F82530A8
:100B100023468C1053F824308C07240F00FA04F479
:100B200023430B4C08348D1044F8253030BD0A495E
:100B30000860704700080140000C014000100140AF
:100B40000014014000180140001C01400020014039
:100B50000000014000002042DC0020420E490860F5
:100B600070470D49486070470B49886070474AF6E6
:100B7000AA200949086070474CF6CC400649086035
:100B8000704701460020044AD2680A4201D0012081
:100B900000E00020704700000030004010B5012147
:100BA000080700F0EEF900214FF0805000F0E9F95D
:100BB00010BD2949086270472749086170470146FE
:100BC0000020264A106820F0E000084310607047BB
:100BD00023490860704710B5024600201F4B186873
:100BE00020F00300104318601E4B1B6843F0040301
:100BF0001C4C2360012901D130BF00E020BF194BFC
:100C00001B6823F00403174C236010BD13480068D1
:100C100040F00400114908600846006840F00200F6
:100C200008601048006840F004000E49086000BFEA
:100C300000BF30BF704701460020084A52680A4290
:100C400001D0012000E0002070470449096841EA12
:100C50008001024A1160704700000E42007000409F
:100C6000A0000E4210ED00E0DB48006840F00100FB
:100C7000D949086008464068D8490840D6494860C4
:100C800008460068D6490840D3490860084600680D
:100C900020F4802008600846406820F4FE00486088
:100CA0004FF41F0088607047CB49096821F48031F8
:100CB000C94A11601146096821F480211160B0F51C
:100CC000803F03D0B0F5802F0ED106E0C2490968FD
:100CD00041F48031C04A116007E0BF49096841F41E
:100CE000A021BD4A116000E000BF00BF704710B5F1
:100CF00001460022002300204A11012A02D1B64CED
:100D0000236806E0022A02D1B34C236A01E0B24C08
:100D1000636A01F01F02012494401C4201D00120AB
:100D200000E0002010BD70B500240025002600BFA3
:100D30003120FFF7DCFF0646641CB4F5A06F01D03C
:100D4000002EF5D03120FFF7D2FF08B1012500E0D9
:100D50000025284670BD014600209F4A106820F0FB
:100D6000F80040EAC100106070479E490860704773
:100D700002460020984B586820F47C1042EA010398
:100D80001843954B5860704796490866704701466E
:100D90000020914A506820F00300084350607047DB
:100DA0008D48406800F00C007047014600208A4AD8
:100DB000506820F0F0000843506070470146002062
:100DC000854A506820F4E06008435060704701464F
:100DD0000020814A506820F4605040EAC100506011
:100DE000704729B17C4A527A02437B4B5A7204E025
:100DF000794A527A8243784B5A7270477A4908602E
:100E0000704701460020744A506820F4404008436F
:100E1000506070470021754A11706F4A82F82010A7
:100E2000012802D0042808D103E001216F4A117083
:100E300004E005216D4A117000E000BF00BF70475B
:100E40006B49086070476449096A0143624A11624C
:100E50007047674944390860704730B50021002267
:100E6000002400235C4D6D6805F00C0121B10429BC
:100E700005D0082923D105E05E4D056022E05D4DD7
:100E800005601FE0544D6D6805F47012524D6D6899
:100E900005F48034022505EB92421CB9564D5543AA
:100EA00005600BE04C4D6D6815F4003F03D0524DCA
:100EB0005543056002E04F4D5543056002E04D4D3E
:100EC000056000BF00BF444D6D6805F0F0010909E1
:100ED0004A4D6B5C0568DD4045603F4D6D6805F42B
:100EE000E061090A454D6B5C4568DD4085603A4D1F
:100EF0006D6805F46051C90A404D6B5C4568DD4082
:100F0000C560354D6D6805F44041890B3C4D6B5C07
:100F1000C568B5FBF3F5056130BD29B12E4A5269AC
:100F200002432D4B5A6104E02B4A526982432A4BFB
:100F30005A61704729B1284A92690243264B9A6147
:100F400004E0254A92698243234B9A61704729B194
:100F5000214AD2690243204BDA6104E01E4AD26979
:100F600082431D4BDA61704729B11B4AD2680243A4
:100F7000194BDA6004E0184AD2688243164BDA60F3
:100F8000704729B1144A12690243134B1A6104E0F5
:100F9000114A12698243104B1A6170471449403953
:100FA000086070470F49C86470470B49C8717047A3
:100FB0000948406A40F0807007494862704701461E
:100FC0000020054A92680A4201D0012000E000207A
:100FD0007047014988727047001002400000FFF816
:100FE000FFFFF6FE00004242D800424220100240BD
:100FF0008004424200127A0000093D0000000020F7
:101000001000002029B14F4A128802434D4B1A802C
:1010100004E04C4A128882434A4B1A807047494880
:10102000001D008840F010004649091D08807047E7
:101030004448001D00884FF6EF7108404149091DE2
:101040000880704700213F481C300188001F00883D
:1010500041EA0040704700B50246FFF7E0FF100C80
:10106000384918310880091D0A80FFF7E1FF00BDEB
:1010700000B50246FFF7D3FFC2F303403149083100
:101080000880091D0A80FFF7D3FF00BD00B50246A6
:10109000FFF7C5FF100C2B4920310880091D0A807D
:1010A000FFF7C6FF00BD0020264910310988090757
:1010B000080B2449143109880843704700BF2148B0
:1010C000001D008810F0200FF9D070471D48001D4A
:1010D00000884FF6F77108401A49091D088000BFC3
:1010E0001848001D008810F0080FF9D0704701461D
:1010F0000020144A121D12880A4201D0012000E08B
:10110000002070470F49091D098881430D4A121DAF
:1011100011807047014600200A4A121D12880A40B9
:10112000D0B2084A12880A4202D008B1012000E079
:10113000002070470349091D09888143014A121D97
:10114000118070470028004010B50446BE48844214
:1011500008D101218014FFF707FF0021A014FFF739
:1011600003FF16E0B948844208D101210014FFF7BB
:1011700008FF00212014FFF704FF0AE0B44884426E
:1011800007D10121C013FFF7FCFE0021E013FFF798
:10119000F8FE10BD10B50022028802F441520B88FF
:1011A0004C8823438C882343CC8823430C892343D6
:1011B0004C8923438C892343CC8923431A430280DF
:1011C000838B4FF2FF74234083830B8A038210BD0D
:1011D0002DE9F04F85B005460C464FF00009022777
:1011E0004FF000084FF0010B0026B246A88B4FF2DB
:1011F00040010840A88302202884B5F81C90A0680C
:10120000022801D100BF38E0A08810B94FF0010BCF
:1012100001E04FF0020B8D48854200D100E000BF95
:101220006846FFF71AFEDDF800A0E088B0F5007F01
:101230000AD14FEA1A2000EB80004000A168B0FB01
:10124000F1F0401D86B20BE04FEA4B10BAFBF0F014
:1012500000EB80004000A168B0FBF1F0401D86B2B9
:101260000A20B6FBF0F606F00108A6EB0800C0F372
:101270004F074FF6FF7000EA0828022F01DBFF2F0F
:1012800002DD02274FF00008E08840EA08003843FA
:101290002884A088A18908436188084321880843DD
:1012A00040F4006040EA0909A5F81C9005B0BDE8CB
:1012B000F08F0021018041808180C18001814181C6
:1012C0008181C18107210182704700210180418015
:1012D0008180C1800221816000218181704721B11C
:1012E000028842F04002028004E002884FF6BF7399
:1012F0001A400280704721B1828B42F4806282835F
:1013000004E0828B4FF6FF331A408283704730B57A
:10131000002400230C110125A540ABB21AB1858829
:101320001D43858002E085889D43858030BD1AB1CC
:1013300083880B43838002E083888B4383807047DC
:1013400081817047014688897047A1F57E42FF3A46
:1013500004D0028842F48072028004E002884FF6D2
:10136000FF631A400280704721B1828842F0040274
:10137000828004E082884FF6FB731A4082807047B7
:1013800002884FF2FF731A40028002880A430280EB
:101390007047018841F480510180704721B1028873
:1013A00042F40052028004E002884DF6FF731A40B6
:1013B0000280704702460020012901D0108B00E016
:1013C000908A70470146088A7047B1F5804F04D172
:1013D000028842F48042028004E002884BF6FF73E8
:1013E0001A40028070470246002013890B4201D048
:1013F000012000E000207047CA4302817047F0B529
:101400000246002000240023002501F00F070126DA
:10141000BE40B4B20B1101269E40B3B2968806EAD4
:1014200003051689264202D00DB1012000E00020FC
:10143000F0BD10B5002201F00F040123A3409AB2C1
:10144000D343038110BD000000300140003800404C
:10145000003C004010B50446FE48844208D10121FA
:10146000C014FFF781FD0021E014FFF77DFDC4E00B
:10147000B4F1804F08D101210846FFF782FD002119
:101480000120FFF77EFDB8E0F348844208D1012136
:101490000220FFF776FD00210220FFF772FDACE08D
:1014A000EE48844208D101210420FFF76AFD0021A3
:1014B0000420FFF766FDA0E0E948844208D101213D
:1014C0000820FFF75EFD00210820FFF75AFD94E099
:1014D000E448844208D101211020FFF752FD002189
:1014E0001020FFF74EFD88E0DF48844208D101213B
:1014F0002020FFF746FD00212020FFF742FD7CE081
:10150000DA48844208D101214014FFF72DFD002163
:101510006014FFF729FD70E0D548844209D101210C
:10152000C804FFF721FD00214FF40020FFF71CFD48
:1015300063E0D048844209D101210805FFF714FD7A
:1015400000214FF48010FFF70FFD56E0CA48844297
:1015500009D101214805FFF707FD00214FF40010D4
:10156000FFF702FD49E0C548844208D1012140202F
:10157000FFF707FD00214020FFF703FD3DE0C048D5
:10158000844208D101218020FFF7FBFC002180204C
:10159000FFF7F7FC31E0BB48844208D101218015F8
:1015A000FFF7EFFC0021A015FFF7EBFC25E0B648A4
:1015B000844209D101210804FFF7D6FC00214FF431
:1015C0008030FFF7D1FC18E0B048844209D10121F6
:1015D0004804FFF7C9FC00214FF40030FFF7C4FCBA
:1015E0000BE0AB48844208D101218804FFF7BCFC22
:1015F00000214FF48020FFF7B7FC10BD00220288C5
:10160000944B98420ED0994B98420BD0B0F1804F3A
:1016100008D0914B984205D0904B984202D0904B05
:10162000984204D14FF68F731A404B881A438D4B62
:10163000984207D08C4B984204D04FF6FF431A4093
:10164000CB881A4302808B8883850B880385814B66
:1016500098420BD0854B984208D08B4B984205D0CE
:101660008A4B984202D08A4B984201D10B7A03866A
:1016700001238382704770B5002400220023058C6B
:101680004FF6FE7635400584028C8388048B4FF636
:101690008F752C40B51E2C400D882C43751E2A409A
:1016A0000D892A434D882A436A4DA8420BD06F4DBD
:1016B000A84208D0744DA84205D0744DA84202D06B
:1016C000734DA84213D14FF6F7752A404D892A432E
:1016D0004FF6FB752A408D882A434FF6FF652B4055
:1016E0004FF6FF552B408D892B43CD892B438380AB
:1016F0000483CD888586028470BD70B500240022E5
:101700000023058C4FF6EF7635400584028C8388E4
:10171000048B48F6FF752C404FF6FF452C400D8892
:101720004FF6FF7606EA05252C434FF6DF752A4073
:101730000D8906EA05152A434D8806EA05152A4350
:10174000444DA84202D0494DA8421DD14FF67F75A5
:101750002A404D894FF6FF7606EA05152A434FF6D3
:10176000BF752A408D8806EA05152A434FF6FF35D6
:101770002B404FF2FF752B408D8906EA85052B43E0
:10178000CD8906EA85052B4383800483CD880587B0
:10179000028470BD70B5002400220023058C4FF632
:1017A000FF6635400584028C8388848B4FF68F75E5
:1017B0002C404FF6FC752C400D882C434FF6FF55FE
:1017C0002A400D894FF6FF7606EA05252A434D8803
:1017D00006EA05252A431F4DA84202D0234DA84200
:1017E0001DD14FF2FF752A404D894FF6FF7606EA6C
:1017F00005252A434FF6FF352A408D8806EA052540
:101800002A434EF6FF752B404DF6FF752B408D8910
:1018100006EA05152B43CD8906EA05152B4383807F
:101820008483CD888587028470BD70B50022002333
:101830000024058C4EF6FF7635400584038C8488A1
:10184000828B48F6FF752A404FF6FF452A400D88E7
:1018500020E00000002C014000040040000800408F
:10186000000C004000100040001400400034014013
:10187000004C01400050014000540140001800405D
:10188000001C004000200040004001400044014096
:10189000004801404FF6FF7606EA05252A434DF63B
:1018A000FF752B400D8906EA05352B434D8806EA66
:1018B00005352B43FA4DA84202D0FA4DA84208D173
:1018C0004BF6FF752C408D894FF6FF7606EA85159D
:1018D0002C4384808283CD88A0F84050038470BD5F
:1018E000828B4FF2FF331A408283828B4FF6FF7355
:1018F00003EA01231A4382837047F0B50C4615466C
:10190000002200210026078C4EF6FF7C07EA0C0718
:101910000784828B018C4FF6FF7707EA043640F686
:10192000FF473A404FF6FF7707EA05273A434FF65D
:10193000FF7707EA03373A43D94FB8420ED0D94F61
:10194000B8420BD0B0F1804F08D0D74FB84205D085
:10195000D64FB84202D0D64FB84206D14DF6FF77E7
:10196000394046F48057394305E047F6FF57394080
:1019700044F48057394382830184F0BD828B4FF653
:10198000F3731A408283828B0A4382837047F0B5D7
:101990000C461546002200210026078C4FF6FF6CEE
:1019A00007EA0C070784828B018C4FF6FF7707EA62
:1019B00004264FF60C773A404FF6FF7707EA0317F5
:1019C0002F433A43B64FB8420ED0B64FB8420BD071
:1019D000B0F1804F08D0B44FB84205D0B34FB842F1
:1019E00002D0B34FB84206D14FF6FF57394046F404
:1019F0008077394305E04FF2FF57394044F4807750
:101A0000394382830184F0BD028B4FF2FF331A40C9
:101A10000283028B4FF6FF7303EA01231A4302830A
:101A20007047F0B50C461546002200210026078CB1
:101A30004FF6EF7C07EA0C070784028B018C4FF608
:101A4000FF7707EA041640F6FF473A404FF6FF7764
:101A500007EA03373A434FF6FF7707EA05273A4389
:101A60008F4FB8420ED08F4FB8420BD0B0F1804F9D
:101A700008D08D4FB84205D08C4FB84202D08C4F61
:101A8000B84206D14FF6DF77394046F010073943A8
:101A900005E04FF65F77394044F010073943028381
:101AA0000184F0BD028B4FF6F3731A400283028B60
:101AB0000A4302837047F0B50C4615460022002108
:101AC000068C4FF6FE773E400684028B018C4FF663
:101AD0000C7632407E1C06EA03162E433243704ECB
:101AE000B0420ED06F4EB0420BD0B0F1804F08D054
:101AF0006D4EB04205D06D4EB04202D06C4EB04239
:101B000006D14FF6FD76314044F00106314305E041
:101B10004FF6F576314044F00106314302830184EB
:101B2000F0BD70B505460C465D4885420ED05D4857
:101B300085420BD0B5F1804F08D05B48854205D077
:101B40005A48854202D05A48854200D100E000BF81
:101B5000208850B92389A28861882846FFF7ABFF07
:101B6000E1882846FFF79EFF25E0208804280AD157
:101B70002389A28861882846FFF753FFE188284619
:101B8000FFF742FF17E0208808280AD12389A2889E
:101B900061882846FFF7FBFEE1882846FFF7EEFE46
:101BA00009E02389A28861882846FFF7A6FEE1881C
:101BB0002846FFF795FE70BD2DE9F04105460C461D
:101BC00000260127608808B9022600E00026A088C8
:101BD000012801D1022700E001272088A0B923892C
:101BE000A28861882846FFF766FFE1882846FFF74C
:101BF00059FF23893A4631462846FFF712FFE1880C
:101C00002846FFF701FF13E02389A2886188284650
:101C1000FFF707FFE1882846FFF7F6FE23893A46DB
:101C200031462846FFF747FFE1882846FFF73AFF8D
:101C3000BDE8F0810A884B881A438B881A43CB8809
:101C40001A430B891A434B891A438B891A43A0F80C
:101C5000442070474FF6FF71818000210180C180D0
:101C60004180017270470021018041808180C180E4
:101C7000018141818181C1817047002101804180C2
:101C8000012181800021C1800181704700210180F4
:101C900041808180C1800181418181817047000044
:101CA000002C0140003401400004004000080040C6
:101CB000000C004021B1028842F00102028004E0E1
:101CC00002884FF6FE731A400280704731B1B0F8B7
:101CD000442042F40042A0F8442005E0B0F844203B
:101CE000C2F30E02A0F8442070471AB183890B4357
:101CF000838102E083898B438381704781827047AF
:101D000041EA0203A0F8483070471AB183890B43B7
:101D1000838102E083898B438381704701894FF679
:101D2000F8721140018170470A46002101894FF67F
:101D30008F73194011430181704730B504460D4639
:101D400029462046FFF7F0FF208940F00700208158
:101D500030BD2DE9F04104460D4616461F46602D64
:101D600006D13B46012231462046FFF75AFE05E0E8
:101D70003B46012231462046FFF79DFE294620467C
:101D8000FFF7D2FF208940F007002081BDE8F081F5
:101D900030B50C4600210189C9B24FF6FF7505EA3E
:101DA0000325154325432943018130BD2DE9F04129
:101DB00005460E4617469846002443463A463146A5
:101DC0002846FFF7E5FF2C894FF6F870044044F0F1
:101DD00007044FF68F70044044F070042C81BDE876
:101DE000F081F0B504460D4616461F463B46324686
:101DF00029462046FFF7CCFF208940F4804020810F
:101E0000F0BD0185828270470A46002101884FF6A5
:101E10008F731940114301807047F0B50C46154689
:101E20001E460021002200230189028B038C4FF6FD
:101E3000F877394021434FF6FC473A4040F201170A
:101E40003A434FF6DD773B404FF6FF7707EA061738
:101E50002F433B43018102830384F0BD0A460021E6
:101E6000018B4FF68F7319401143018370470A4667
:101E70000021018B48F6FF7319404FF6FF7303EA08
:101E800002231943018370470A460021818B4FF6D4
:101E90008F7319401143818370470A460021818B5B
:101EA00048F6FF7319404FF6FF7303EA0223194304
:101EB0008183704721B1028842F08002028004E0F1
:101EC00002884FF67F731A400280704721B18288E2
:101ED00042F00402828004E082884FF6FB731A40CD
:101EE0008280704721B1828842F00802828004E03B
:101EF00082884FF6F7731A408280704721B182883A
:101F000042F00102828004E082884FF6FE731A409C
:101F1000828070470A460021018B4FF6F773194003
:101F20001143018370470A460021018B4FF2FF7372
:101F300019404FF6FF7303EA0223194301837047E8
:101F40000A460021818B4FF6F773194011438183B4
:101F500070470A460021818B4FF2FF7319404FF6FC
:101F6000FF7303EA02231943818370470A46002165
:101F7000018B4FF6FB7319401143018370470A46EA
:101F80000021018B4FF6FF3319404FF6FF7303EA30
:101F900002231943018370470A460021818B4FF6C3
:101FA000FB7319401143818370470A460021818BDE
:101FB0004FF6FF3319404FF6FF7303EA022319432C
:101FC000818370470A460021018B4FF67F731940C9
:101FD0001143018370470A460021018BC1F30E01B2
:101FE0004FF6FF7303EA02231943018370470A4641
:101FF0000021818B4FF67F73194011438183704715
:102000000A460021818BC1F30E014FF6FF7303EAEC
:1020100002231943818370470A460021018C4FF641
:10202000FD7319401143018470470A460021018C59
:102030004FF6F77319401143018470470A46002197
:10204000018C4FF6DF7319404FF6FF7303EA02135A
:102050001943018470470A460021018C4FF67F73B3
:1020600019404FF6FF7303EA0213194301847047C6
:102070000A460021018C4FF6FF5319404FF6FF73BB
:1020800003EA02231943018470470A460021018CA8
:102090004FF2FF7319404FF6FF7303EA022319430F
:1020A000018470470A460021018C4DF6FF731940E8
:1020B0004FF6FF7303EA023319430184704730B5CA
:1020C000002301248C40A3B2048C9C430484048C20
:1020D00002FA01F5ADB22C43048430BD30B50023C3
:1020E00004248C40A3B2048C9C430484048C02FA24
:1020F00001F5ADB22C43048430BD70B50346002019
:1021000000241846183001258D40ACB21D8CA54323
:102110001D8409B1082909D100EB6100056825F08B
:10212000700505600568154305600EE00D1FC5F3D9
:102130004E052844056825F4E045056005684FF61E
:10214000FF7606EA02263543056070BD21B102889C
:1021500042F00202028004E002884FF6FD731A404A
:102160000280704721B1028842F00402028004E03C
:1021700002884FF6FB731A400280704721B18288B3
:1021800042F08002828004E082884FF67F731A401A
:102190008280704702884FF6F7731A4002800288E7
:1021A0000A430280704782884FF68F731A408280FC
:1021B00082880A438280704702894FF6F8731A407A
:1021C000028102890A430281704702894FF67F73B8
:1021D0001A40028102890A43028170478184704754
:1021E0008185704781867047018770478187704776
:1021F000A0F84010704702884FF6FF431A40028053
:1022000002880A43028070470146888E7047014663
:10221000088F70470146888F70470146B1F840002B
:1022200070470146888C70470146088D704702460A
:102230000020138A0B4201D0012000E000207047EB
:10224000CA430282704730B50246002000230024B2
:10225000158A05EA0103958905EA010413B10CB159
:10226000012000E0002030BDCA4302827047000018
:1022700010B50446FB48844209D101218803FEF7CA
:1022800073FE00214FF48040FEF76EFE32E0F64808
:10229000844209D101214804FEF773FE00214FF466
:1022A0000030FEF76EFE25E0F048844209D101219E
:1022B0008804FEF766FE00214FF48020FEF761FEE1
:1022C00018E0EB48844209D10121C804FEF759FE09
:1022D00000214FF40020FEF754FE0BE0E548844255
:1022E00008D101210805FEF74CFE00214FF48010B3
:1022F000FEF747FE10BD2DE9F04786B005460E46B5
:102300000024A24600BFA1460027B08900B100BF4B
:102310002F462C8A4CF6FF700440F08804432C8230
:10232000AC894EF6F3100440B088318908437189B6
:1023300008430443AC81AC8A4FF6FF400440B089A7
:102340000443AC8201A8FEF788FDC648874202D14B
:10235000DDF810A001E0DDF80CA0A88910F4004F12
:1023600008D00AEBCA0000EB0A1031684900B0FB44
:10237000F1F807E00AEBCA0000EB0A1031688900A7
:10238000B0FBF1F86420B8FBF0F0040120096421EF
:1023900001FB1089A88910F4004F08D0322000EB0F
:1023A000C900B0FBF1F000F00700044308E0322060
:1023B00000EB09106421B0FBF1F000F00F000443C2
:1023C0002C8106B0BDE8F0874FF416510160002162
:1023D0008180C18001810C21418100218181704770
:1023E00010B502460020108A4FF2FF0318400B88F8
:1023F0004C8823438C882343CC8823431843108282
:1024000010BD0021018041808180C180704721B1D1
:10241000828942F40052828104E082894DF6FF7382
:102420001A4082817047F0B503460024002600253B
:102430000020A1F510676A3F00D100BF1846C1F324
:10244000421401F01F06012707FA06F5012C01D1FD
:102450000C3004E0022C01D1103000E014301AB12D
:1024600007682F43076002E00768AF430760F0BDCD
:102470001AB1838A0B43838202E0838A8B4383826F
:102480007047028A4FF6F0731A400282028A0A43AA
:102490000282704782894FF2FF731A4082818289DB
:1024A0000A438281704721B1828942F0020282810F
:1024B00004E082894FF6FD731A4082817047028AD8
:1024C0004FF6DF731A400282028A0A430282704783
:1024D00021B1028A42F48042028204E0028A4BF671
:1024E000FF731A4002827047C1F30802828070476E
:1024F00001468888C0F308007047818941F00101D6
:1025000081817047028BD2B20283028B42EA0122A0
:1025100002837047028B02F47F420283028B0A43DC
:102520000283704721B1828A42F02002828204E055
:10253000828A4FF6DF731A408282704721B1828A05
:1025400042F01002828204E0828A4FF6EF731A4052
:102550008282704721B1828A42F00802828204E0BE
:10256000828A4FF6F7731A408282704721B18289BE
:1025700042F40042828103E08289C2F30E0282812A
:10258000704721B1828A42F40062828204E0828A2A
:102590004FF2FF731A4082827047828A4FF6FB73B4
:1025A0001A408282828A0A438282704721B1828ADB
:1025B00042F00202828204E0828A4FF6FD731A40E2
:1025C0008282704702460020B1F5007F00D100BF33
:1025D00013880B4201D0012000E00020704701F475
:1025E0000072B2F5007F00D100BFCA43028070477D
:1025F00070B502460024002300250020A1F51066D6
:102600006A3E00D100BFC1F3421501F01F0301264D
:1026100006FA03F3012D02D19689334006E0022D1C
:1026200002D1168A334001E0968A33400C1201260B
:1026300006FA04F41688344013B10CB1012000E00E
:10264000002070BD10B500220023A1F510646A3C83
:1026500000D100BF0A1201249440A3B2DC430480DD
:1026600010BD000000380140004400400048004018
:10267000004C0040005000402DE9F0414FF00008B0
:1026800000250027FF20F849087005F0B7FA0A2254
:10269000F649F74803F0BFF90822F4491031F4482D
:1026A0001C3003F0B8F900F071FEF1481E3800F05C
:1026B00053FE00F041FE00F032FDD8E0142F02D1AD
:1026C00000F02DFD0027781CC7B2322002F022F85E
:1026D00005F0F6FAE449087008460078FF282CD087
:1026E00008460078FE2828D0FF200870E1480078CE
:1026F00001281AD105F082FA00F048FE0020DD49D9
:1027000008704FF47A7002F005F8DBA20221242051
:1027100000F066FC4FF47A7001F0FCFF00F036FE2A
:1027200000F00AFE00F0FBFC07E0D248007820B978
:10273000FA20D4490870BDE8F081FF22D249022076
:1027400002F05CFE0446032C03DBFC20CD4908703C
:10275000F1E74FF40272CD49012002F0EDFC04468E
:10276000072C28D1C9480078AA2824D1C748407826
:10277000752820D1C54880780D281CD1C348C07861
:10278000022818D1C1480079A8B9C0484079012869
:1027900011D1BE488079D1280DD1BD480068C0F361
:1027A000400646B10020BB49087003F083FDFD20C0
:1027B000B4490870BFE74FF40272B449032002F035
:1027C000E1F90446072C23D1B0480078AA281FD18C
:1027D000AE48407875281BD1AC4880780D2817D1B9
:1027E000AA48C078022813D1A848007980B9A74820
:1027F000407901280CD1A5488079D12808D1012041
:10280000A449087003F056FDFD209E49087092E728
:102810009F480068C0F3400616B100209D4908702B
:10282000681CC5B2A5F57F40FE3820D1002505F013
:10283000E0F905F05CF9012819D105F0A4F90020B0
:102840009549087042F6C953944A0821012004F0C2
:10285000CDFD01E005F0CDF98F4800780028F9D0D2
:10286000012004F016FE01E005F0C3F9FCE725E7BE
:1028700008B501210820FEF75DFB0220ADF800003D
:1028800010208DF8030003208DF80200694684486B
:10289000FEF718F802218248FEF7BFF808BD08B518
:1028A00001210420FEF746FB4FF48070ADF80000D4
:1028B00010208DF8030003208DF80200694674484B
:1028C0000838FDF7FFFF4FF4807171480838FEF7B4
:1028D000A6F808BD08B501210820FEF72BFB402013
:1028E000ADF8000010208DF8030003208DF80200E1
:1028F00069466B48FDF7E6FF40216948FEF78DF811
:1029000008BD08B501210820FEF714FB0120ADF831
:10291000000010208DF8030003208DF802006946A6
:102920005F48FDF7CFFF01215D48FEF776F808BD4F
:1029300008B501210420FEF7FDFA0220ADF80000E1
:1029400028208DF8030003208DF8020069465048C6
:102950000838FDF7B7FF08BDA0B000BF51A003C8FD
:10296000CDE91E0151A103C9CDE91C0100BF00BF83
:10297000222113A805F09DFA4E4B0FCBCDE9112370
:10298000CDE90F0100BF342102A805F092FA012021
:10299000019001F073FE01F04BFFFFF7C9FFFFF755
:1029A000B0FFFFF797FFFFF77AFF4FF480703849C9
:1029B0000C310860FFF75CFF0220394914310860D0
:1029C00001F0ADFD04F0B4FC04F063FE02F00CFA7B
:1029D00002F029FA02F090FC02F0AFFC01F088FF4F
:1029E00001F0A8FF01F0C5FF4FF4006028490C3149
:1029F000086002F0F5FE05F023F805F032F800213A
:102A00001A480C3803F043F918480C3803F056F90B
:102A1000012801D103F010FA02F06BF92649087081
:102A200001221249403101A803F01BF8FF2015498B
:102A3000087017E013480078FA280ED0FC2809D057
:102A4000FD2804D0FF280BD1FFF716FE09E004F0A3
:102A5000C4FB06E002F0ECFD03E000F00DFF00E037
:102A600000BF00BFE6E700004C0E00203000180059
:102A70007A03002019000020BFAABBFAD6D02E2E60
:102A80002E000000710000202E000020B10E00205A
:102A9000080801401C0000208D0E0020E77400088B
:102AA000000C0140557ABB01000100003031323387
:102AB00034350000687F00081D00002008B50121A2
:102AC0000820FEF737FA8020ADF8000010208DF8BE
:102AD000030003208DF8020069460448FDF7F2FE6A
:102AE00080210248FDF799FF08BD0000000C01405D
:102AF000704700BFFEE700BFFEE700BFFEE700BF74
:102B0000FEE7704770477047704710B540F2255197
:102B10003E48FFF76DFDB8B13C48FFF7E9FCC4B291
:102B20003B484188801D4454801F4088401C3849E0
:102B3000488008464088FE2801DB0020488040F29B
:102B400025513248FFF77EFD10BD10B540F22551EA
:102B50003048FFF74DFDB8B12E48FFF7C9FCC4B2AD
:102B60002D484188801D4454801F4088401C2A49BC
:102B7000488008464088FE2801DB0020488040F25B
:102B800025512448FFF75EFD10BD10B540F22551D8
:102B90002248FFF72DFDB8B12048FFF7A9FCC4B2C9
:102BA0001F484188801D4454801F4088401C1C4998
:102BB000488008464088FE2801DB0020488040F21B
:102BC00025511648FFF73EFD10BD70B5012188075D
:102BD000FFF739FBC0B101218807FFF745FB114C16
:102BE00000250FE0A06850B1A088401CA080A088FC
:102BF0006188884203DBA06880470020A0800C34F5
:102C0000681CC5B2032DEDDB70BD0000003801402B
:102C1000D611002000440040DA1200200048004095
:102C2000D2100020E023002000210020674A126813
:102C300042F48032654B1A6000BF644A126802F4A5
:102C40000030491C10B9B1F5A06FF6D15F4A126887
:102C500012F4003F01D0012000E00020012842D101
:102C60005B4A126842F01002594B1A601A46126809
:102C700022F003021A601A46126842F002021A6039
:102C8000524A5268514B5A601A4652685A601A4664
:102C9000526842F480625A601A46526822F47C12EA
:102CA0005A601A46526842F4E8125A601A4612688C
:102CB00042F080721A6000BF444A126812F0007F2E
:102CC000FAD0424A526822F00302404B5A601A4638
:102CD000526842F002025A6000BF3C4A526802F059
:102CE0000C02082AF9D1704710B5FFF79DFF10BDFF
:102CF00010B53648006840F00100344908600846C5
:102D00004068344908403149486008460068324903
:102D100008402E4908600846006820F480200860BA
:102D20000846406820F4FE0048604FF41F008860A9
:102D3000FFF7DAFF4FF000602849086010BD10B5BA
:102D4000002100200022214B5B6803F00C0121B11F
:102D5000042906D0082928D107E0214B214C236003
:102D600027E01F4B1F4C236023E0184B5B6803F4E4
:102D70007010164B5B6803F48032022303EB904023
:102D800022B9194B4343174C23600DE00F4B5B688E
:102D900013F4003F04D0144B4343124C236003E070
:102DA0000F4B43430F4C236003E00D4B0D4C23604E
:102DB00000BF00BF054B5B68C3F303130B4CE15C22
:102DC000084B1B68CB40074C236010BD001002402D
:102DD000002002400000FFF8FFFFF6FE08ED00E0D3
:102DE00000127A007400002000093D0078000020E5
:102DF00070B504460E462EB14FF48051FE48FDF7E3
:102E00000CFE04E04FF48051FB48FDF708FE4FF440
:102E10000071F948FDF703FE00251BE04FF4005157
:102E2000F548FDF7FCFD14F0800F05D04FF400418C
:102E3000F148FDF7F2FD04E04FF40041EE48FDF7E4
:102E4000EEFD4FF40051EC48FDF7E7FD6006040E7F
:102E5000681CC5B2082DE1DB4FF40071E648FDF7B0
:102E6000DCFD4FF48051E448FDF7D7FD70BD70B52F
:102E700004460D4605F1B001C8B20021FFF7B8FFC6
:102E8000102141EA14100021FFF7B2FF04F00F01F6
:102E9000881C0021FFF7ACFF70BD2DE9F04F89B011
:102EA00007460E4615462878A03800F0FF086878D7
:102EB000A03800F0FF09A9F10100A8F101015E228C
:102EC00002FB01004FEA401ACC48006800EB0A0BF5
:102ED0002022594601A802F0B4FEC9480078012812
:102EE0000AD1002406E001A8005DC04301A90855ED
:102EF000601CC4B2202CF6DB31463846FFF7B7FF22
:102F0000002406E001A9085D0121FFF771FF601CA4
:102F1000C4B2102CF6DB701CC1B23846FFF7A7FF15
:102F2000002408E001AA04F11001505C0121FFF720
:102F30005FFF601CC4B2102CF4DB09B0BDE8F08F59
:102F40002DE9FF4107460E46904600250024A8F1D2
:102F50002000C5B2AA48007860B900BF07E004EBC2
:102F60000510A849085C0DF80400601CC4B2102CC0
:102F7000F5DB0DE0002409E004EB0510A149085C35
:102F8000C043C0B20DF80400601CC4B2102CF3DBC7
:102F90007F2F02DD0027B01CC6B231463846FFF74E
:102FA00066FF002406E01DF804000121FFF720FF62
:102FB000601CC4B2082CF6DB701CC1B23846FFF7A7
:102FC00056FF002408E004F108011DF8010001216A
:102FD000FFF70EFF601CC4B2082CF4DBBDE8FF81D4
:102FE0002DE9F04105460F461446002617E02078EB
:102FF000802809DA227839462846FFF7A1FF641CA9
:1030000005F10800C5B208E0224639462846FFF718
:1030100044FFA41C05F11000C5B2701CC6B2207894
:1030200008B1142EE3DBBDE8F08170B504460D460F
:103030001646324629462046FFF7D2FF70BD70B5CE
:1030400004460D46164601206D4908703246294651
:103050002046FFF7C5FF00206949087070BD70B5B4
:103060000546012426E068480078844210D1C4EB6C
:10307000C40305EB83039A1CC4EBC40305EB830371
:103080005978C4EBC40315F82300FFF7D8FF0FE00D
:10309000C4EBC40305EB83039A1CC4EBC40305EB28
:1030A00083035978C4EBC40315F82300FFF7BDFF71
:1030B000601CC4B26878A042D5DA70BD2DE9F04733
:1030C00006460F4690461C46E11704EB5171C910A5
:1030D000B4EBC10105D12046E11704EB5171CD10CD
:1030E00005E02046E11704EB5171C9104D1C3D4627
:1030F00011E029463046FFF7BAFEB14607E001214C
:103100000020FFF775FE09F1010000F0FF09C1453D
:10311000F5DB681CC5B2A542EBDBBDE8F08710B556
:103120008CB004F0EBFB32208DF8200030208DF8BD
:10313000210036480078040904F130008DF822009F
:103140003248007800F00F0404F130008DF82300BD
:10315000C4208DF82400EA208DF825002B48407803
:10316000040904F130008DF826002848407800F06A
:103170000F0404F130008DF82700D4208DF82800CA
:10318000C2208DF8290021488078040904F130001C
:103190008DF82A001D48807800F00F0404F13000FB
:1031A0008DF82B00C8208DF82C00D5208DF82D002F
:1031B00000208DF82E001548C078040904F1300075
:1031C0008DF810001148C07800F00F0404F13000B1
:1031D0008DF81100CA208DF81200B1208DF813006F
:1031E0000A480079040904F130008DF814000748FA
:1031F000007900F00F040BE0000C014048020020B1
:103200001B000020A08100081A00002028000020D8
:1032100004F130008DF81500B7208DF81600D62087
:103220008DF81700FE484079040904F130008DF84C
:103230001800FB48407900F00F0404F130008DF8CD
:103240001900C3208DF81A00EB208DF81B00002018
:103250008DF81C009DF826008DF804009DF82700CD
:103260008DF805002F208DF806009DF82A008DF8B6
:1032700007009DF82B008DF8080020208DF809002C
:103280009DF810008DF80A009DF811008DF80B00D4
:103290003A208DF80C009DF814008DF80D009DF873
:1032A00015008DF80E0000208DF80F00022360221B
:1032B00000210846FFF702FF01AA00210846FFF798
:1032C0008FFE0CB010BD2DE9F05F06460F4690460C
:1032D0001C46DDF828A04FF0000BE11704EB5171FC
:1032E000C910B4EBC10105D12046E11704EB5171BF
:1032F000CD1005E02046E11704EB5171C9104D1CBB
:103300003D4615E029463046FFF7B1FDB1460BE0DA
:1033100059460BF1010B1AF801000121FFF768FD76
:1033200009F1010000F0FF09C145F1DB681CC5B2DD
:10333000A542E7DBBDE8F09F08B50223802200210B
:103340006020FFF7BBFEB7480223802200210090D7
:103350006020FFF7B8FF08BD70B50446012511E0F5
:10336000C5EBC50304EB83039A1CC5EBC50304EB53
:1033700083035978C5EBC50314F82300FFF755FE06
:10338000681CC5B26078A842EADA70BD70B5002446
:1033900019E004F1B001C8B20021FFF729FD0021B6
:1033A0001020FFF725FD00210846FFF721FD00252D
:1033B00005E001210020FFF71BFD681CC5B2862D2A
:1033C000F7DB601CC4B2082CE3DB70BD10B5002134
:1033D0008D20FFF70DFD00211420FFF709FD0021CE
:1033E000AF20FFF705FD10BD10B500218D20FFF7C0
:1033F000FFFC00211020FFF7FBFC0021AE20FFF7AF
:10340000F7FC10BD2DE9F041002600250027864875
:10341000007886490870642001F07CF9FFF7B6FF58
:103420008148FFF799FFFFF787FFFFF778FE50E02D
:1034300004F0E4FB04F044FC04467D4800780128D5
:1034400000D147E0FE2C0CD1681CC5B2642001F00D
:1034500061F978480068854203D3FFF7C5FF01266C
:103460000025012E0FD1022C05D0042C03D0032CF3
:1034700001D0012C07D1FFF7A9FF00264FF47A7085
:1034800001F048F9FE24042C19D100250027FFF78C
:103490007DFF66480078032800D11BE06349097866
:1034A000C1EBC101604A02EB810188698047604835
:1034B0000078012800D10DE004F0A0FB09E0022C07
:1034C00007D1FFF763FFFF205B49087004F006FC9B
:1034D00000E0ADE700BFFF2057490870BDE8F0816C
:1034E0002DE9F041002600270025544800784F4977
:1034F0000870642001F00EF9FFF748FF4F48FFF70E
:10350000AEFDFFF719FFFFF70AFECCE004F076FBF3
:1035100004F0D6FB044646480078012800D1C3E0F9
:10352000FE2C0CD1781CC7B2642001F0F3F841489E
:103530000068874203D3FFF757FF01260027012EBB
:103540000FD1022C05D0042C03D0032C01D0012C68
:1035500007D1FFF73BFF00264FF47A7001F0DAF84D
:10356000FE24012C22D100270025344800782F4961
:103570000978884205DA2D480078401E2B490870EA
:1035800009E02E48007829490978884203DB2B4856
:10359000407826490870FFF7F9FE2848FFF75FFDDD
:1035A000FFF7CAFEFFF7BBFD04F028FB032C22D176
:1035B00000270025214840781C490978884205DD0C
:1035C0001A480078401C1949087009E01B484078E7
:1035D00016490978884203DC1848007813490870B6
:1035E000FFF7D4FE1548FFF73AFDFFF7A5FEFFF7FA
:1035F00096FD04F003FB042C2DD100270025FFF7D6
:10360000C5FE0A4890F8008001460978C1EBC10167
:103610000A4A02EB810188698047044810E00000F3
:103620002800002059020020D40800201A000020A1
:10363000170000204C020020710000208C050020A3
:1036400080F80080FC48FFF70AFDFFF775FEFFF7E2
:1036500066FD04F0D3FA3EB9022C05D10027681CA0
:10366000C5B2642001F056F81E2D0CDB0025F3488E
:1036700090F80080FFF7C6FEF04880F80080EE4822
:10368000FFF7EDFC0FE0022C0DD0002D0BDD142D0B
:1036900009DA00270025FFF779FEFF20E8490870C6
:1036A00004F01CFB00E031E700BFFF20E449087094
:1036B000BDE8F0812DE9F041002600270025E14812
:1036C0000078DE490870FFF761FEDE48FFF7C7FCAF
:1036D000FFF732FEFFF723FDC7E004F08FFA04F096
:1036E000EFFA0446D8480078012800D1BEE0FE2C4D
:1036F0000CD1781CC7B2642001F00CF8D3480068E4
:10370000874203D3FFF770FE01260027012E0FD159
:10371000022C05D0042C03D0032C01D0012C07D19E
:10372000FFF754FE00264FF47A7000F0F3FFFE24FA
:10373000012C25D100270025C2480078BF4909780F
:10374000884205DABD480078401EBC49087009E08F
:10375000BC480078B9490978884203DBB948407809
:10376000B6490870FFF712FEB648FFF778FCFFF77E
:10377000E3FDFFF7D4FC04F041FA642000F0CAFF37
:10378000032C25D100270025AE484078AB490978A5
:10379000884205DDA9480078401CA849087009E066
:1037A000A8484078A5490978884203DCA5480078F4
:1037B000A2490870FFF7EAFDA248FFF750FCFFF7A7
:1037C000BBFDFFF7ACFC04F019FA642000F0A2FF87
:1037D000042C1ED100270025FFF7D8FD974890F84C
:1037E000008001460978C1EBC101964A02EB8101D4
:1037F00088698047914880F8008004F0FFF991487B
:10380000FFF72DFCFFF798FDFFF789FC642000F01F
:1038100081FF3EB9022C05D10027681CC5B2642087
:1038200000F078FF1E2D10DB0025844890F8008002
:10383000FFF7E8FD814880F800808248FFF70FFC21
:10384000FFF77AFDFFF76BFC0FE0022C0DD0002D87
:103850000BDD142D09DA00270025FFF797FDFF2067
:103860007749087004F03AFA00E036E700BFFF201D
:1038700073490870BDE8F0812DE9F0470025002666
:103880000027A946FFF782FD714800786B49087050
:103890006F48FFF761FDFFF74FFDFFF740FC002089
:1038A0006C49087042F6C9536B4A0121084603F07F
:1038B0009DFDB6E004F0A2F904F002FA0446624865
:1038C0000078012800D1B1E0FE2C0ED1701CC6B2E8
:1038D000642000F01FFF5D480068864205D3002188
:1038E000AE20FFF785FA01250026012D11D1022C0B
:1038F00005D0042C03D0032C01D0012C09D10021C8
:10390000AF20FFF775FA00254FF47A7000F002FF40
:10391000FE243DBB012C25D100264D4800784749A7
:103920000978884205DA45480078401E4349087006
:1039300009E04748007841490978884203D1444862
:1039400040783E490870FFF721FD4148FFF704FD2C
:10395000FFF7F2FCFFF7E3FB4FF4FA7000F0DAFE3A
:1039600004F04CF90DBB032C1FD1002638484078D9
:1039700032490978884205DD30480078401C2F49DB
:10398000087003E0324800782C490870FFF7FEFC0D
:103990002F48FFF7E1FCFFF7CFFCFFF7C0FB04F077
:1039A0002DF94FF4FA7000F0B5FECDB9042C17D103
:1039B0000026FFF7EBFC214890F80080FFF77AFE25
:1039C0001E4880F800802248FFF7C6FCFFF7B4FCD1
:1039D000FFF7A5FB4FF4FA7000F09CFE04F00EF91F
:1039E00085B9022C0ED10026781CC7B2FFF778FDEE
:1039F000642000F08FFE1648FFF7AEFCFFF79CFC3A
:103A0000FFF78DFB1E2F08DB00270C4890F8008085
:103A100080F800800E48FFF722FB09F1010000F05A
:103A2000FF090C48007800283FF444AF00BFFF2096
:103A300003490870BDE8F0878C0500201A000020BB
:103A40007100002074040020170000204C020020A8
:103A50005C0300208D0E0020E774000810B5FFF70E
:103A60000BFF10BD10B5FFF725FE10BD10B5FFF719
:103A700037FD10BD10B5FFF7C5FC10BD2DE9F041B5
:103A8000002600270025A846FA480078FA49087061
:103A9000FFF77CFCF748FFF7E2FA60E104F0AEF8CC
:103AA00004F00EF90446F5480078012800D157E1EA
:103AB000FE2C0CD1781CC7B2642000F02BFEF0481D
:103AC0000068874203D3FFF78FFC01260027012EF1
:103AD0000ED1022C05D0042C03D0032C01D0012CD4
:103AE00006D1FFF773FC0026642000F013FEFE24CD
:103AF000012C39D100270025DF480078C0EBC00039
:103B0000DC4901EB80008078401CDB490978C1EB7F
:103B1000C101D84A02EB81018870D7480078C0EB18
:103B2000C000114601EB80008078392807DD302085
:103B3000D1490978C1EBC10102EB81018870CE48FF
:103B40000078C0EBC000CB4901EB80008178CA4807
:103B50000078001FCB4A115404F050F8C548FFF715
:103B60007EFA642000F0D6FD032C39D10027002511
:103B7000C1480078C0EBC000BE4901EB80008078EE
:103B8000401EBD490978C1EBC101BA4A02EB81016F
:103B90008870B9480078C0EBC000114601EB800086
:103BA0008078302807DA3920B3490978C1EBC101A0
:103BB00002EB81018870B0480078C0EBC000AD49CD
:103BC00001EB80008178AC480078001FAD4A1154A9
:103BD00004F014F8A748FFF742FA642000F09AFDB9
:103BE000042C14D100270025A2484078A249097866
:103BF00088420DDDA0480078401C9F49087003F002
:103C0000FDFF9C48FFF72BFA642000F083FD7EE067
:103C10009848407898490978884278DC04229A4983
:103C20009A4801F0F8FE97480178984800783030BB
:103C3000814241D193484178944840783030814264
:103C40003AD190488178914880783030814233D1A0
:103C50008C48C1788D48C078303081422CD1FFF734
:103C600095FB8BA202212020FFF7BAF98BA2042139
:103C70002820FFF7B5F93020824908704870887015
:103C8000C87030217B4880F8721080F88E1080F860
:103C9000AA1080F8C610642000F03CFD0220814983
:103CA000086041F2883000F035FD02207D49091D91
:103CB0000860FFF76BFB53E0FFF768FB7AA2022175
:103CC0001820FFF78DF97BA204211820FFF788F94F
:103CD00030206C49087048708870C8703021654881
:103CE00080F8721080F88E1080F8AA1080F8C61044
:103CF0004FF4FA6000F00EFDFFF748FB5D480078D6
:103D00005D4908705B48FFF7AAF903F077FF3EB9F9
:103D1000022C05D10027681CC5B2642000F0FAFC13
:103D20001E2D0CDB0025544890F80080FFF76AFB3D
:103D3000514880F800804F48FFF791F90FE0022CBE
:103D40000DD0002D0BDD142D09DA00270025FFF71B
:103D50001DFBFF205A49087003F0C0FF00E09DE6FC
:103D600000BFFF2056490870BDE8F08110B5FFF78D
:103D700085FE10BD10B5FFF737FB01203F490870E5
:103D800010BD70B5002500264E4800783A490870ED
:103D90004C48FFF764F900204B49087042F6C953BC
:103DA0004A4A0A21012003F021FB012003F071FBA4
:103DB000A4E003F023FF03F083FF0446FE2C02D1AE
:103DC000642000F0A7FC012C21D13E4800782A494C
:103DD0000978884205DA28480078401E264908708C
:103DE00009E03848007824490978884203D13548E9
:103DF000407821490870FFF7C9FA3248FFF72FF9D8
:103E0000334A50212020FFF7EBF803F0F7FE032C94
:103E100016D12C48407818490978884205DD1648A3
:103E20000078401C1449087003E0264800781249C5
:103E30000870FFF7ABFA2348FFF711F903F0DEFE35
:103E4000042C51D1FFF7A2FA0B480078032841D186
:103E50001C48FFF704F900201B49087042F6C953BB
:103E60001A4A0A21012003F0C1FA012003F011FBD4
:103E700038E00000BC0700201A00002017000020D6
:103E80004C02002050020020500018005402002074
:103E9000C3DCC2EBD5FDC8B7A3A10000BFAACBF815
:103EA000D6D00000100C0140C3DCC2EBB4EDCEF361
:103EB000A3A10000C7EBD6D8D0C2CAE4C8EB00006B
:103EC00071000020040B00208D0E0020E774000814
:103ED0002E000020FFF75AFAFF20F749087003F080
:103EE000FDFE0CE003F08AFE022C07D1FFF74EFA2C
:103EF000FF20F149087003F0F1FE00E059E700BF30
:103F0000FF20ED49087070BD10B5FFF73AFF10BDF6
:103F100070B5EA480078EA490870642000F0FAFBBE
:103F2000FFF734FAE548FFF79AF8E64800780128E9
:103F300008D10220E4490860E4A204212020FFF710
:103F40004FF804E0E3A204212020FFF749F848E0FD
:103F500003F054FE03F0B4FE0446FE2C03D16420AB
:103F600000F0D8FB3DE0012C1DD1D4484078D44965
:103F70000978884205DDD2480078401CD049087095
:103F800009E0CE484078CE490978884203D1CB4831
:103F90000078CB490870FFF7F9F9C848FFF75FF8D8
:103FA00003F02CFE1DE0042C11D1FFF7EFF9C448FB
:103FB000057801460978C1EBC101C04A02EB8101D5
:103FC00088698047BE48057003F018FE09E0022C9E
:103FD00007D1FFF7DBF9FF20B749087003F07EFE39
:103FE00000E0B5E700BFFF20B349087070BD10B511
:103FF000FFF78EFF10BD10B5FFF7F6F9FFF75AFB7C
:1040000010BD2DE9F0414FF0000800270025B3480E
:104010000078AB490870642000F07CFBFFF7B6F92C
:10402000AF48FFF71CF8FFF787F9FFF778F856E07D
:1040300003F0E4FD03F044FE0446AA48007801289A
:1040400000D14DE0FE2C0DD1781CC7B2642000F0E9
:1040500061FBA5480068874204D3FFF7C5F94FF01C
:1040600001080027B8F1010F10D1022C05D0042C53
:1040700003D0032C01D0012C08D1FFF7A7F94FF092
:1040800000084FF47A7000F045FBFE24042C09D19F
:1040900000270025FFF77AF9FF208749087003F011
:1040A0001DFE1DE01E2D0ADB002585480678FFF762
:1040B000A9F9834806708948FEF7D1FF0FE0022C6A
:1040C0000DD0002D0BDD142D09DA00270025FFF798
:1040D0005DF9FF207849087003F000FE00E0A7E7D3
:1040E00000BFFF2074490870BDE8F0812DE9F04160
:1040F0000026B04600257D4800787149087064208C
:1041000000F008FBFFF742F97848FEF7A8FFFFF739
:1041100013F9FFF704F8C8E003F070FD03F0D0FDD9
:10412000044670480078012800D1BFE0FE2C0FD172
:1041300008F1010000F0FF08642000F0EBFA6A4883
:104140000068804504D3FFF74FF901264FF00008BF
:10415000012E0FD1022C05D0042C03D0032C01D04A
:10416000012C07D1FFF732F900264FF47A7000F0E6
:10417000D1FAFE24012C23D14FF0000800255B4822
:1041800000784F490978884205DA4D480078401E8A
:104190004B49087009E05548007849490978884238
:1041A00003DB5248407846490870FFF7EFF84F4864
:1041B000FEF755FFFFF7C0F8FEF7B1FF03F01EFD55
:1041C000032C23D14FF000080025484840783C4993
:1041D0000978884205DD3A480078401C3849087063
:1041E00009E04248407836490978884203DC3F4874
:1041F000007833490870FFF7C9F83C48FEF72FFFF5
:10420000FFF79AF8FEF78BFF03F0F8FC042C24D19B
:104210004FF0000800252A480078032804D14FF405
:104220007A703149086010E025480078042804D1EC
:104230004FF496702C49086007E021480078052863
:1042400003D14FF4FA7028490860FF201A4908701A
:10425000FFF7D7FEFFF79AF828E046B9022C06D1FF
:104260004FF00008681CC5B2642000F053FA1E2D00
:104270000ADB002512480778FFF7C4F810480770DA
:104280001A48FEF7ECFE10E0022C0ED0002D0CDDDB
:10429000142D0ADA4FF000080025FFF777F8FF2009
:1042A0000549087003F01AFD00E035E700BFFF2064
:1042B00001490870BDE8F08171000020EC09002080
:1042C0001A00002058020020100C0140D2D1CADA96
:1042D000C8A80000CEB4CADAC8A80000340D002077
:1042E000A4060020170000204C0200201C0C002017
:1042F00010B5FFF7FBFE10BD2DE9F0414FF00008AF
:1043000000270025D6480078D6490870642000F0C0
:1043100001FAFFF73BF8D248FEF7A1FEFFF70CF8D1
:10432000FEF7FDFE56E003F069FC03F0C9FC04460D
:10433000CD480078012800D14DE0FE2C0DD1781C2D
:10434000C7B2642000F0E6F9C8480068874204D389
:10435000FFF74AF84FF001080027B8F1010F10D11C
:10436000022C05D0042C03D0032C01D0012C08D141
:10437000FFF72CF84FF000084FF47A7000F0CAF9FC
:10438000FE24042C09D100270025FEF7FFFFFF20A3
:10439000B749087003F0A2FC1DE01E2D0ADB0025C2
:1043A000B0480678FFF72EF8AE480670AC48FEF726
:1043B00056FE0FE0022C0DD0002D0BDD142D09DA76
:1043C00000270025FEF7E2FFFF20A949087003F04F
:1043D00085FC00E0A7E700BFFF20A5490870BDE805
:1043E000F08110B5FFF788FF10BD10B5024601201F
:1043F00000E050430B00A1F10104E1B2F9D110BD7E
:104400002DE9FF5F074691461D460E9E4FF0000ABC
:10441000002433E0281B401EC1B20A20FFF7E5FF4D
:10442000B9FBF0F00A21B0FBF1F201FB1208BAF17E
:10443000000F13D1681EA04210DDB8F1000F0BD1A0
:10444000B34606EBDB71491001FB0471C8B22022B0
:104450000199FEF775FD0FE04FF0010AB34606EB38
:10446000DB71491001FB0471C8B208F13001CAB216
:104470000199FEF765FD00BF601CC4B2AC42C9DB08
:10448000BDE8FF9F2DE9FE4F0646894617461D46AB
:10449000DDF830800020029001908246834600249F
:1044A0001EE0281B401E81000F2000FA01FA07EAD7
:1044B0000A0B281B401E80002BFA00F0C0B20290AD
:1044C00008EBD871491001FB0461C8B2694BCDF803
:1044D000008002995A5C4946FEF732FD601CC4B266
:1044E000AC42DEDBBDE8FE8F2DE9F04104460F460D
:1044F000154600260EE0AA5D39462046FEF720FD4F
:1045000004F10800C4B2782C02DD0024B81CC7B244
:10451000701CC6B2A85D0028EDD1BDE8F08108B5D9
:1045200001211C20FCF706FD4BF21020ADF8000025
:1045300010208DF8030003208DF8020069464E48D4
:10454000FCF7C0F910214C48FCF767FA642000F032
:10455000E1F810214848FCF762FA642000F0DAF82C
:1045600010214548FCF759FA0021AE20FEF740FC27
:1045700000210220FEF73CFC00211020FEF738FC51
:1045800000214020FEF734FC00218120FEF730FCA2
:104590000021CF20FEF72CFC0021A120FEF728FCF3
:1045A0000021C820FEF724FC0021A620FEF720FCF5
:1045B0000021A820FEF71CFC00213F20FEF718FC7C
:1045C0000021D320FEF714FC00210846FEF710FC62
:1045D0000021D520FEF70CFC00218020FEF708FC0E
:1045E0000021D920FEF704FC0021F120FEF700FC99
:1045F0000021DA20FEF7FCFB00211220FEF7F8FB79
:104600000021DB20FEF7F4FB00214020FEF7F0FB49
:1046100000212020FEF7ECFB00210220FEF7E8FB42
:1046200000218D20FEF7E4FB00211420FEF7E0FBC3
:104630000021A420FEF7DCFB0021A620FEF7D8FB1A
:104640000021AF20FEF7D4FB0021AF20FEF7D0FB06
:10465000FEF79CFE00210846FEF709FC08BD00009D
:10466000340D00201A000020170000204C0200200A
:104670007100002090870008000C014030B585B023
:104680006846FCF7EAFB674A0198B0FBF2F1481E66
:10469000B0F1807F00D31BE0481E4FF0E022506154
:1046A00050170F22002807DA13071D0E5E4B00F08B
:1046B0000F04241F1D5503E013071C0E5B4B1C54F5
:1046C00000BF00204FF0E02290610520106100BF84
:1046D00005B030BD30B50346002000210022002483
:1046E0004FF0E0256C69A96911E04FF0E025A86959
:1046F000884202D20D1A2A4402E0251A0D442A44A7
:1047000003EBC305B2EBC50F00D301E00146ECE7B4
:1047100000BF30BD70B503460020002100220024F8
:104720004FF0E0256C69A96916E04FF0E025A86913
:10473000884202D20D1A2A4402E0251A0D442A4466
:1047400003EBC305ED0005EB4506C6EBC515B2EB63
:10475000C50F00D301E00146E7E700BF70BD2DE9BA
:10476000FC5F06460F4600BF00BF4FF000084446FE
:10477000454600BF4FF0E02CDCF814C0CDE900C87E
:104780004FF0E02CDCF81820434646E04FF0E02CD8
:10479000DCF818000021B0EB020C71EB030C08D21E
:1047A000B2EB000863EB010C18EB04044CEB0505BD
:1047B0000DE0DDE9008CB8EB00086CEB010C18EBA8
:1047C00002084CEB030C18EB04044CEB05054FF00E
:1047D00048084FF00009A6FB08CA07FB08A806FB1B
:1047E000098A4FF47A794FF0000BACFB098E0AFB73
:1047F00009E90CFB0B994FF47A7CDA46E346A8FBF7
:104800000BCE09FB0BE908FB0A98B4EB0C0C75EB1B
:10481000080C00D302E002460B46B7E700BFBDE834
:10482000FC9F000040420F0018ED00E000E400E0B3
:1048300008B54FF4A060FBF775FC25208DF800004B
:1048400001208DF8010000208DF8020001208DF874
:1048500003006846FBF76BFC26208DF80000002063
:104860008DF801008DF8020001208DF803006846E4
:10487000FBF75DFC27208DF8000001208DF801007A
:1048800000208DF8020001208DF803006846FBF738
:104890004EFC1C208DF8000002208DF80100002045
:1048A0008DF8020001208DF803006846FBF73FFCFD
:1048B00017208DF8000000208DF8010003208DF8EE
:1048C000020001208DF803006846FBF730FC282029
:1048D0008DF8000000208DF8010003208DF8020003
:1048E00001208DF803006846FBF721FC08BD00009D
:1048F00008B501210820FCF71DFB01218804FCF705
:1049000026FB18208DF803004FF48060ADF80000FE
:1049100003208DF802006946FD48FBF7D3FF042011
:104920008DF803004002ADF800006946F848FBF737
:10493000C9FF08BD1FB54FF4165000900020ADF818
:104940000400ADF80600ADF80800ADF80C000C202E
:10495000ADF80A006946EF48FDF7CDFC0121ED48AE
:10496000FDF755FD012240F22551EA48FDF75BFDB8
:104970001FBD08B501210420FCF7DCFA4FF40060EC
:10498000ADF8000010208DF8030003208DF8020020
:104990006946E148FBF796FF4FF48050ADF8000000
:1049A00010208DF8030003208DF802006946DA48D4
:1049B000FBF788FF08BD10B50446002240F22551E0
:1049C000D448FDF730FD0020D44908704880888025
:1049D000012240F22551CF48FDF725FD10BD70B5ED
:1049E00005460C464FF48050CB49143108606420D2
:1049F000FFF770FE4021C748FDF7F1FD2146C5488D
:104A0000FDF772FD0220FFF785FE00BF4021C1487F
:104A1000FDF7D8FD0028F9D04FF48050BE49103181
:104A2000086070BD2DE9F04107460D4616464FF46B
:104A30008050B949143108604FF4FA70FFF76AFEEC
:104A400000240CE0295DB348FDF74EFD00BF402176
:104A5000B048FDF7B7FD0028F9D0601CC4B2B442DD
:104A6000F0DB4FF47A70FFF755FE4FF48050AA49FF
:104A7000103108604FF47A70FFF74CFEBDE8F0810A
:104A80002DE9F04107460D4616464FF48050A249E5
:104A9000143108606420FFF71DFE40219D48FDF79A
:104AA0009EFD00240CE0295D9A48FDF71DFD00BF26
:104AB00040219848FDF786FD0028F9D0601CC4B25B
:104AC000B442F0DBC820FFF725FE4FF48050924936
:104AD00010310860BDE8F08170B505462A24002039
:104AE0008F490870002240F225518A48FDF79BFC4F
:104AF0008A4840888949898888420FD087488188B8
:104B00008088401C854A9080901D445C801F80886E
:104B1000FE2806DB00201146888002E00120804943
:104B20000870012240F225517A48FDF77CFC2046AE
:104B300070BD2DE9F04107460E461446002240F2B2
:104B400025517448FDF76FFC002510E073488188FB
:104B5000801D405C705571488088401CFE2190FB90
:104B6000F1F201FB12006D498880681C85B2A542F4
:104B7000ECDB012240F225516648FDF754FC20464B
:104B8000BDE8F0812DE9F04782468946904600262F
:104B900003F02FF8002240F225515E48FDF743FC58
:104BA0005E4840885D498988884272D05B48408869
:104BB0005A498988884206DB5848807857490979DC
:104BC000401AC7B206E055488078801E53490979DB
:104BD000401AC7B2042F5CDD50488188801D405CBC
:104BE000AA280AD04D488088401CFE2190FBF1F293
:104BF00001FB1200494988804BE048488088401CEE
:104C0000FE2190FBF1F201FB1200C5B24348801D6A
:104C1000405D752809D041488088801C90FBF1F2E6
:104C200001FB12003D49888033E03C488088C01C6D
:104C3000FE2190FBF1F201FB1200C5B23748801D46
:104C4000405D401DC6B2BE4222DC464520D2002453
:104C50000FE0324880882044FE2190FBF1F201FBF6
:104C60001200C5B22D48801D405D09F80400601C8B
:104C7000C4B2A8F10100A04201D9B442E9DB681C2A
:104C8000FE2190FBF1F201FB12002449888000E034
:104C90000026012240F225511E48FDF7C4FB02F018
:104CA000A8FF3046BDE8F08770B505460024002215
:104CB00040F225511748FDF7B6FB184840881749C0
:104CC0008988884206DB1548408814498988401A3B
:104CD00084B206E011484088FE3010498988401AA5
:104CE00084B2012240F225510A48FDF79CFB204680
:104CF00070BDF0B59DB000240025002601270020DE
:104D0000009001900320FFF756FE002005464BE07F
:104D1000000C01400048004000080140D210002073
:104D20005D0E0020142227A10320FFF77BFE322016
:104D3000FFF7F0FC0A2228A10320FFF773FE3220C0
:104D4000FFF7E8FC0320FFF7AFFFC6B2324604A925
:104D50000320FFF7EEFE00240BE004A8005D3028DE
:104D600005D104A9601C085C782800D104E0601C0F
:104D7000C4B2701EA042F0DC00BFA6F10D00A0423C
:104D80000FDDA01CC4B204A908190C2202A902F06C
:104D900055FA0622134902A800F063FE01201DB057
:104DA000F0BD681CC0B20546BD42BBDBBD4206DBA0
:104DB00006220C49684600F054FE0020EFE700BFD1
:104DC000EDE7000054544D3A5253542D5359535467
:104DD000454D52455345540054544D3A4D41432D91
:104DE0003F0000006000180008B5012144F20400F3
:104DF000FCF7A0F818208DF803004FF40070ADF810
:104E0000000003208DF802006946FE48FBF75AFDBA
:104E100004208DF803000002ADF800006946F9484F
:104E2000FBF750FD08BD1FB54FF4E13000900020A6
:104E3000ADF80400ADF80600ADF80800ADF80C00C0
:104E40000C20ADF80A006946EF48FDF754FA01213D
:104E5000ED48FDF7DCFA012240F22551EA48FDF762
:104E6000E2FA1FBD70B504460D46E1B2E648FDF713
:104E70003BFB00BF4021E448FDF7A4FB0028F9D02C
:104E8000204670BD10B5044600BF2021DE48FDF766
:104E900099FB0028F9D0DC48FDF72AFB10BD08B5C6
:104EA00001210420FCF746F80220ADF8000048205C
:104EB0008DF8030003208DF802006946D148FBF706
:104EC00001FD08BD10B50446002240F22551CE4830
:104ED000FDF7A9FA0020CD4908704880888001229A
:104EE00040F22551C848FDF79EFA10BD70B5054641
:104EF0000C4600BF4021C448FDF764FB0028F9D0F0
:104F00002146C148FDF7F0FA00BF4021BE48FDF739
:104F100059FB0028F9D070BD2DE9F04107460D4638
:104F200016464021B848FDF74DFB00240CE0295DF2
:104F3000B548FDF7D9FA00BF4021B348FDF742FB61
:104F40000028F9D0601CC4B2B442F0DBBDE8F081A7
:104F500038B505460C4600200090200E8DF8000064
:104F6000200C8DF80100200A8DF80200E0B28DF8C7
:104F70000300042269460120FFF7CEFF38BD70B55B
:104F800006460C46002505E0615D0120FFF7AEFFF7
:104F9000681CC5B2605D0028F6D170BD70B50646CC
:104FA0000C4600250D210120FFF7A0FF0A2101205A
:104FB000FFF79CFF05E0615D0120FFF797FF681C8C
:104FC000C5B2605D0028F6D10D210120FFF78EFFEC
:104FD0000A210120FFF78AFF70BD70B505462A241B
:104FE00000208B490870002240F225518648FDF7C9
:104FF0001AFA864840888549898888420FD08348B4
:1050000081888088401C814A9080901D445C801F6C
:105010008088FE2806DB00201146888002E00120FF
:105020007B490870012240F225517748FDF7FBF9D2
:10503000204670BD2DE9F04107460E461446002279
:1050400040F225517048FDF7EEF9002510E06F4859
:105050008188801D405C70556C488088401CFE2112
:1050600090FBF1F201FB120068498880681C85B250
:10507000A542ECDB012240F225516348FDF7D3F94C
:105080002046BDE8F0812DE9F04782460E46904665
:105090004FF00009002240F225515B48FDF7C3F9AB
:1050A0005A4840885949898888423CD057484088A6
:1050B00056498988884206DB5448807853490979E3
:1050C000401AC7B206E051488078801E4F490979DE
:1050D000401AC7B200241FE04C4880880519FE2DF5
:1050E00000D3FE3D4948801D405D30554748801D36
:1050F000405D0D280FD1601C00F0FF09002006F86C
:105100000900681C4149888008468088FE2801DB28
:105110000020888006E0641CA8F10100A04201D9AB
:10512000BC42D9D300BF012240F225513648FDF7D9
:105130007AF94846BDE8F0872DE9F047824689466E
:105140009046002602F055FD002240F225512E48DF
:10515000FDF769F92D4840882C49898888427BD021
:105160002A48408829498988884206DB2748807870
:1051700026490979401AC7B206E024488078801E83
:1051800022490979401AC7B2042F65DD1F4881887A
:10519000801D405CAA280AD01C488088401CFE2143
:1051A00090FBF1F201FB12001849888054E0174887
:1051B0008088401CFE2190FBF1F201FB1200C5B279
:1051C0001248801D405D752809D010488088801CD9
:1051D00090FBF1F201FB12000C4988803CE00B4887
:1051E0008088C01CFE2190FBF1F201FB1200C5B2C9
:1051F0000648801D405D401DC6B2BE422BDC4645C0
:1052000029D207E00008014000380140D6110020F3
:105210005E0E002000240FE0274880882044FE21F5
:1052200090FBF1F201FB1200C5B22348801D405DE6
:1052300009F80400601CC4B2A8F10100A04201D921
:10524000B442E9DB681CFE2190FBF1F201FB120085
:105250001949888000E00026012240F225511748B4
:10526000FDF7E1F802F0C5FC3046BDE8F08770B507
:1052700005460024002240F225511048FDF7D3F8DE
:105280000D4840880C498988884206DB0A484088D6
:1052900009498988401A84B206E007484088FE30F0
:1052A00005498988401A84B2012240F225510348F9
:1052B000FDF7B9F8204670BDD61100200038014036
:1052C00008B50120ADF8000048208DF80300032048
:1052D0008DF802006946FE48FBF7F4FA0220ADF8AB
:1052E000000048208DF8030003208DF80200694675
:1052F000F748FBF7E7FA08BD08B501210420FBF7E2
:1053000019FE01214804FBF722FE18208DF8030046
:105310000420ADF8000003208DF802006946EC4837
:10532000FBF7D0FA04208DF803000820ADF8000048
:105330006946E748FBF7C6FA08BD1FB54FF416509B
:1053400000900020ADF80400ADF80600ADF80800AC
:10535000ADF80C000C20ADF80A006946DD48FCF7FA
:10536000CAFF0121DB48FDF752F8012240F2255126
:10537000D848FDF758F81FBD70B505460C4600BF6C
:105380004021D448FDF71EF90028F9D02146D14824
:10539000FDF7AAF800BF4021CE48FDF713F9002819
:1053A000F9D070BD2DE9F04107460D4616460024A0
:1053B0000CE0295DC748FDF797F800BF4021C548BC
:1053C000FDF700F90028F9D0601CC4B2B442F0DB4C
:1053D000BDE8F08110B50446002240F22551BD48D9
:1053E000FDF721F80020BC49087048808880012220
:1053F00040F22551B748FDF716F810BD2DE9F047EA
:1054000081460C4692464FF00008002240F225519A
:10541000B048FDF708F8B0484088AF49898888420D
:1054200043D0AD484088AC498988884206DBAA4809
:105430008078A9490979401AC6B206E0A648807862
:105440000A30A5490979401AC6B2052E2DDB00267F
:10545000002510E0A048808828440A2190FBF1F242
:1054600001FB1200C7B29C48801DC05D6055605DA5
:105470004640681CC5B2052DECDB56B9781C0A21E4
:1054800090FBF1F201FB1200934988804FF0050870
:105490000BE091488088401C0A2190FBF1F201FB4F
:1054A00012008D4988804FF00008012240F22551FA
:1054B0008848FCF7B8FFB8F1050F12D1207840B941
:1054C000607830B9A07820B9E07810B94FF00008C2
:1054D00007E0052221460120FFF71EFD0020FFF70F
:1054E00079FF4046BDE8F08770B502F082FB4FF0CF
:1054F000181000F0E3FB044602222146774800F032
:10550000B0FA0422A11C764800F0ABFA02F0F6F9DA
:105510000622A11D734800F0A4FA012204F10C0137
:10552000714800F09EFA0D222146704800F073FA8F
:105530000D226E490120FFF7EFFC4FF47A70FFF760
:10554000E9F80D3421464FF0181000F0A0FB4FF0A1
:10555000181000F0B3FB6649086008460168012096
:10556000FFF7F6FC4FF47A70FFF7D4F8614800F0CB
:10557000A5FB05466D1C29465E4800F088FB5D488A
:1055800000F09CFB5C490860084601680120FFF7B9
:10559000DFFC4FF47A70FFF7BDF870BD2DE9F843DA
:1055A0004FF004085348103800F088FB0746A7F571
:1055B00000201921B0FBF1F0C6B2002430E004EB6A
:1055C000C40000EB041000F5002000EB08050422E5
:1055D0002946684600F01FFA02F00BFB40480078AD
:1055E0009DF80010884219D13D4840789DF801107F
:1055F000884213D13A4880789DF8021088420DD134
:105600003748C0789DF80310884207D1291F02222D
:10561000324800F000FA0120BDE8F883601CC4B2F3
:10562000B442CCDB00202D490870487000BFF3E77E
:1056300038B5002405E03148005D29490855601C53
:10564000C4B2042CF7DB02F0D4FAFDF79FFE2CA2C3
:1056500002211020FDF7C4FC1020009020480278A1
:10566000022319463020FEF70DFF102000901C4841
:105670004278022319464020FEF704FF10200090D4
:1056800017488278022319465020FEF7FBFE1020AF
:1056900000901348C278022319466020FEF7F2FEFC
:1056A000FFF77CFF054695B90623802204210020E0
:1056B000FDF704FD13A204212420FDF791FC40F224
:1056C000DC50FFF727F80220074908701EE026E0AB
:1056D0000008014000440040DA120020890E00203A
:1056E000850E00202800002016000020980E0020C3
:1056F0002400002014001800200000202E000020AC
:1057000049443A00CEB4CADAC8A80000FFF7ECFE5C
:10571000FF202D49087002202C49087038BD012D4A
:1057200022D102F066FA022029490860062380226D
:1057300004210020FDF7C2FC26A204212420FDF74D
:105740004FFC4FF47A70FEF7E5FF01201F49087007
:10575000FFF7CAFE02201E49091D0860FF201A49F2
:10576000087002F046FAD9E700BFD7E710B5642405
:105770004FF48070194908602046FEF7CBFF4FF4C4
:1057800080701649091D08602046FEF7C3FF4FF4DC
:105790008070124908602046FEF7BCFF4FF480700D
:1057A0000E49091D086010BD10B54FF496744FF4F2
:1057B00080700A4908602046FEF7ACFF4FF4807005
:1057C0000649091D086010BD710000201600002068
:1057D000100C0140D2D1CADAC8A80000100801405C
:1057E00000B587B001210420FBF7A4FB01210803C9
:1057F000FBF7A0FB01210846FBF79CFB2020ADF83E
:10580000040003208DF8060018208DF8070001A978
:10581000FB48FBF757F84020ADF8040001A9F84811
:10582000FBF750F88020ADF8040001A9F448FBF71D
:1058300049F81020ADF804008DF8070001A9F048E0
:10584000FBF740F81021EE48FBF7E7F80020ADF831
:1058500008004FF48270ADF80A000020ADF80C008B
:105860000220ADF80E000120ADF810004002ADF8A6
:1058700012000820ADF814000020ADF81600072033
:10588000ADF8180002A9DF48FBF784FC0121DD48D0
:10589000FBF725FD07B000BD10B5044600BF02218F
:1058A000D848FBF7A0FD0028F9D02146D548FBF7E2
:1058B00047FD00BF0121D348FBF795FD0028F9D033
:1058C000D048FBF73FFDC0B210BD10B50024102139
:1058D000CB48FBF7A4F80520FFF7DEFF00BFFF2051
:1058E000FFF7DAFF044614F0010FF8D11021C44885
:1058F000FBF793F810BD10B51021C148FBF78FF8E6
:105900000620FFF7C9FF1021BD48FBF786F810BD40
:1059100010B50446FFF7EFFFFFF7D7FF1021B84897
:10592000FBF77DF82020FFF7B7FFC4F30740FFF730
:10593000B3FFC4F30720FFF7AFFFE0B2FFF7ACFF00
:105940001021AF48FBF769F8FFF7BFFF10BD10B596
:10595000FFF7D1FF1021AA48FBF761F8C720FFF736
:105960009BFF1021A648FBF758F8FFF7AEFF10BDCC
:1059700070B505460C461646FFF7BDFFFFF7A5FFBD
:1059800010219F48FBF74BF80220FFF785FFC4F377
:105990000740FFF781FFC4F30720FFF77DFFE0B268
:1059A000FFF77AFFB6F5807F01DD4FF4807603E0E4
:1059B0002878FFF771FF6D1C3000A6F101018EB24F
:1059C000F6D110218E48FBF728F8FFF77EFF70BD57
:1059D0002DE9F04107460E461446F0B2C0F5807539
:1059E000AC4200DC254612E02A4631463846FFF735
:1059F000BFFFAC4200D10BE02F442E44601B84B2A9
:105A0000B4F5807F02DD4FF4807500E02546EBE7BA
:105A100000BFBDE8F08170B505460C461646102162
:105A20007748FAF7FCFF0320FFF736FFC4F307407F
:105A3000FFF732FFC4F30720FFF72EFFE0B2FFF7B6
:105A40002BFF04E0FF20FFF727FF28706D1C3000BC
:105A5000A6F101018EB2F5D110216948FAF7DDFFF8
:105A600070BD2DE9F04781460F4616464FEA1738BC
:105A7000C7F30B0ACAF58054A64200DC344645E061
:105A80004FEA08314FF480525F48FFF7C4FF00250A
:105A900008E00AEB05005C49085CFF2800D003E041
:105AA000681C85B2A542F4DB00BFA54217DA4FEAB5
:105AB0000830FFF72DFF002507E019F8050005EB7A
:105AC0000A01514A5054681C85B2A542F5DB4FEAE1
:105AD00008314FF480524C48FFF77AFF04E0224629
