:020000040800F2
:10000000181D0020F1350008CD040008CF040008B9
:10001000E3040008E7040008EB0400080000000007
:10002000000000000000000000000000EF040008D5
:10003000F104000800000000F3040008F5040008C3
:100040000B3600080B3600080B3600080B3600088C
:100050000B3600080B3600080B3600080B3600087C
:100060000B3600080B3600080B3600080B3600086C
:100070000B3600080B3600080B3600080B3600085C
:100080000B3600080B3600080B3600080B3600084C
:100090000B3600080B3600080B3600080B3600083C
:1000A0000B3600080B3600080B3600080B3600082C
:1000B0000B3600080B3600080B3600080B3600081C
:1000C0000B3600080B3600080B3600080B3600080C
:1000D0000B3600080B3600080B3600080B360008FC
:1000E0000B3600080B3600080B36000800F002F84B
:1000F00000F05AF80AA090E8000C82448344AAF168
:100100000107DA4501D100F04FF8AFF2090EBAE865
:100110000F0013F0010F18BFFB1A43F0010318473B
:100120002C4200004C4200000A444FF0000C10F832
:10013000013B13F0070408BF10F8014B1D1108BF65
:1001400010F8015B641E05D010F8016B641E01F805
:10015000016BF9D113F0080F1EBF10F8014BAD1C55
:100160000C1B09D16D1E58BF01F801CBFAD505E073
:1001700014F8016B01F8016B6D1EF9D59142D6D3CD
:10018000704700000023002400250026103A28BFF5
:1001900078C1FBD8520728BF30C148BF0B607047F9
:1001A0001FB51FBD10B510BD03F0A0FB1146FFF732
:1001B000F7FF00F0ADF803F0BEFB03B4FFF7F2FF6A
:1001C00003BC03F0C3FB000008B50121042002F0CA
:1001D00071FC4FF48070ADF8000010208DF8030022
:1001E00003208DF802006946984802F02BFD4FF479
:1001F0008071964802F0D3FD08BD08B501210820A2
:1002000002F058FC0220ADF8000010208DF8030029
:1002100003208DF8020069468D4802F013FD02218B
:100220008B4802F0BCFD08BD08B5012144F2040072
:1002300002F040FC4FF40070ADF8000018208DF87B
:10024000030003208DF802006946804802F0FAFCA2
:100250004FF48060ADF8000004208DF8030069467B
:100260007A4802F0EFFC08BD1FB54FF4E130009072
:100270000020ADF80400ADF80600ADF80800ADF8B8
:100280000C000C20ADF80A00FFF7CEFF694671485C
:1002900002F067FE01216F4802F0EFFE1FBD08B5B6
:1002A0000121082002F006FC48208DF803002020E0
:1002B000ADF800006946664802F0C4FC08BD08B508
:1002C0000121082002F0F6FB8020ADF8000010208C
:1002D0008DF8030003208DF8020069465C4802F0A7
:1002E000B1FC80215A4802F058FD08BD08B54FF412
:1002F000E06001F031FF25208DF8000000208DF82E
:10030000020001208DF80300684601F02AFF08BDB5
:1003100030B589B0002008900124002520224EA18C
:10032000684603F0AEFA01F00DFBFFF7DFFFFFF7C1
:10033000C6FF802046491031086001F061FA01F0E3
:10034000DBFB01F096FFFFF7AAFFFFF78DFFFFF73A
:100350003BFFFFF752FF0122474908A801F0E7FCE5
:100360009DF82000012829D101F039F843A202218B
:10037000202001F0E7F94FF4FA7001F02FFB42481A
:1003800000F031FD40484C3000F02DFD3E489830E3
:1003900000F029FD3C48E43000F025FD3A48983053
:1003A00000F021FD394800F01EFD374800F01BFD2C
:1003B00037A000F018FD00F0F8FD25E03648006891
:1003C00036490840B0F1005F10D1334840683449E5
:1003D000086008460068334908602F49086880F3C0
:1003E000088800BF2F48006880470DE000F0F7FF45
:1003F0002DA20221042001F0A5F94FF4FA7001F0BA
:10040000EDFA2DA000F0EFFC002009B030BD08B5DA
:100410000121042002F04EFB4FF48070ADF8000083
:1004200010208DF8030003208DF80200694608486B
:1004300002F008FC4FF48071044802F0AEFC08BDE5
:1004400000E0401E0028FCD1704700000008014079
:10045000000C0140003801400404F454545454FF8B
:1004600054545454F40404004030010139414145CE
:10047000594141710108300070001800746F2075F7
:1004800070646174610000005C3900088C3A0008F7
:100490000D0A0D0A00000000005000080000FE2FA9
:1004A0003C000020380000206E6F207573657220BC
:1004B00050726F6772616D006E6F20757365722088
:1004C00050726F6772616D0D0A0A000070470AA0D2
:1004D00000F089FC04E04FF470710B4802F05FFCFF
:1004E000F9E700BFFEE700BFFEE700BFFEE7704789
:1004F00070477047704700004552524F52212121EA
:100500002121200A0D000000000C014070B50546B5
:100510000C4606E0284600F071FC012801D10020BD
:1005200070BD2000A4F10104F4D1401EF8E710B51D
:100530000446204600F042FC002010BD2DE9F8439F
:1005400004460D4690460020286041466846FFF765
:10055000DDFF18B14FF0FF30BDE8F8839DF80000D3
:10056000182813D006DC012809D0022809D0042855
:1005700020D109E041281AD061281BD118E080273A
:100580001BE04FF4806718E00020E5E7414668462D
:10059000FFF7BCFF40B99DF80000182804D14FF0C8
:1005A000FF3028600020D7E74FF0FF30D4E700BFCE
:1005B0000120D1E74FF0FF30CEE700BF9DF80000EB
:1005C0002070012609E0A0194146FFF79FFF10B1F6
:1005D0004FF0FF30C0E7701C86B2781D8642F2DB18
:1005E0006178A07880F0FF00814202D04FF0FF30A8
:1005F000B2E72F600020AFE72DE9F04FADF22C4DB0
:10060000064600200090F948F94908600020039050
:100610008246019000BF002700200290B04600BF34
:100620004FF4801204A909A8FFF788FF00F0FF0B20
:10063000BBF1000F03D0BBF1010F7DD1D1E04FF032
:10064000000A0498B0F1FF3F01D070B907E006201E
:10065000FFF76DFF00200DF22C4DBDE8F08F062056
:10066000FFF765FF01200290B9E09DF82500F9B27F
:10067000884203D01520FFF75AFFB0E0002F6FD15A
:100680009DF82700002863D000250DF1270405E020
:1006900014F8012B28466D1CD6490A54207808B15D
:1006A000802DF5DB002228466D1CD2490A54002516
:1006B000641C05E014F8012B28466D1C05A90A549A
:1006C0002078202801D0102DF4DB002228466D1C54
:1006D00005A90A54694605A800F0EEFA0098B0F59D
:1006E000003F08D31820FFF722FF1820FFF71FFF55
:1006F0004FF0FF30AFE7009800F0F2FBBE49086012
:100700000020BE49086010E0B9490968BC4A128857
:10071000BA4B1B6802FB031001F0F0FDB9490870E9
:10072000B6480068401CB5490860B4480068B24942
:100730000968884205D200E05CE0B24800780428ED
:10074000E2D00620FFF7F3FE4320FFF7F0FE43E080
:100750000620FFF7ECFE0120029003903FE0FFE748
:100760000DF127014046049A03F046F8A6480660BA
:100770004FF0000923E0A448006801689C48006825
:1007800001F08CFE9A48006800689F490968096872
:10079000884208D01820FFF7CAFE1820FFF7C7FECE
:1007A0006FF0010057E792480068001D904908600B
:1007B00095480068001D9449086009F104090498EF
:1007C000814506DA894900980844894909688842C0
:1007D000D1D80620FFF7ABFE7F1C0120019000BF9F
:1007E0001CE01820FFF7A3FE1820FFF7A0FE6FF013
:1007F000020030E70198002801DD0AF1010ABAF190
:10080000320F07DD1820FFF792FE1820FFF78FFE4A
:10081000002020E74320FFF78AFE00BF00BF0298B8
:1008200000283FF4FDAE00BF00BF039800283FF44E
:10083000F2AE00BF00BF00980DE7014600207047F0
:100840002DE9FE4305460F46904601202870002002
:100850006870FF20A870002404E0395DE01C295472
:10086000601C84B2385D08B1802CF6DB0021E01CEE
:1008700029546846D8F8001000F0F4F90026201D2D
:1008800084B208E03046711C8EB21DF8002020466C
:10089000611C8CB22A541DF806000028F2D12646AD
:1008A00003E00020A855701C86B2832EF9DBBDE85A
:1008B000FE83F0B5074614461D46B5F5806F02D39A
:1008C0004FF4806C01E04FF0800C63469D4201D2F2
:1008D000AC4600E09C461FFA8CF2B3F5806F04D161
:1008E0004FF0020C81F800C003E04FF0010C81F8DA
:1008F00000C04C706FEA040C81F802C03E46032031
:1009000007E016F801CB01F800C000F1010C1FFA56
:100910008CF002F1030C6045F3DB9A420EDC1FFA07
:100920008CF007E04FF01A0C01F800C000F1010C48
:100930001FFA8CF003F1030C6045F3DBF0BD10B53A
:1009400003460C46194644F4807200BF4900520029
:1009500012F4807F00D0491C11F4803F02D041F294
:100960002100414012F4803FF0D088B210BDF0B5B4
:1009700005460E460024AF1905E015F8011BA0B28C
:10098000FFF7DDFF0446BD42F7D3A0B20021FFF719
:10099000D6FF044620460021FFF7D1FF044620463B
:1009A000F0BD30B502460023541802E012F8015B96
:1009B0002B44A242FAD3D8B230BD70B505460E46DC
:1009C000002404E0285DFFF7B2FD601C84B2B4424D
:1009D000F8DB70BD2DE9F74FADF5936D0020019068
:1009E000814600248046002617E0000000500008E1
:1009F00000000020340200200C000020080000202D
:100A0000040000201000002014000020DDF89C04E9
:100A1000805D04A98855701CC6B27F2EF6DB0120CC
:100A200001900DF5946204A924A8FFF709FF00BF07
:100A3000832124A8FFF7C1FF019860B180210DF147
:100A40009300FFF794FF05462812FFF770FDE8B208
:100A5000FFF76DFD08E080210DF19300FFF7A1FF86
:100A600003900398FFF763FD42F2107102A8FFF7AD
:100A70004DFD30B99DF80800062803D14FF001085C
:100A800000E0641CB8F1000F01D10A2CD0D30A2C6D
:100A900004D3E0B20DF2A44DBDE8F08FDDF898A4C8
:100AA000DDF8A0944FF0010B59E00BF0FF024B462C
:100AB00024A95046FFF7FDFE4FF0000800208DF8F6
:100AC0000800002400BFB9F5806F02D34FF480679F
:100AD00000E08027F81C81B224A8FFF76EFF019880
:100AE00060B139460DF19300FFF741FF054628122A
:100AF000FFF71DFDE8B2FFF71AFD08E039460DF1DA
:100B00009300FFF74EFF03900398FFF710FD544941
:100B100002A8FFF7FBFCC0B99DF80800062814D115
:100B20004FF00108B9450CD9BA44A9EB0709BBF14C
:100B30006C0F01D1FF20ADE70BF101001FFA80FB24
:100B400004E0BA444FF0000900E0641CB8F1000F63
:100B500001D10A2CB7D30A2C01D3E0B29AE7B9F13C
:100B6000000FA2D14FF0000800208DF808000024EB
:100B700000BF0420FFF7DBFC42F2107102A8FFF770
:100B8000C5FC30B99DF80800062802D14FF00108D5
:100B900000E0641CB8F1000F01D10A2CE9D30A2C43
:100BA00001D3E0B276E74FF0000800208DF808008E
:100BB000002401208DF8900000208DF89100FF2086
:100BC0008DF89200032604E0002024A98855701CAB
:100BD000C6B2832EF8DB00BF832124A8FFF7EDFE09
:100BE00080210DF19300FFF7C2FE05462812FFF7A2
:100BF0009EFCE8B2FFF79BFC42F2107102A8FFF7DF
:100C000085FC30B99DF80800062803D14FF0010893
:100C100000E0641CB8F1000F01D10A2CDCD30A2CCF
:100C200001D3E0B236E700BF0420FFF780FC42F2B8
:100C3000107102A8FFF76AFC30B99DF80800062879
:100C400002D14FF0010800E0641CB8F1000F01D19F
:100C50000A2CE9D30A2C01D3E0B21BE7002019E7E4
:100C6000A0860100F0B5EF4A00250024002320E013
:100C7000B1FBF2F6303606F0FF0C2E466D1C00F884
:100C800006C0B1FBF2F602FB16110A26B2FBF6F221
:100C90006E1E865D302E01D1012600E000260CB9C3
:100CA000012700E000273E4201D0002500E0641C3F
:100CB0005B1C0A2BDCD3F0BD70B502460C4600214C
:100CC000002500231078302843D15078782802D0AE
:100CD000507858283DD1907808B9002070BD022185
:100CE00030E0505C10B9236001252DE0505C4128B4
:100CF00002DB505C46280BDD505C612802DB505C57
:100D0000662805DD505C302819DB505C392816DC7C
:100D1000505C302805DB505C392802DC505C3038F0
:100D20000AE0505C412805DB505C462802DC505C40
:100D3000373801E0505C573800EB031301E0002521
:100D400002E0491C0B29CCD300BF0B2934D300256A
:100D500032E000212AE0505C10B92360012527E031
:100D6000505C6B2802D0505C4B2804D119B19B0217
:100D7000236001251CE0505C6D2802D0505C4D289A
:100D800004D119B11B052360012511E0505C302806
:100D900009DB505C392806DC505C303803EB8306F5
:100DA00000EB460301E0002502E0491C0B29D2D3E9
:100DB00000BF0B2900D3002528468FE710B5044655
:100DC00000BF8021984802F033FA0028F9D021466C
:100DD000954802F0BFF900BF8021934802F028FA3D
:100DE0000028F9D010BD10B5044603E02078FFF7C5
:100DF000E5FF641C20780028F8D110BD10B504462A
:100E00002021894802F014FA28B18748001D008883
:100E10002070012010BD0020FCE708B500200090E4
:100E200004E06846FFF7EAFF00B100E0F9E700BF21
:100E30009DF8000008BD70B506460025002400BFDF
:100E4000FFF7EBFF04460D2C00D11AE0082C05D16A
:100E50001DB176A0FFF7C7FF6D1E11E0802D04D3F2
:100E600073A0FFF7C0FF00250AE0202C07DB7E2CD3
:100E700005DC28466D1C34542046FFF79FFF00BF59
:100E8000DEE700BF72A0FFF7AEFF0020705570BD17
:100E90001FB5044623E06846FFF7CDFF9DF800002C
:100EA00000B91CE09DF80000612803D09DF8000007
:100EB000412808D19DF8010028B966A0FFF793FFEB
:100EC000002004B010BD21466846FFF7F5FE18B9B2
:100ED00065A0FFF788FF01E00120F2E700BFDAE735
:100EE000014600200A4693059B0D03D0012303EB26
:100EF000922000E0900A70472DE9F0470024002579
:100F0000012602274FF004084FF0010901F01AFCF6
:100F100005465B480068284059490968884239D02D
:100F200001F00CFC04465648006828435449086008
:100F300001F069FA814652480068401C05D05048CB
:100F40000068C04301F01CFB814604F0070007283D
:100F500011D014F0010F00D1002614F0020F00D1BF
:100F6000002714F0040F01D14FF000084246394623
:100F7000304601F0B7FBB9F1040F07D141A0FFF7EC
:100F800032FF4848FFF72FFF00F03DF846A0FFF77B
:100F90002AFF02E04FA0FFF726FFBDE8F0870120FF
:100FA00080F3138800BF00F02EF808B500BF0020C2
:100FB000009051480068A0F10060000B4F490860A4
:100FC0000846017801208840401EC0432C49086033
:100FD00001F0B8FB2A490968084029490968884294
:100FE00003D001204649086004E00020444908601D
:100FF000FFF782FF00F08CF801224249684600F0BA
:10100000BCFEFFF7CCFFBFF34F8F3F48006800F4F2
:10101000E0603E490843001D3B490860BFF34F8F25
:1010200000BFFEE700CA9A3B0038014008200800D4
:10103000436F6D6D616E6420737472696E672073A7
:10104000697A65206F766572666C6F770D0A0000AD
:101050000A0D0000557365722043616E63656C6C08
:101060006564200D0A0000004572726F722C2049E1
:101070006E70757420616761696E3A200D0A000018
:101080001C00002057726974652050726F7465638C
:1010900074696F6E2064697361626C65642E2E2EB4
:1010A0000D0A0000D83A00084572726F723A204665
:1010B0006C61736820777269746520756E70726FE9
:1010C00074656374696F6E206661696C65642E2E49
:1010D0002E0D0A00466C617368206D656D6F727924
:1010E000206E6F742077726974652070726F7465FA
:1010F000637465640D0A00000000002018000020E1
:1011000020000020700018000CED00E00000FA053F
:101110003EB521A207CA8DE80700002421A0FFF7F1
:1011200062FE2F48FFF768FA0446002C1CDD2DA054
:10113000FFF759FE36A0FFF756FE3BA0FFF753FE20
:101140003C48FFF750FE21466846FFF78BFD3AA06A
:10115000FFF749FE6846FFF746FE3AA0FFF743FE59
:101160003BA0FFF740FE14E0601C03D13EA0FFF758
:101170003AFE0EE0A01C03D14BA0FFF734FE08E0BE
:10118000E01C03D14FA0FFF72EFE02E053A0FFF7B3
:101190002AFE3EBD70470000202020202020202075
:1011A0002020000057616974696E6720666F7220A5
:1011B0007468652066696C6520746F2062652073B1
:1011C000656E74202E2E2E20287072657373202772
:1011D000612720746F2061626F7274290A0D00000C
:1011E000B40200200A0A0D2050726F6772616D6DA3
:1011F000696E6720436F6D706C657465642053750C
:10120000636365737366756C6C79210A0D00000069
:101210002D2D2D2D2D2D2D2D2D2D2D2D2D2D2D2DFE
:101220002D2D2D0A0D0000000A0D204E616D653A2E
:1012300020000000340200200A0D2053697A653A2C
:10124000200000002042797465730D0A0000000040
:101250002D2D2D2D2D2D2D2D2D2D2D2D2D2D2D2DBE
:101260002D2D2D0A000000000A0A0D546865206922
:101270006D6167652073697A6520697320686967A5
:10128000686572207468616E2074686520616C6C9A
:101290006F776564207370616365206D656D6F7233
:1012A00079210A0D000000000A0A0D566572696670
:1012B00069636174696F6E206661696C6564210A97
:1012C0000D0000000D0A0A41626F727465642062AD
:1012D0007920757365722E0A0D0000000A0D4661B3
:1012E000696C656420746F2072656365697665203A
:1012F0007468652066696C65210A0D0070B5044646
:101300000E462EB14FF48051FA4801F046FD04E03C
:101310004FF48051F74801F042FD4FF40071F54859
:1013200001F03DFD00251BE04FF40051F14801F0B4
:1013300036FD14F0800F05D04FF40041ED4801F068
:101340002CFD04E04FF40041EA4801F028FD4FF481
:101350000051E84801F021FD6006040E681CC5B28A
:10136000082DE1DB4FF40071E24801F016FD4FF467
:101370008051E04801F011FD70BD70B504460D4686
:1013800005F1B001C8B20021FFF7B8FF102141EA12
:1013900014100021FFF7B2FF04F00F01881C002198
:1013A000FFF7ACFF70BD10B500218D20FFF7A6FF41
:1013B00000211420FFF7A2FF0021AF20FFF79EFFBE
:1013C00010BD10B500218D20FFF798FF00211020DF
:1013D000FFF794FF0021AE20FFF790FF10BD70B51E
:1013E000002419E004F1B001C8B20021FFF786FF24
:1013F00000211020FFF782FF00210846FFF77EFF43
:10140000002505E001210020FFF778FF681CC5B228
:10141000862DF7DB601CC4B2082CE3DB70BD2DE920
:10142000F04706460F4690461C46E11704EB517103
:10143000C910B4EBC10105D12046E11704EB51718D
:10144000CD1005E02046E11704EB5171C9104D1C89
:101450003D4611E029463046FFF78FFFB14607E0D1
:1014600001210020FFF74AFF09F1010000F0FF0908
:10147000C145F5DB681CC5B2A542EBDBBDE8F087D2
:101480002DE9FF4107460E46904600250024A8F1AD
:101490002000C5B29848007860B900BF07E004EBAF
:1014A00005109649085C0DF80400601CC4B2102CAD
:1014B000F5DB0DE0002409E004EB05108F49085C22
:1014C000C043C0B20DF80400601CC4B2102CF3DBA2
:1014D0007F2F02DD0027B01CC6B231463846FFF729
:1014E0004CFF002406E01DF804000121FFF706FF71
:1014F000601CC4B2082CF6DB701CC1B23846FFF782
:101500003CFF002408E004F108011DF8010001215E
:10151000FFF7F4FE601CC4B2082CF4DBBDE8FF81C9
:1015200010B50246012000E050430B00A1F1010478
:10153000E1B2F9D110BD2DE9FF5F074691461D4686
:101540000E9E4FF0000A002433E0281B401EC1B25B
:101550000A20FFF7E5FFB9FBF0F00A21B0FBF1F23A
:1015600001FB1208BAF1000F13D1681EA04210DD72
:10157000B8F1000F0BD1B34606EBDB71491001FB4C
:101580000471C8B220220199FFF77AFF0FE04FF0F3
:10159000010AB34606EBDB71491001FB0471C8B2C6
:1015A00008F13001CAB20199FFF76AFF00BF601C61
:1015B000C4B2AC42C9DBBDE8FF9F2DE9FF4F83B049
:1015C000074690461D46109E4FF00009CA4600206F
:1015D00002900190002437E0281B401E81000F205C
:1015E00088400290029808EA00000190281B401EE3
:1015F00081000198C84000F0FF09BAF1000F13D133
:10160000681EA04210DDB9F1000F0BD1B34606EB06
:10161000DB71491001FB0471C8B220220499FFF765
:101620002FFF0FE04FF0010AB34606EBDB714910C4
:1016300001FB0471C8B2324911F809200499FFF77F
:101640001FFF00BF601CC4B2AC42C5DB07B0BDE8E1
:10165000F08F2DE9F04104460F46154600260EE0B6
:10166000AA5D39462046FFF70BFF04F10800C4B21B
:10167000782C02DD0024B81CC7B2701CC6B2A85D6D
:101680000028EDD1BDE8F0812DE9F04F89B0074683
:101690000E4615462878A03800F0FF086878A03874
:1016A00000F0FF09A9F10100A8F101015E2202FB8F
:1016B00001004FEA401A1348006800EB0A0B202291
:1016C000594601A800F049FC0B48007801280AD1CE
:1016D000002406E001A8005DC04301A90855601C74
:1016E000C4B2202CF6DB31463846FFF746FE002414
:1016F00011E00000000C0140000200204A3D0008FB
:101700003A4300080402002001A9085D0121FFF707
:10171000F5FD601CC4B2102CF6DB701CC1B238465B
:10172000FFF72BFE002408E001AA04F11001505C31
:101730000121FFF7E3FD601CC4B2102CF4DB09B0FB
:10174000BDE8F08F2DE9F04105460F46144600260E
:1017500017E02078802809DA227839462846FFF7F2
:101760008FFE641C05F10800C5B208E02246394628
:101770002846FFF789FFA41C05F11000C5B2701CB4
:10178000C6B2207808B1142EE3DBBDE8F0812DE964
:10179000F05F06460F4690461C46DDF828A04FF045
:1017A000000BE11704EB5171C910B4EBC10105D175
:1017B0002046E11704EB5171CD1005E02046E117FA
:1017C00004EB5171C9104D1C3D4615E029463046C9
:1017D000FFF7D3FDB1460BE059460BF1010B1AF8A8
:1017E00001000121FFF78AFD09F1010000F0FF0966
:1017F000C145F1DB681CC5B2A542E7DBBDE8F09F3F
:1018000008B501211C2001F055F94BF21020ADF86C
:10181000000010208DF8030003208DF802006946B7
:10182000474801F00FFA1021454801F0B6FA64204C
:1018300000F0D4F81021424801F0B1FA642000F021
:10184000CDF810213E4801F0A8FA0021AE20FFF7A4
:1018500055FD00210220FFF751FD00211020FFF768
:101860004DFD00214020FFF749FD00218120FFF7B9
:1018700045FD0021CF20FFF741FD0021A120FFF70A
:101880003DFD0021C820FFF739FD0021A620FFF70C
:1018900035FD0021A820FFF731FD00213F20FFF793
:1018A0002DFD0021D320FFF729FD00210846FFF779
:1018B00025FD0021D520FFF721FD00218020FFF725
:1018C0001DFD0021D920FFF719FD0021F120FFF7B0
:1018D00015FD0021DA20FFF711FD00211220FFF78E
:1018E0000DFD0021DB20FFF709FD00214020FFF75F
:1018F00005FD00212020FFF701FD00210220FFF758
:10190000FDFC00218D20FFF7F9FC00211420FFF7DA
:10191000F5FC0021A420FFF7F1FC0021A620FFF731
:10192000EDFC0021AF20FFF7E9FC0021AF20FFF71D
:10193000E5FCFFF754FD00210846FFF71EFD08BD3A
:10194000000C014030B585B0684601F046F8674AA2
:101950000198B0FBF2F1481EB0F1807F00D31BE08C
:10196000481E4FF0E022506150170F22002807DA7E
:1019700013071D0E5E4B00F00F04241F1D5503E0DE
:1019800013071C0E5B4B1C5400BF00204FF0E022DD
:1019900090610520106100BF05B030BD30B5034631
:1019A00000200021002200244FF0E0256C69A96985
:1019B00011E04FF0E025A869884202D20D1A2A44AE
:1019C00002E0251A0D442A4403EBC305B2EBC50F10
:1019D00000D301E00146ECE700BF30BD70B503461F
:1019E00000200021002200244FF0E0256C69A96945
:1019F00016E04FF0E025A869884202D20D1A2A4469
:101A000002E0251A0D442A4403EBC305ED0005EB63
:101A10004506C6EBC515B2EBC50F00D301E0014684
:101A2000E7E700BF70BD2DE9FC5F06460F4600BF2B
:101A300000BF4FF000084446454600BF4FF0E02C81
:101A4000DCF814C0CDE900C84FF0E02CDCF8182019
:101A5000434646E04FF0E02CDCF818000021B0EBE4
:101A6000020C71EB030C08D2B2EB000863EB010C23
:101A700018EB04044CEB05050DE0DDE9008CB8EB38
:101A800000086CEB010C18EB02084CEB030C18EB94
:101A900004044CEB05054FF048084FF00009A6FB85
:101AA00008CA07FB08A806FB098A4FF47A794FF0A9
:101AB000000BACFB098E0AFB09E90CFB0B994FF4F8
:101AC0007A7CDA46E346A8FB0BCE09FB0BE908FB60
:101AD0000A98B4EB0C0C75EB080C00D302E002463C
:101AE0000B46B7E700BFBDE8FC9F000040420F0077
:101AF00018ED00E000E400E000B587B0012104200B
:101B000000F0D8FF0121080300F0D4FF01210846AE
:101B100000F0D0FF2020ADF8040003208DF806006F
:101B200018208DF8070001A9FB4801F08BF8402030
:101B3000ADF8040001A9F84801F084F88020ADF860
:101B4000040001A9F44801F07DF81020ADF804006C
:101B50008DF8070001A9F04801F074F81021EE4853
:101B600001F01BF90020ADF808004FF48270ADF8C9
:101B70000A000020ADF80C000220ADF80E00012094
:101B8000ADF810004002ADF812000820ADF81400C6
:101B90000020ADF816000720ADF8180002A9DF48B4
:101BA00001F0C6FB0121DD4801F067FC07B000BD74
:101BB00010B5044600BF0221D84801F0E2FC00281D
:101BC000F9D02146D54801F089FC00BF0121D34856
:101BD00001F0D7FC0028F9D0D04801F081FCC0B258
:101BE00010BD10B500241021CB4801F0D8F8052015
:101BF000FFF7DEFF00BFFF20FFF7DAFF044614F017
:101C0000010FF8D11021C44801F0C7F810BD10B57C
:101C10001021C14801F0C3F80620FFF7C9FF1021C9
:101C2000BD4801F0BAF810BD10B50446FFF7EFFF4C
:101C3000FFF7D7FF1021B84801F0B1F82020FFF7D7
:101C4000B7FFC4F30740FFF7B3FFC4F30720FFF764
:101C5000AFFFE0B2FFF7ACFF1021AF4801F09DF8F5
:101C6000FFF7BFFF10BD10B5FFF7D1FF1021AA4845
:101C700001F095F8C720FFF79BFF1021A64801F05F
:101C80008CF8FFF7AEFF10BD70B505460C46164642
:101C9000FFF7BDFFFFF7A5FF10219F4801F07FF878
:101CA0000220FFF785FFC4F30740FFF781FFC4F36D
:101CB0000720FFF77DFFE0B2FFF77AFFB6F5807FE0
:101CC00001DD4FF4807603E02878FFF771FF6D1C8B
:101CD0003000A6F101018EB2F6D110218E4801F03C
:101CE0005CF8FFF77EFF70BD2DE9F04107460E4618
:101CF0001446F0B2C0F58075AC4200DC254612E017
:101D00002A4631463846FFF7BFFFAC4200D10BE010
:101D10002F442E44601B84B2B4F5807F02DD4FF463
:101D2000807500E02546EBE700BFBDE8F08170B5A7
:101D300005460C4616461021774801F030F803207E
:101D4000FFF736FFC4F30740FFF732FFC4F3072065
:101D5000FFF72EFFE0B2FFF72BFF04E0FF20FFF7B5
:101D600027FF28706D1C3000A6F101018EB2F5D15D
:101D70001021694801F011F870BD2DE9F047814646
:101D80000F4616464FEA1738C7F30B0ACAF58054B8
:101D9000A64200DC344645E04FEA08314FF4805259
:101DA0005F48FFF7C4FF002508E00AEB05005C4927
:101DB000085CFF2800D003E0681C85B2A542F4DB74
:101DC00000BFA54217DA4FEA0830FFF72DFF0025C4
:101DD00007E019F8050005EB0A01514A5054681C48
:101DE00085B2A542F5DB4FEA08314FF480524C48EA
:101DF000FFF77AFF04E0224639464846FFF774FFB2
:101E0000A64200D10FE008F101084FF0000AA144FA
:101E10002744301B86B2B6F5805F02DD4FF4805454
:101E200000E03446B8E700BFBDE8F0872DE9F05F79
:101E300007460E4614464FF00008C146C24600252C
:101E4000AB4606F0FF0ACAF10000C5B22046E11712
:101E500004EB1161C1F30728E11704EB11610912CA
:101E6000A4EB012101F0FF09BAF1000F20D1B8F174
:101E7000000F05D1224631463846FFF705FF6AE0DC
:101E800009E04FF4807231463846FFF7FDFE06F553
:101E9000807607F580775FEA0800A8F1010101F07C
:101EA000FF08EED14A4631463846FFF7EDFE52E0D4
:101EB000B8F1000F18D1A94510DDA9EB050000F01D
:101EC000FF0B2A4631463846FFF7DEFE2E442F44EC
:101ED0005A4631463846FFF7D7FE3CE022463146A7
:101EE0003846FFF7D1FE36E0601B84B22046E1178A
:101EF00004EB1161C1F30728E11704EB116109122A
:101F0000A4EB012101F0FF092A4631463846FFF7CC
:101F1000BBFE2E442F440FE000080140003001407A
:101F2000B40600204FF4807231463846FFF7ACFE0D
:101F300006F5807607F580775FEA0800A8F10101D1
:101F400001F0FF08EED1B9F1000F04D04A46314646
:101F50003846FFF799FEBDE8F09F70B505460C4680
:101F6000164610217A4800F01AFF0320FFF720FEE2
:101F7000C4F30740FFF71CFEC4F30720FFF718FE69
:101F8000E0B2FFF715FE04E0FF20FFF711FE287016
:101F90006D1C3000A6F101018EB2F5D110216C4804
:101FA00000F0FBFE70BD38B505460C4600200090E1
:101FB000E0B28DF80000200A8DF80100200C8DF8A9
:101FC0000200200E8DF80300042229466846FFF720
:101FD000D4FE38BD38B50446002000900025042208
:101FE00021466846FFF7A3FE9DF800109DF801000A
:101FF00001EB00219DF8020001EB00419DF8030078
:1020000001EB0065284638BD2DE9F041002400258C
:102010000026002710214E4800F0C1FE9F20FFF748
:10202000C7FDFF20FFF7C4FD0546FF20FFF7C0FDF9
:102030000646FF20FFF7BCFD07461021444800F08C
:10204000ACFE280440EA062040EA07042046BDE82A
:10205000F08110B5002410213D4800F0A0FEAB2017
:10206000FFF7A6FDFF20FFF7A3FDFF20FFF7A0FD70
:10207000FF20FFF79DFDFF20FFF79AFD044610218A
:10208000334800F08AFE204610BD10B504461021EA
:102090002F4800F084FE0320FFF78AFDC4F30740B9
:1020A000FFF786FDC4F30720FFF782FDE0B2FFF7DC
:1020B0007FFD10BD10B5FF20FFF77AFD10BD10B5F4
:1020C000044600BF0221234801F05BFA0028F9D042
:1020D0002146204801F002FA00BF01211D4801F00D
:1020E00050FA0028F9D01B4801F0FAF910BD10B5DC
:1020F00000241021164800F052FE0520FFF758FD7D
:10210000FF20FFF755FD04461021114800F045FE61
:10211000204610BD10B510210D4800F040FEB9203A
:10212000FFF746FD10210A4800F037FE10BD10B53C
:102130001021074800F033FEAB20FFF739FD1021D6
:10214000034800F02AFE10BD01460020704770478A
:10215000000801400030014031490143314A11601B
:10216000704770B5002100230F22C4780CB32D4CAA
:10217000246804F4E064C4F5E064210AC1F10403B6
:10218000CA40447804FA03F18478144021430901D9
:10219000254C0678A155047804F01F050124AC40B5
:1021A00005786D114FF0E02606EB8505C5F8004176
:1021B00009E0047804F01F050124AC401B4D0678AB
:1021C000761145F8264070BD194A0A400243154B66
:1021D0001B1F1A60704739B1124A121D1268024360
:1021E000104B1B1D1A6006E00E4A121D1268824336
:1021F0000C4B1B1D1A607047042808D14FF0E021DA
:10220000096941F004014FF0E022116107E04FF04D
:10221000E021096921F004014FF0E02211617047CB
:102220000000FA050CED00E000E400E080E100E0D1
:1022300080FFFF1F01460020FE4A106800F03800B2
:10224000084310607047FB49096821F00801F94A0A
:10225000116011460968014311607047F54909682A
:1022600021F01001F34A1160114609680143116021
:102270007047F148EF494860F04848607047EE48C1
:10228000EC494860ED4848607047EA48006940F012
:102290008000E84908617047E648006940F0800026
:1022A000E449086170470420E249C96811F0010F50
:1022B00001D001200EE0DF49C96811F0040F01D000
:1022C000022007E0DB49C96811F0100F01D003209C
:1022D00000E00420704700B502460423FFF7E3FF47
:1022E000034603E0FFF7DFFF0346521E012B01D137
:1022F000002AF7D102B90523184600BD30B50446BF
:1023000004254FF43020FFF7E6FF0546042D17D1D2
:10231000C848006940F00200C649086108464461A7
:10232000006940F0400008614FF43020FFF7D3FF10
:102330000546C048006941F6FD710840BD49086185
:10234000284630BD10B504244FF43020FFF7C3FFFA
:102350000446042C16D1B748006940F00400B54982
:1023600008610846006940F0400008614FF43020E1
:10237000FFF7B1FF0446AF48006941F6FB71084022
:10238000AC490861204610BD00B502460423FFF7A2
:102390008AFF034603E0FFF786FF0346521E012B28
:1023A00001D1002AF7D102B90523184600BD10B5A6
:1023B00004244FF43020FFF7E7FF0446042C16D125
:1023C0009C48006940F004009A4908610846006989
:1023D00040F0400008614FF43020FFF7D5FF04467D
:1023E0009448006941F6FB71084092490861204613
:1023F00010BD00208F49C96911F0020F01D00120E2
:1024000000E00020704730B5A5250424FFF7F1FF58
:1024100000B100254FF43020FFF75DFF0446042C87
:102420003AD18548834988608448886008460069B5
:1024300040F0200008610846006940F04000086153
:102440004FF43020FFF747FF0446042C1BD1794896
:10245000006941F6DF710840764908610846006965
:1024600040F01000086176480580E002FFF733FF76
:102470000446052C10D06F48006941F6EF71084002
:102480006C49086108E0052C06D06A48006941F6ED
:10249000EF71084067490861204630BDF0B5044639
:1024A0000D4604260027F002FFF715FF0646042E0E
:1024B00022D16048006940F001005E490861258032
:1024C000F002FFF708FF0646042E0ED1A71C280CC9
:1024D0003880F002FFF7FFFE06465648006941F6D5
:1024E000FE7108405349086106E05248006941F610
:1024F000FE7108404F4908613046F0BD70B5044692
:102500000D460426F002FFF7E6FE0646042E11D122
:102510004848006940F00100464908612580F00202
:10252000FFF7D9FE06464348006941F6FE710840B0
:1025300040490861304670BD70B505460E4604241A
:10254000E002FFF7C8FE0446042C17D13A48394987
:1025500088603A4888600846006940F010000861C9
:102560002E80E002FFF7B7FE0446052C06D0314866
:10257000006941F6EF7108402E490861204670BDA0
:102580002DE9F04304464FF6FF763746B046B14694
:102590000425E443E6B2C4F30727C4F307484FEA2F
:1025A0001469E802FFF797FE0546042D40D1224842
:1025B00020498860214888600846006940F0100082
:1025C0000861FF2E06D01E4808300680E802FFF79B
:1025D00082FE0546042D08D1FF2F06D018480A3088
:1025E0000780E802FFF777FE0546042D0AD1B8F10F
:1025F000FF0F07D012480C30A0F80080E802FFF768
:102600006AFE0546042D0AD1B9F1FF0F07D00C4828
:102610000E30A0F80090E802FFF75DFE0546052D9C
:1026200006D00448006941F6EF710840014908618D
:10263000284607E00020024023016745AB89EFCD23
:1026400000F8FF1FBDE8F08330B5054604244FF4C1
:102650003020FFF740FE0446042C41D15E485F491C
:1026600088605F4888600846006940F02000086183
:102670000846006940F0400008614FF43020FFF741
:102680002AFE0446042C22D15448006941F6DF7129
:102690000840524908610846006940F0100008618E
:1026A0001DB100204F49088002E0A5204D49088057
:1026B0004FF43020FFF70FFE0446052C10D047489A
:1026C000006941F6EF7108404449086108E0052CB3
:1026D00006D04248006941F6DF7108403F49086171
:1026E000204630BDF0B505460E46174604243A484C
:1026F0003A4988603A488860E002FFF7ECFD0446FA
:10270000042C19D13548006940F0100033490861A4
:1027100047F0F800304328433249891C0880E00222
:10272000FFF7D9FD0446052C06D02C48006941F678
:10273000EF710840294908612046F0BD2748C0696B
:10274000800870472548006A7047002023490968BF
:1027500011F0200F01D0012000E00020704729B1C6
:102760001E4A126902431D4B1A6104E01B4A12699A
:1027700082431A4B1A61704701460020012908D193
:10278000164AD26912F0010F01D0012008E00020A2
:1027900006E0124AD2680A4201D0012000E000207F
:1027A00070470E49C860704704200C49C96811F091
:1027B000010F01D001200EE00849C96811F0040F93
:1027C00001D0022007E00549C96811F0100F01D0BF
:1027D000032000E0042070472301674500200240E9
:1027E000AB89EFCD00F8FF1FDB48006840F0010027
:1027F000D949086008464068D8490840D649486029
:1028000008460068D6490840D34908600846006871
:1028100020F4802008600846406820F4FE004860EC
:102820004FF41F0088607047CB49096821F480315C
:10283000C94A11601146096821F480211160B0F580
:10284000803F03D0B0F5802F0ED106E0C249096861
:1028500041F48031C04A116007E0BF49096841F482
:10286000A021BD4A116000E000BF00BF704710B555
:1028700001460022002300204A11012A02D1B64C51
:10288000236806E0022A02D1B34C236A01E0B24C6D
:10289000636A01F01F02012494401C4201D0012010
:1028A00000E0002010BD70B500240025002600BF08
:1028B0003120FFF7DCFF0646641CB4F5A06F01D0A1
:1028C000002EF5D03120FFF7D2FF08B1012500E03E
:1028D0000025284670BD014600209F4A106820F060
:1028E000F80040EAC100106070479E4908607047D8
:1028F00002460020984B586820F47C1042EA0103FD
:102900001843954B586070479649086670470146D2
:102910000020914A506820F003000843506070473F
:102920008D48406800F00C007047014600208A4A3C
:10293000506820F0F00008435060704701460020C6
:10294000854A506820F4E0600843506070470146B3
:102950000020814A506820F4605040EAC100506075
:10296000704729B17C4A527A02437B4B5A7204E089
:10297000794A527A8243784B5A7270477A49086092
:10298000704701460020744A506820F440400843D4
:10299000506070470021754A11706F4A82F820100C
:1029A000012802D0042808D103E001216F4A1170E8
:1029B00004E005216D4A117000E000BF00BF7047C0
:1029C0006B49086070476449096A0143624A1162B1
:1029D0007047674944390860704730B500210022CC
:1029E000002400235C4D6D6805F00C0121B1042921
:1029F00005D0082923D105E05E4D056022E05D4D3C
:102A000005601FE0544D6D6805F47012524D6D68FD
:102A100005F48034022505EB92421CB9564D55430E
:102A200005600BE04C4D6D6815F4003F03D0524D2E
:102A30005543056002E04F4D5543056002E04D4DA2
:102A4000056000BF00BF444D6D6805F0F001090945
:102A50004A4D6B5C0568DD4045603F4D6D6805F48F
:102A6000E061090A454D6B5C4568DD4085603A4D83
:102A70006D6805F46051C90A404D6B5C4568DD40E6
:102A8000C560354D6D6805F44041890B3C4D6B5C6C
:102A9000C568B5FBF3F5056130BD29B12E4A526911
:102AA00002432D4B5A6104E02B4A526982432A4B60
:102AB0005A61704729B1284A92690243264B9A61AC
:102AC00004E0254A92698243234B9A61704729B1F9
:102AD000214AD2690243204BDA6104E01E4AD269DE
:102AE00082431D4BDA61704729B11B4AD268024309
:102AF000194BDA6004E0184AD2688243164BDA6058
:102B0000704729B1144A12690243134B1A6104E059
:102B1000114A12698243104B1A61704714494039B7
:102B2000086070470F49C86470470B49C871704707
:102B30000948406A40F08070074948627047014682
:102B40000020054A92680A4201D0012000E00020DE
:102B50007047014988727047001002400000FFF87A
:102B6000FFFFF6FE00004242D80042422010024021
:102B70008004424200127A0000093D000902002050
:102B80001902002010B50446CA48844208D1012128
:102B90000420FFF7A9FF00210420FFF7A5FF46E06E
:102BA000C548844208D101210820FFF79DFF00217C
:102BB0000820FFF799FF3AE0C048844208D101217C
:102BC0001020FFF791FF00211020FFF78DFF2EE06E
:102BD000BB48844208D101212020FFF785FF002156
:102BE0002020FFF781FF22E0B648844208D101216E
:102BF0004020FFF779FF00214020FFF775FF16E026
:102C0000B148844208D101218020FFF76DFF0021E7
:102C10008020FFF769FF0AE0AC48844207D1012118
:102C20008015FFF761FF0021A015FFF75DFF10BDC4
:102C300010B501210846FFF757FF00210120FFF7DB
:102C400053FF10BD2DE9F04102460025002600206B
:102C500000230024002791F803C00CF00F0591F821
:102C600003C01CF0100F03D091F802C04CEA050518
:102C700091F800C0BCF1000F31D0146800202BE0A7
:102C80004FF0010C0CFA00F3B1F800C00CEA030697
:102C90009E4220D183004FF00F0C0CFA03F7BC4387
:102CA00005FA03FC4CEA040491F803C0BCF1280FB8
:102CB00006D14FF0010C0CFA00FCC2F814C00AE077
:102CC00091F803C0BCF1480F05D14FF0010C0CFA8C
:102CD00000FCC2F810C0401C0828D1D31460B1F821
:102CE00000C0BCF1FF0F34DD546800202EE000F17D
:102CF000080C4FF0010808FA0CF3B1F800C00CEA18
:102D000003069E4221D183004FF00F0C0CFA03F70B
:102D1000BC4305FA03FC4CEA040491F803C0BCF17F
:102D2000280F05D100F1080C08FA0CF8C2F814803D
:102D300091F803C0BCF1480F07D100F1080C4FF027
:102D4000010808FA0CF8C2F81080401C0828CED3FD
:102D50005460BDE8F0814FF6FF710180022181705F
:102D60000421C17070470246002093680B4201D0D5
:102D7000012000E0002070470146886880B270475B
:102D800002460020D3680B4201D0012000E0002061
:102D900070470146C86880B2704701617047416161
:102DA00070470AB1016100E041617047C16070473E
:102DB0004FF480320A438261816182618269826953
:102DC000704702460020424B18684FF68073184047
:102DD00040EA021008433E4B186070473D49C86105
:102DE0007047F0B50A46002300240021002500F0BA
:102DF0000046B6F1004F02D1354EF16901E0344E84
:102E00007168C0F3034583B200F44016B6F5401F65
:102E100008D121F070612E4E766826F070662C4F36
:102E20007E6012E000F48016B6F5801F06D10326FE
:102E300006FA05F4A14341F0706106E0460D360143
:102E400003FA06F6B14341F0706122B1460D360136
:102E500003FA06F6314300F00046B6F1004F02D106
:102E60001B4EF16101E01A4E7160F0BD30B50022D9
:102E70008B071C0F0F2303FA04F2154B08338C1039
:102E800053F824309343124C08348D1044F8253005
:102E900023468C1053F824308C07240F00FA04F4D6
:102EA00023430B4C08348D1044F8253030BD0A49BB
:102EB0000860704700080140000C0140001001400C
:102EC0000014014000180140001C01400020014096
:102ED0000000014000002042DC00204210B5044602
:102EE000FB48844209D101218803FFF7FDFD002141
:102EF0004FF48040FFF7F8FD32E0F648844209D1F4
:102F000001214804FFF7FDFD00214FF40030FFF7D9
:102F1000F8FD25E0F048844209D101218804FFF73B
:102F2000F0FD00214FF48020FFF7EBFD18E0EB48A7
:102F3000844209D10121C804FFF7E3FD00214FF4C9
:102F40000020FFF7DEFD0BE0E548844208D10121B7
:102F50000805FFF7D6FD00214FF48010FFF7D1FDE3
:102F600010BD2DE9F04786B005460E460024A24666
:102F700000BFA1460027B08900B100BF2F462C8AB0
:102F80004CF6FF700440F08804432C82AC894EF666
:102F9000F3100440B0883189084371890843044321
:102FA000AC81AC8A4FF6FF400440B0890443AC8248
:102FB00001A8FFF712FDC648874202D1DDF810A034
:102FC00001E0DDF80CA0A88910F4004F08D00AEB4E
:102FD000CA0000EB0A1031684900B0FBF1F807E0C5
:102FE0000AEBCA0000EB0A1031688900B0FBF1F867
:102FF0006420B8FBF0F004012009642101FB108972
:10300000A88910F4004F08D0322000EBC900B0FBB3
:10301000F1F000F00700044308E0322000EB091053
:103020006421B0FBF1F000F00F0004432C8106B0E6
:10303000BDE8F0874FF41651016000218180C18006
:1030400001810C21418100218181704710B5024628
:103050000020108A4FF2FF0318400B884C8823434E
:103060008C882343CC8823431843108210BD002151
:10307000018041808180C180704721B1828942F402
:103080000052828104E082894DF6FF731A408281EA
:103090007047F0B503460024002600250020A1F566
:1030A00010676A3F00D100BF1846C1F3421401F017
:1030B0001F06012707FA06F5012C01D10C3004E0A8
:1030C000022C01D1103000E014301AB107682F43F0
:1030D000076002E00768AF430760F0BD1AB1838A5A
:1030E0000B43838202E0838A8B4383827047028A88
:1030F0004FF6F0731A400282028A0A430282704736
:1031000082894FF2FF731A40828182890A43828149
:10311000704721B1828942F00202828104E08289F3
:103120004FF6FD731A4082817047028A4FF6DF73B3
:103130001A400282028A0A430282704721B1028A3F
:1031400042F48042028204E0028A4BF6FF731A4086
:1031500002827047C1F30802828070470146888866
:10316000C0F308007047818941F0010181817047F7
:10317000028BD2B20283028B42EA012202837047A1
:10318000028B02F47F420283028B0A430283704760
:1031900021B1828A42F02002828204E0828A4FF6C4
:1031A000DF731A408282704721B1828A42F0100296
:1031B000828204E0828A4FF6EF731A40828270475F
:1031C00021B1828A42F00802828204E0828A4FF6AC
:1031D000F7731A408282704721B1828942F400421B
:1031E000828103E08289C2F30E028281704721B19D
:1031F000828A42F40062828204E0828A4FF2FF7384
:103200001A4082827047828A4FF6FB731A4082828C
:10321000828A0A438282704721B1828A42F0020286
:10322000828204E0828A4FF6FD731A4082827047E0
:1032300002460020B1F5007F00D100BF13880B4289
:1032400001D0012000E00020704701F40072B2F5C7
:10325000007F00D100BFCA430280704770B50246AC
:103260000024002300250020A1F510666A3E00D14D
:1032700000BFC1F3421501F01F03012606FA03F354
:10328000012D02D19689334006E0022D02D1168A23
:10329000334001E0968A33400C12012606FA04F40A
:1032A0001688344013B10CB1012000E0002070BD3D
:1032B00010B500220023A1F510646A3C00D100BFC4
:1032C0000A1201249440A3B2DC43048010BD000024
:1032D000003801400044004000480040004C0040DD
:1032E0000050004010B50446BE48844208D1012178
:1032F0008014FFF7F9FB0021A014FFF7F5FB16E09F
:10330000B948844208D101210014FFF7FAFB0021DB
:103310002014FFF7F6FB0AE0B448844207D10121EC
:10332000C013FFF7EEFB0021E013FFF7EAFB10BD2F
:1033300010B50022028802F441520B884C882343C6
:103340008C882343CC8823430C8923434C89234313
:103350008C892343CC8923431A430280838B4FF209
:10336000FF74234083830B8A038210BD2DE9F04F45
:1033700085B005460C464FF0000902274FF00008C3
:103380004FF0010B0026B246A88B4FF240010840D7
:10339000A88302202884B5F81C90A068022801D1D7
:1033A00000BF38E0A08810B94FF0010B01E04FF0EA
:1033B000020B8D48854200D100E000BF6846FFF750
:1033C0000CFBDDF800A0E088B0F5007F0AD14FEAE1
:1033D0001A2000EB80004000A168B0FBF1F0401D16
:1033E00086B20BE04FEA4B10BAFBF0F000EB800026
:1033F0004000A168B0FBF1F0401D86B20A20B6FB88
:10340000F0F606F00108A6EB0800C0F34F074FF6F0
:10341000FF7000EA0828022F01DBFF2F02DD0227E0
:103420004FF00008E08840EA080038432884A0886C
:10343000A1890843618808432188084340F400605B
:1034400040EA0909A5F81C9005B0BDE8F08F0021FD
:10345000018041808180C180018141818181C18160
:103460000721018270470021018041808180C18055
:103470000221816000218181704721B1028842F0E0
:103480004002028004E002884FF6BF731A400280B7
:10349000704721B1828B42F48062828304E0828B88
:1034A0004FF6FF331A408283704730B50024002363
:1034B0000C110125A540ABB21AB185881D4385804A
:1034C00002E085889D43858030BD1AB183880B4317
:1034D000838002E083888B438380704781817047BB
:1034E000014688897047A1F57E42FF3A04D00288E0
:1034F00042F48072028004E002884FF6FF631A40B3
:103500000280704721B1828842F00402828004E088
:1035100082884FF6FB731A408280704702884FF210
:10352000FF731A40028002880A43028070470188B4
:1035300041F480510180704721B1028842F4005269
:10354000028004E002884DF6FF731A400280704743
:1035500002460020012901D0108B00E0908A7047BC
:103560000146088A7047B1F5804F04D1028842F4C1
:103570008042028004E002884BF6FF731A4002800A
:1035800070470246002013890B4201D0012000E061
:1035900000207047CA4302817047F0B50246002000
:1035A00000240023002501F00F070126BE40B4B21D
:1035B0000B1101269E40B3B2968806EA03051689D0
:1035C000264202D00DB1012000E00020F0BD10B570
:1035D000002201F00F040123A3409AB2D3430381D8
:1035E00010BD00000030014000380040003C0040A9
:1035F0000948804709480047FEE7FEE7FEE7FEE787
:10360000FEE7FEE7FEE7FEE7FEE7FEE704480549C2
:10361000054A064B70470000F9360008ED00000827
:1036200018170020181D0020181900201819002054
:1036300000210020674A126842F48032654B1A600C
:1036400000BF644A126802F40030491C10B9B1F599
:10365000A06FF6D15F4A126812F4003F01D001203A
:1036600000E00020012842D15B4A126842F01002BB
:10367000594B1A601A46126822F003021A601A4661
:10368000126842F002021A60524A5268514B5A6064
:103690001A4652685A601A46526842F480625A606A
:1036A0001A46526822F47C125A601A46526842F452
:1036B000E8125A601A46126842F080721A6000BF1F
:1036C000444A126812F0007FFAD0424A526822F04F
:1036D0000302404B5A601A46526842F002025A6096
:1036E00000BF3C4A526802F00C02082AF9D1704728
:1036F00010B5FFF79DFF10BD10B53648006840F0CB
:10370000010034490860084640683449084031499E
:10371000486008460068324908402E49086008465B
:10372000006820F4802008600846406820F4FE000D
:1037300048604FF41F008860FFF7DAFF4FF0006029
:103740002849086010BD10B5002100200022214B3F
:103750005B6803F00C0121B1042906D0082928D1A7
:1037600007E0214B214C236027E01F4B1F4C2360B7
:1037700023E0184B5B6803F47010164B5B6803F48E
:103780008032022303EB904022B9194B4343174C7C
:1037900023600DE00F4B5B6813F4003F04D0144B23
:1037A0004343124C236003E00F4B43430F4C236011
:1037B00003E00D4B0D4C236000BF00BF054B5B6861
:1037C000C3F303130B4CE15C084B1B68CB40074C65
:1037D000236010BD00100240002002400000FFF8EE
:1037E000FFFFF6FE08ED00E000127A002002002044
:1037F00000093D0024020020032A40F2308010F02E
:10380000030C00F0158011F8013BBCF1020F62447B
:1038100098BF11F801CB00F8013B38BF11F8013B0C
:10382000A2F1040298BF00F801CB38BF00F8013BB9
:1038300011F0030300F02580083AC0F0088051F829
:10384000043B083A51F804CBA0E80810F5E7121D34
:103850005CBF51F8043B40F8043BAFF30080D20753
:1038600024BF11F8013B11F801CB48BF11F8012B1F
:1038700024BF00F8013B00F801CB48BF00F8012B42
:10388000704710B5203AC0F00B80B1E81850203ACC
:10389000A0E81850B1E81850A0E81850BFF4F5AFF0
:1038A0005FEA027C24BFB1E81850A0E8185044BF7A
:1038B00018C918C0BDE810405FEA827C24BF51F8E7
:1038C000043B40F8043B08BF7047D20728BF31F8DB
:1038D000023B48BF11F8012B28BF20F8023B48BF2C
:1038E00000F8012B7047704770477047754600F02D
:1038F00029F8AE4605006946534620F00700854684
:1039000018B020B5FFF782FEBDE820404FF000065A
:103910004FF000074FF000084FF0000B21F00701B7
:10392000AC46ACE8C009ACE8C009ACE8C009ACE8FA
:10393000C0098D4670470446AFF300802046FCF76F
:103940003CFC000000487047B416002001491820D4
:10395000ABBEFEE726000200704700000D0A3D3DA9
:103960003D3D3D3D3D3D3D3D3D3D3D3D3D3D3D3D87
:103970003D3D3D3D3D3D3D3D3D3D3D3D3D3D3D3D77
:103980003D3D3D3D3D3D3D3D3D3D3D3D3D3D3D3D67
:103990003D3D3D3D3D3D3D3D3D3D3D3D3D3D3D3D57
:1039A0003D3D3D3D000000000D0A3D20202020202F
:1039B00020202020202020202028432920434F5051
:1039C0005952494748542032303131204C69657290
:1039D0006461202020202020202020202020202062
:1039E0002020202020202020202020202020203DBA
:1039F000000000000D0A3D20202020202020202053
:103A000020202020202020202020202020202020B6
:103A100020202020202020202020202020202020A6
:103A20002020202020202020202020202020202096
:103A300020202020202020202020203D00000000E9
:103A40000D0A3D2020202020496E2D4170706C69A8
:103A5000636174696F6E2050726F6772616D6D691A
:103A60006E67204170706C69636174696F6E2020AD
:103A70002856657273696F6E20312E302E302920E2
:103A8000202020202020203D000000000D0A3D20A5
:103A90002020202020202020202020202020202026
:103AA0002020202020202020202020202020202016
:103AB0002020427920777567756F79616E2020200C
:103AC00020202020202020202020202020202020F6
:103AD0002020203D000000002E2E2E616E6420610B
:103AE0002053797374656D2052657365742077690E
:103AF0006C6C2062652067656E6572617465642018
:103B0000746F2072652D6C6F616420746865206E1F
:103B10006577206F7074696F6E2062797465730DBC
:103B20000A000000000000000000002F000000005C
:103B30000700070000147F147F1400242A7F2A1234
:103B40000062640813230036495522500000050323
:103B5000000000001C224100000041221C00001453
:103B6000083E08140008083E0808000000A0600095
:103B70000008080808080000606000000020100825
:103B80000402003E5149453E0000427F4000004291
:103B900061514946002141454B31001814127F10F4
:103BA000002745454539003C4A4949300001710923
:103BB000050300364949493600064949291E0000D7
:103BC000363600000000563600000008142241007E
:103BD00000141414141400004122140800020151AE
:103BE000090600324959513E007C1211127C007FB7
:103BF00049494936003E41414122007F4141221C52
:103C0000007F49494941007F09090901003E4149B6
:103C1000497A007F0808087F0000417F41000020AA
:103C200040413F01007F08142241007F4040404056
:103C3000007F020C027F007F0408107F003E41419C
:103C4000413E007F09090906003E4151215E007F87
:103C5000091929460046494949310001017F0101FE
:103C6000003F4040403F001F2040201F003F4038A1
:103C7000403F0063140814630007087008070061E0
:103C80005149454300007F41410000552A552A55BE
:103C9000000041417F000004020102040040404056
:103CA0004040000001020400002054545478007F7A
:103CB0004844443800384444442000384444487F51
:103CC00000385454541800087E0901020018A4A4B6
:103CD000A47C007F080404780000447D400000407C
:103CE00080847D00007F102844000000417F400058
:103CF000007C04180478007C0804047800384444EC
:103D0000443800FC242424180018242418FC007CC7
:103D10000804040800485454542000043F44402040
:103D2000003C4040207C001C2040201C003C4030D7
:103D3000403C004428102844001CA0A0A07C004463
:103D400064544C44141414141414000000000000B3
:103D500000000000000000000000000000F800006B
:103D60000000000000333000000000100C06100CB2
:103D70000600000000000000000040C07840C0784D
:103D80004000043F04043F040400007088FC083035
:103D90000000001820FF211E0000F008F000E018CD
:103DA000000000211C031E211E0000F00888700086
:103DB00000001E2123241927211010160E000000D8
:103DC00000000000000000000000000000E01804F7
:103DD0000200000000071820400000020418E00064
:103DE00000000040201807000000404080F08040A4
:103DF00040000202010F01020200000000F000007A
:103E000000000101011F010101000000000000008D
:103E1000000080B070000000000000000000000002
:103E2000000000010101010101010000000000008B
:103E30000000003030000000000000000000806042
:103E40001804006018060100000000E010080810C7
:103E5000E000000F102020100F00001010F80000EC
:103E600000000020203F2020000000700808088883
:103E70007000003028242221300000300888884853
:103E800030000018202020110E000000C02010F883
:103E9000000000070424243F240000F80888880854
:103EA00008000019212020110E0000E01088881859
:103EB0000000000F112020110E0000380808C8383B
:103EC00008000000003F000000000070880808881B
:103ED0007000001C222121221C0000E010080810A4
:103EE000E0000000312222110F00000000C0C000DD
:103EF00000000000003030000000000000800000E2
:103F000000000000806000000000000080402010E1
:103F100008000001020408102000404040404040DA
:103F2000400004040404040404000008102040803D
:103F30000000002010080402010000704808080872
:103F4000F0000000003036010000C030C828E81042
:103F5000E0000718272423140B000000C038E000FD
:103F60000000203C23020227382008F88888887047
:103F70000000203F202020110E00C0300808080853
:103F80003800071820202010080008F8080808103A
:103F9000E000203F202020100F0008F88888E80863
:103FA0001000203F20202320180008F88888E80807
:103FB0001000203F200003000000C030080808382F
:103FC000000007182020221E020008F80800000840
:103FD000F808203F210101213F20000808F80808C7
:103FE00000000020203F2020000000000808F80802
:103FF0000800C08080807F00000008F888C0281872
:104000000800203F20012638200008F808000000A2
:104010000000203F20202020300008F8F800F8F8A9
:104020000800203F003F003F200008F830C0000893
:10403000F808203F200007183F00E010080808108B
:10404000E0000F10202020100F0008F808080808D2
:10405000F000203F210101010000E01008080810D5
:10406000E0000F18242438504F0008F8888888880A
:104070007000203F2000030C3020007088080808E2
:1040800038000038202121221C00180808F80808F0
:1040900018000000203F2000000008F80800000879
:1040A000F808001F202020201F000878880000C882
:1040B0003808000007380E010000F80800F8000872
:1040C000F800033C0700073C03000818688080687C
:1040D000180820302C03032C30200838C800C838BA
:1040E00008000000203F2000000010080808C83821
:1040F00008002038262120201800000000FE0202BF
:1041000002000000007F40404000000C30C0000072
:104110000000000000010638C00000020202FE009C
:104120000000004040407F00000000000402020246
:10413000040000000000000000000000000000007B
:104140000000808080808080808000020204000067
:10415000000000000000000000000000808080805F
:1041600000000019242222223F2008F8008080004D
:104170000000003F112020110E0000000080808010
:104180000000000E11202020110000000080808817
:10419000F800000E112020103F2000008080808059
:1041A0000000001F222222221300008080F0888855
:1041B00088180020203F20200000000080808080A0
:1041C0008000006B94949493600008F800808080D5
:1041D0000000203F210000203F2000809898000030
:1041E00000000020203F2020000000000080989860
:1041F000000000C08080807F000008F80000808000
:104200008000203F24022D302000000808F8000024
:1042100000000020203F20200000808080808080DF
:104220008000203F20003F20003F80800080808071
:104230000000203F210000203F200000808080807F
:104240000000001F202020201F00808000808000B0
:10425000000080FFA12020110E000000008080805F
:104260008000000E112020A0FF80808080008080D0
:10427000800020203F2120000100000080808080FD
:1042800080000033242424241900008080E08080F2
:1042900000000000001F202000008080000000803F
:1042A0008000001F202020103F20808080000080A0
:1042B000808000010E3008060100808000800080B0
:1042C00080800F300C030C300F0000808000808055
:1042D00080000020312E0E31200080808000008080
:1042E000808080818E701806010000808080808030
:1042F00080000021302C2221300000000000807C52
:10430000020200000000003F404000000000FF00EB
:10431000000000000000FF0000000002027C80009E
:1043200000000040403F00000000000601010202C2
:104330000404000000000000000030313233343546
:104340003637383941424344454600006C43000843
:104350000000002034020000280100085C4400082E
:1043600034020020E41A00008401000811125012E7
:1043700008A204990B912009D4CBCEACB6FEB0E0D4
:10438000C0093032BAC5D4BFB3D71BF010012AFF21
:10439000050215F01B0F04012AFF0502130F18096F
:1043A0004040405F55555575041A5F0C09112108AE
:1043B0000C11200F094989790909090F201F112FB4
:1043C000FE02424ACA4A0304134202FE000E14FFD0
:1043D00040504C4340404F50505C40FF1BF8880118
:1043E0002AFF050215F81B1F08012A7F200B109FCA
:1043F00080E23B808201000916E2A2928A868280D6
:1044000080041840807F172424A4FEA3221B22CC02
:10441000AA011415080601FF2B0104010511FF0272
:1044200002025808101010FF109008C3021108086B
:104430000F140444827F01808040432C1028468161
:10444000A064BE011C2D01020304043808060708FD
:0C445000090204064E84A24A04691B0005
:04000005080000ED02
:00000001FF
