:020000040800F2
:10500000802A002001510008597B00085B7B0008C2
:105010005F7B0008637B0008677B000800000000DE
:105020000000000000000000000000006B7B000892
:105030006D7B0008000000006F7B0008717B00089A
:105040001B5100081B5100081B5100081B51000890
:105050001B5100081B5100081B5100081B51000880
:105060001B5100081B5100081B5100081B51000870
:105070001B5100081B5100081B5100081B51000860
:105080001B5100081B5100081B5100081B51000850
:105090001B5100081B5100081B510008557D0008DA
:1050A0001B5100081B5100081B5100081B51000830
:1050B000697C00081B5100081B5100081B510008A7
:1050C0001B5100081B5100081B5100081B51000810
:1050D0001B510008737B0008B37B0008297C000883
:1050E000A97C00081B5100081B510008DFF80CD0F8
:1050F00007F06AFF004800477D790008802A0020F9
:105100000648804706480047FEE7FEE7FEE7FEE761
:10511000FEE7FEE7FEE7FEE7FEE7FEE7297F000881
:10512000ED50000831490143314A1160704770B5B4
:10513000002100230F22C4780CB32D4C246804F402
:10514000E064C4F5E064210AC1F10403CA40447874
:1051500004FA03F18478144021430901254C0678B0
:10516000A155047804F01F050124AC4005786D11A9
:105170004FF0E02606EB8505C5F8004109E004780C
:1051800004F01F050124AC401B4D0678761145F84C
:10519000264070BD194A0A400243154B1B1F1A6076
:1051A000704739B1124A121D12680243104B1B1D81
:1051B0001A6006E00E4A121D126882430C4B1B1D3A
:1051C0001A607047042808D14FF0E021096941F0C6
:1051D00004014FF0E022116107E04FF0E02109697E
:1051E00021F004014FF0E022116170470000FA0540
:1051F0000CED00E000E400E080E100E080FFFF1F34
:1052000010B50446F948844208D10121401500F048
:10521000ABFE0021601500F0A7FE17E0F4488442C1
:1052200008D10121001500F09FFE0021201500F09B
:105230009BFE0BE0EF48844208D10121C80300F037
:1052400093FE00214FF4004000F08EFE10BD30B5FB
:105250000246002000235068E74C20400D790C687E
:1052600044EA0524204350609068E44C2040D1E992
:1052700002542C434D7944EA450420439060D06A9F
:1052800020F470000C7C641EE4B2234340EA035017
:10529000D06230BD00210160017141718160C16047
:1052A00001210174704721B1826842F001028260DD
:1052B00003E0826822F001028260704721B18268B7
:1052C00042F48072826003E0826822F4807282601D
:1052D000704710B50023CBB21AB144681C43446038
:1052E00002E044689C43446010BD816841F00801BD
:1052F00081607047014600208A6812F0080F01D0D3
:10530000012000E000207047816841F004018160C5
:105310007047014600208A6812F0040F01D0012076
:1053200000E00020704721B1826842F4A002826050
:1053300003E0826822F4A0028260704701460020E8
:105340008A6812F4800F01D0012000E0002070472D
:1053500010B50A4600210023416821F46041531E24
:1053600041EA4331416010BD21B1426842F400621C
:10537000426003E0426822F4006242607047F0B588
:1053800004460D4600200021092D11DDE068A5F13D
:105390000A0606EB4607072606FA07F18843A5F139
:1053A0000A0606EB460603FA06F10843E0600CE045
:1053B000206905EB4507072606FA07F1884305EB48
:1053C000450603FA06F108432061072A0FDA606BED
:1053D000561E06EB86071F2606FA07F18843561E5F
:1053E00006EB860605FA06F10843606322E00D2A03
:1053F0000FDA206BD61F06EB86071F2606FA07F189
:105400008843D61F06EB860605FA06F1084320639B
:1054100010E0E06AA2F10D0606EB86071F2606FAE9
:1054200007F18843A2F10D0606EB860605FA06F1A0
:105430000843E062F0BD21B1826842F480128260CC
:1054400003E0826822F48012826070470146C86CD3
:1054500080B2704765484C300068704721B142689F
:1054600042F48062426003E0426822F4806242605B
:10547000704721B1426842F48052426003E04268C2
:1054800022F48052426070470A460021816821F46C
:10549000E04111438160704721B1826842F40042CB
:1054A000826003E0826822F400428260704721B18A
:1054B000826842F40212826003E0826822F40212DF
:1054C00082607047014600208A6812F4001F01D0F4
:1054D000012000E000207047F0B50446154600208A
:1054E00000220026092911DDE068A1F10A0707EB77
:1054F000470C072707FA0CF29043A1F10A0707EBC4
:10550000470703FA07F21043E0600CE0206901EB63
:10551000410C072707FA0CF2904301EB410703FA0D
:1055200007F210432061A06BC0F30156EF1C06F197
:10553000010CA7EB0C0707EB870C1F2707FA0CF2EF
:105540009043EF1C06F1010CA7EB0C0707EB870754
:1055500001FA07F21043A063F0BD10B50A4600211E
:105560000023816B21F44011531E41EA03518163F2
:1055700010BD10B5002303460B441A6010BD02464F
:105580000023134601F128000344186880B27047D5
:105590000A46002141681A4B194011434160704787
:1055A0004162826270470A460021416821F01F0172
:1055B00011434160704740B10C490831096841F41A
:1055C00000010A4A0832116007E0084908310968F9
:1055D00021F40001054A083211607047024600209C
:1055E00013680B420ED001200DE0000000240140A2
:1055F00000280140003C0140FFFEF0FFFDF7F1FFF5
:10560000FFFD3FFF00207047CA430260704770B53E
:1056100002460020002300240B125568CEB205EA92
:10562000060415681D4202D00CB1012000E00020E4
:1056300070BD00220A12D3430360704710B50120E9
:1056400000F0ACFC002000F0A9FC10BD244908606B
:1056500070472349091F0860704721498431086059
:105660007047014600201F4A10884FF67F421040C5
:1056700008431C4A1080704701460020194A1088D0
:105680004FF6807210400843164A1080704700227F
:10569000144A2C3A02441160704701460022114A14
:1056A0002C3A0A44108870470D489C300068C0B2FC
:1056B00070470C480830008840F001000949083163
:1056C000088070470648A0300068C0B2704705489F
:1056D0000830008840F00200024908310880704715
:1056E00004860D422C6C0040002044490860091DCE
:1056F0000860091D0860091D086041483F491431D0
:105700000860704700213D498279002A3AD00A4654
:10571000126803689A430B461A600A1D12680368F0
:105720009A430B1D1A60027911440A6803681A43F0
:105730000A60324A0832126803689A432F4B0833D2
:105740001A601A1D126803689A432C4B0C331A60B6
:105750004279102A0ED11A1F126803681A43274B88
:1057600008331A601A1D126803681A43234B0C335E
:105770001A600DE02149427911440A6803681A430E
:105780000A6005E0027911440A6803689A430A60D6
:1057900070470021016001710C214171002181716C
:1057A00070471649103109680143144A10321160DC
:1057B000704701460020114A143212680A4201D093
:1057C000012000E0002070470C4914310860704748
:1057D000014600200022094B1B6803EA0102074B27
:1057E00014331B680B4202D00AB1012000E00020F4
:1057F00070470249143108607047000000040140FE
:10580000FFFF0F0010B50446CA48844208D10121A9
:10581000042000F0A9FB0021042000F0A5FB46E0D5
:10582000C548844208D10121082000F09DFB0021D9
:10583000082000F099FB3AE0C048844208D10121D9
:10584000102000F091FB0021102000F08DFB2EE0D5
:10585000BB48844208D10121202000F085FB0021B3
:10586000202000F081FB22E0B648844208D10121CB
:10587000402000F079FB0021402000F075FB16E08D
:10588000B148844208D10121802000F06DFB002145
:10589000802000F069FB0AE0AC48844207D1012176
:1058A000801500F061FB0021A01500F05DFB10BD2C
:1058B00010B50121084600F057FB0021012000F03F
:1058C00053FB10BD2DE9F0410246002500260020C3
:1058D00000230024002791F803C00CF00F0591F875
:1058E00003C01CF0100F03D091F802C04CEA05056C
:1058F00091F800C0BCF1000F31D0146800202BE0FB
:105900004FF0010C0CFA00F3B1F800C00CEA0306EA
:105910009E4220D183004FF00F0C0CFA03F7BC43DA
:1059200005FA03FC4CEA040491F803C0BCF1280F0B
:1059300006D14FF0010C0CFA00FCC2F814C00AE0CA
:1059400091F803C0BCF1480F05D14FF0010C0CFADF
:1059500000FCC2F810C0401C0828D1D31460B1F874
:1059600000C0BCF1FF0F34DD546800202EE000F1D0
:10597000080C4FF0010808FA0CF3B1F800C00CEA6B
:1059800003069E4221D183004FF00F0C0CFA03F75F
:10599000BC4305FA03FC4CEA040491F803C0BCF1D3
:1059A000280F05D100F1080C08FA0CF8C2F8148091
:1059B00091F803C0BCF1480F07D100F1080C4FF07B
:1059C000010808FA0CF8C2F81080401C0828CED351
:1059D0005460BDE8F0814FF6FF71018002218170B3
:1059E0000421C17070470246002093680B4201D029
:1059F000012000E0002070470146886880B27047AF
:105A000002460020D3680B4201D0012000E00020B4
:105A100070470146C86880B27047016170474161B4
:105A200070470AB1016100E041617047C160704791
:105A30004FF480320A4382618161826182698269A6
:105A4000704702460020424B18684FF6807318409A
:105A500040EA021008433E4B186070473D49C86158
:105A60007047F0B50A46002300240021002500F00D
:105A70000046B6F1004F02D1354EF16901E0344ED7
:105A80007168C0F3034583B200F44016B6F5401FB9
:105A900008D121F070612E4E766826F070662C4F8A
:105AA0007E6012E000F48016B6F5801F06D1032652
:105AB00006FA05F4A14341F0706106E0460D360197
:105AC00003FA06F6B14341F0706122B1460D36018A
:105AD00003FA06F6314300F00046B6F1004F02D15A
:105AE0001B4EF16101E01A4E7160F0BD30B500222D
:105AF0008B071C0F0F2303FA04F2154B08338C108D
:105B000053F824309343124C08348D1044F8253058
:105B100023468C1053F824308C07240F00FA04F429
:105B200023430B4C08348D1044F8253030BD0A490E
:105B30000860704700080140000C0140001001405F
:105B40000014014000180140001C014000200140E9
:105B50000000014000002042DC0020420E490860A5
:105B600070470D49486070470B49886070474AF696
:105B7000AA200949086070474CF6CC4006490860E5
:105B8000704701460020044AD2680A4201D0012031
:105B900000E00020704700000030004010B50121F7
:105BA000080700F0EEF900214FF0805000F0E9F90D
:105BB00010BD2949086270472749086170470146AE
:105BC0000020264A106820F0E0000843106070476B
:105BD00023490860704710B5024600201F4B186823
:105BE00020F00300104318601E4B1B6843F00403B1
:105BF0001C4C2360012901D130BF00E020BF194BAC
:105C00001B6823F00403174C236010BD1348006881
:105C100040F00400114908600846006840F00200A6
:105C200008601048006840F004000E49086000BF9A
:105C300000BF30BF704701460020084A52680A4240
:105C400001D0012000E0002070470449096841EAC2
:105C50008001024A1160704700000E42007000404F
:105C6000A0000E4210ED00E0DB48006840F00100AB
:105C7000D949086008464068D8490840D649486074
:105C800008460068D6490840D349086008460068BD
:105C900020F4802008600846406820F4FE00486038
:105CA0004FF41F0088607047CB49096821F48031A8
:105CB000C94A11601146096821F480211160B0F5CC
:105CC000803F03D0B0F5802F0ED106E0C2490968AD
:105CD00041F48031C04A116007E0BF49096841F4CE
:105CE000A021BD4A116000E000BF00BF704710B5A1
:105CF00001460022002300204A11012A02D1B64C9D
:105D0000236806E0022A02D1B34C236A01E0B24CB8
:105D1000636A01F01F02012494401C4201D001205B
:105D200000E0002010BD70B500240025002600BF53
:105D30003120FFF7DCFF0646641CB4F5A06F01D0EC
:105D4000002EF5D03120FFF7D2FF08B1012500E089
:105D50000025284670BD014600209F4A106820F0AB
:105D6000F80040EAC100106070479E490860704723
:105D700002460020984B586820F47C1042EA010348
:105D80001843954B5860704796490866704701461E
:105D90000020914A506820F003000843506070478B
:105DA0008D48406800F00C007047014600208A4A88
:105DB000506820F0F0000843506070470146002012
:105DC000854A506820F4E0600843506070470146FF
:105DD0000020814A506820F4605040EAC1005060C1
:105DE000704729B17C4A527A02437B4B5A7204E0D5
:105DF000794A527A8243784B5A7270477A490860DE
:105E0000704701460020744A506820F4404008431F
:105E1000506070470021754A11706F4A82F8201057
:105E2000012802D0042808D103E001216F4A117033
:105E300004E005216D4A117000E000BF00BF70470B
:105E40006B49086070476449096A0143624A1162FC
:105E50007047674944390860704730B50021002217
:105E6000002400235C4D6D6805F00C0121B104296C
:105E700005D0082923D105E05E4D056022E05D4D87
:105E800005601FE0544D6D6805F47012524D6D6849
:105E900005F48034022505EB92421CB9564D55435A
:105EA00005600BE04C4D6D6815F4003F03D0524D7A
:105EB0005543056002E04F4D5543056002E04D4DEE
:105EC000056000BF00BF444D6D6805F0F001090991
:105ED0004A4D6B5C0568DD4045603F4D6D6805F4DB
:105EE000E061090A454D6B5C4568DD4085603A4DCF
:105EF0006D6805F46051C90A404D6B5C4568DD4032
:105F0000C560354D6D6805F44041890B3C4D6B5CB7
:105F1000C568B5FBF3F5056130BD29B12E4A52695C
:105F200002432D4B5A6104E02B4A526982432A4BAB
:105F30005A61704729B1284A92690243264B9A61F7
:105F400004E0254A92698243234B9A61704729B144
:105F5000214AD2690243204BDA6104E01E4AD26929
:105F600082431D4BDA61704729B11B4AD268024354
:105F7000194BDA6004E0184AD2688243164BDA60A3
:105F8000704729B1144A12690243134B1A6104E0A5
:105F9000114A12698243104B1A6170471449403903
:105FA000086070470F49C86470470B49C871704753
:105FB0000948406A40F080700749486270470146CE
:105FC0000020054A92680A4201D0012000E000202A
:105FD0007047014988727047001002400000FFF8C6
:105FE000FFFFF6FE00004242D8004242201002406D
:105FF0008004424200127A0000093D0000000020A7
:106000001000002029B14F4A128802434D4B1A80DC
:1060100004E04C4A128882434A4B1A807047494830
:10602000001D008840F010004649091D0880704797
:106030004448001D00884FF6EF7108404149091D92
:106040000880704700213F481C300188001F0088ED
:1060500041EA0040704700B50246FFF7E0FF100C30
:10606000384918310880091D0A80FFF7E1FF00BD9B
:1060700000B50246FFF7D3FFC2F3034031490831B0
:106080000880091D0A80FFF7D3FF00BD00B5024656
:10609000FFF7C5FF100C2B4920310880091D0A802D
:1060A000FFF7C6FF00BD0020264910310988090707
:1060B000080B2449143109880843704700BF214860
:1060C000001D008810F0200FF9D070471D48001DFA
:1060D00000884FF6F77108401A49091D088000BF73
:1060E0001848001D008810F0080FF9D070470146CD
:1060F0000020144A121D12880A4201D0012000E03B
:10610000002070470F49091D098881430D4A121D5F
:1061100011807047014600200A4A121D12880A4069
:10612000D0B2084A12880A4202D008B1012000E029
:10613000002070470349091D09888143014A121D47
:10614000118070470028004010B50446BE488442C4
:1061500008D101218014FFF707FF0021A014FFF7E9
:1061600003FF16E0B948844208D101210014FFF76B
:1061700008FF00212014FFF704FF0AE0B44884421E
:1061800007D10121C013FFF7FCFE0021E013FFF748
:10619000F8FE10BD10B50022028802F441520B88AF
:1061A0004C8823438C882343CC8823430C89234386
:1061B0004C8923438C892343CC8923431A4302808F
:1061C000838B4FF2FF74234083830B8A038210BDBD
:1061D0002DE9F04F85B005460C464FF00009022727
:1061E0004FF000084FF0010B0026B246A88B4FF28B
:1061F00040010840A88302202884B5F81C90A068BC
:10620000022801D100BF38E0A08810B94FF0010B7F
:1062100001E04FF0020B8D48854200D100E000BF45
:106220006846FFF71AFEDDF800A0E088B0F5007FB1
:106230000AD14FEA1A2000EB80004000A168B0FBB1
:10624000F1F0401D86B20BE04FEA4B10BAFBF0F0C4
:1062500000EB80004000A168B0FBF1F0401D86B269
:106260000A20B6FBF0F606F00108A6EB0800C0F322
:106270004F074FF6FF7000EA0828022F01DBFF2FBF
:1062800002DD02274FF00008E08840EA08003843AA
:106290002884A088A189084361880843218808438D
:1062A00040F4006040EA0909A5F81C9005B0BDE87B
:1062B000F08F0021018041808180C1800181418176
:1062C0008181C181072101827047002101804180C5
:1062D0008180C1800221816000218181704721B1CC
:1062E000028842F04002028004E002884FF6BF7349
:1062F0001A400280704721B1828B42F4806282830F
:1063000004E0828B4FF6FF331A408283704730B52A
:10631000002400230C110125A540ABB21AB18588D9
:106320001D43858002E085889D43858030BD1AB17C
:1063300083880B43838002E083888B43838070478C
:1063400081817047014688897047A1F57E42FF3AF6
:1063500004D0028842F48072028004E002884FF682
:10636000FF631A400280704721B1828842F0040224
:10637000828004E082884FF6FB731A408280704767
:1063800002884FF2FF731A40028002880A4302809B
:106390007047018841F480510180704721B1028823
:1063A00042F40052028004E002884DF6FF731A4066
:1063B0000280704702460020012901D0108B00E0C6
:1063C000908A70470146088A7047B1F5804F04D122
:1063D000028842F48042028004E002884BF6FF7398
:1063E0001A40028070470246002013890B4201D0F8
:1063F000012000E000207047CA4302817047F0B5D9
:106400000246002000240023002501F00F0701268A
:10641000BE40B4B20B1101269E40B3B2968806EA84
:1064200003051689264202D00DB1012000E00020AC
:10643000F0BD10B5002201F00F040123A3409AB271
:10644000D343038110BD00000030014000380040FC
:10645000003C004010B50446FE48844208D10121AA
:10646000C014FFF781FD0021E014FFF77DFDC4E0BB
:10647000B4F1804F08D101210846FFF782FD0021C9
:106480000120FFF77EFDB8E0F348844208D10121E6
:106490000220FFF776FD00210220FFF772FDACE03D
:1064A000EE48844208D101210420FFF76AFD002153
:1064B0000420FFF766FDA0E0E948844208D10121ED
:1064C0000820FFF75EFD00210820FFF75AFD94E049
:1064D000E448844208D101211020FFF752FD002139
:1064E0001020FFF74EFD88E0DF48844208D10121EB
:1064F0002020FFF746FD00212020FFF742FD7CE031
:10650000DA48844208D101214014FFF72DFD002113
:106510006014FFF729FD70E0D548844209D10121BC
:10652000C804FFF721FD00214FF40020FFF71CFDF8
:1065300063E0D048844209D101210805FFF714FD2A
:1065400000214FF48010FFF70FFD56E0CA48844247
:1065500009D101214805FFF707FD00214FF4001084
:10656000FFF702FD49E0C548844208D101214020DF
:10657000FFF707FD00214020FFF703FD3DE0C04885
:10658000844208D101218020FFF7FBFC00218020FC
:10659000FFF7F7FC31E0BB48844208D101218015A8
:1065A000FFF7EFFC0021A015FFF7EBFC25E0B64854
:1065B000844209D101210804FFF7D6FC00214FF4E1
:1065C0008030FFF7D1FC18E0B048844209D10121A6
:1065D0004804FFF7C9FC00214FF40030FFF7C4FC6A
:1065E0000BE0AB48844208D101218804FFF7BCFCD2
:1065F00000214FF48020FFF7B7FC10BD0022028875
:10660000944B98420ED0994B98420BD0B0F1804FEA
:1066100008D0914B984205D0904B984202D0904BB5
:10662000984204D14FF68F731A404B881A438D4B12
:10663000984207D08C4B984204D04FF6FF431A4043
:10664000CB881A4302808B8883850B880385814B16
:1066500098420BD0854B984208D08B4B984205D07E
:106660008A4B984202D08A4B984201D10B7A03861A
:1066700001238382704770B5002400220023058C1B
:106680004FF6FE7635400584028C8388048B4FF6E6
:106690008F752C40B51E2C400D882C43751E2A404A
:1066A0000D892A434D882A436A4DA8420BD06F4D6D
:1066B000A84208D0744DA84205D0744DA84202D01B
:1066C000734DA84213D14FF6F7752A404D892A43DE
:1066D0004FF6FB752A408D882A434FF6FF652B4005
:1066E0004FF6FF552B408D892B43CD892B4383805B
:1066F0000483CD888586028470BD70B50024002295
:106700000023058C4FF6EF7635400584028C838894
:10671000048B48F6FF752C404FF6FF452C400D8842
:106720004FF6FF7606EA05252C434FF6DF752A4023
:106730000D8906EA05152A434D8806EA05152A4300
:10674000444DA84202D0494DA8421DD14FF67F7555
:106750002A404D894FF6FF7606EA05152A434FF683
:10676000BF752A408D8806EA05152A434FF6FF3586
:106770002B404FF2FF752B408D8906EA85052B4390
:10678000CD8906EA85052B4383800483CD88058760
:10679000028470BD70B5002400220023058C4FF6E2
:1067A000FF6635400584028C8388848B4FF68F7595
:1067B0002C404FF6FC752C400D882C434FF6FF55AE
:1067C0002A400D894FF6FF7606EA05252A434D88B3
:1067D00006EA05252A431F4DA84202D0234DA842B0
:1067E0001DD14FF2FF752A404D894FF6FF7606EA1C
:1067F00005252A434FF6FF352A408D8806EA0525F0
:106800002A434EF6FF752B404DF6FF752B408D89C0
:1068100006EA05152B43CD8906EA05152B4383802F
:106820008483CD888587028470BD70B500220023E3
:106830000024058C4EF6FF7635400584038C848851
:10684000828B48F6FF752A404FF6FF452A400D8897
:1068500020E00000002C014000040040000800403F
:10686000000C0040001000400014004000340140C3
:10687000004C01400050014000540140001800400D
:10688000001C004000200040004001400044014046
:10689000004801404FF6FF7606EA05252A434DF6EB
:1068A000FF752B400D8906EA05352B434D8806EA16
:1068B00005352B43FA4DA84202D0FA4DA84208D123
:1068C0004BF6FF752C408D894FF6FF7606EA85154D
:1068D0002C4384808283CD88A0F84050038470BD0F
:1068E000828B4FF2FF331A408283828B4FF6FF7305
:1068F00003EA01231A4382837047F0B50C4615461C
:10690000002200210026078C4EF6FF7C07EA0C07C8
:106910000784828B018C4FF6FF7707EA043640F636
:10692000FF473A404FF6FF7707EA05273A434FF60D
:10693000FF7707EA03373A43D94FB8420ED0D94F11
:10694000B8420BD0B0F1804F08D0D74FB84205D035
:10695000D64FB84202D0D64FB84206D14DF6FF7797
:10696000394046F48057394305E047F6FF57394030
:1069700044F48057394382830184F0BD828B4FF603
:10698000F3731A408283828B0A4382837047F0B587
:106990000C461546002200210026078C4FF6FF6C9E
:1069A00007EA0C070784828B018C4FF6FF7707EA12
:1069B00004264FF60C773A404FF6FF7707EA0317A5
:1069C0002F433A43B64FB8420ED0B64FB8420BD021
:1069D000B0F1804F08D0B44FB84205D0B34FB842A1
:1069E00002D0B34FB84206D14FF6FF57394046F4B4
:1069F0008077394305E04FF2FF57394044F4807700
:106A0000394382830184F0BD028B4FF2FF331A4079
:106A10000283028B4FF6FF7303EA01231A430283BA
:106A20007047F0B50C461546002200210026078C61
:106A30004FF6EF7C07EA0C070784028B018C4FF6B8
:106A4000FF7707EA041640F6FF473A404FF6FF7714
:106A500007EA03373A434FF6FF7707EA05273A4339
:106A60008F4FB8420ED08F4FB8420BD0B0F1804F4D
:106A700008D08D4FB84205D08C4FB84202D08C4F11
:106A8000B84206D14FF6DF77394046F01007394358
:106A900005E04FF65F77394044F010073943028331
:106AA0000184F0BD028B4FF6F3731A400283028B10
:106AB0000A4302837047F0B50C46154600220021B8
:106AC000068C4FF6FE773E400684028B018C4FF613
:106AD0000C7632407E1C06EA03162E433243704E7B
:106AE000B0420ED06F4EB0420BD0B0F1804F08D004
:106AF0006D4EB04205D06D4EB04202D06C4EB042E9
:106B000006D14FF6FD76314044F00106314305E0F1
:106B10004FF6F576314044F001063143028301849B
:106B2000F0BD70B505460C465D4885420ED05D4807
:106B300085420BD0B5F1804F08D05B48854205D027
:106B40005A48854202D05A48854200D100E000BF31
:106B5000208850B92389A28861882846FFF7ABFFB7
:106B6000E1882846FFF79EFF25E0208804280AD107
:106B70002389A28861882846FFF753FFE1882846C9
:106B8000FFF742FF17E0208808280AD12389A2884E
:106B900061882846FFF7FBFEE1882846FFF7EEFEF6
:106BA00009E02389A28861882846FFF7A6FEE188CC
:106BB0002846FFF795FE70BD2DE9F04105460C46CD
:106BC00000260127608808B9022600E00026A08878
:106BD000012801D1022700E001272088A0B92389DC
:106BE000A28861882846FFF766FFE1882846FFF7FC
:106BF00059FF23893A4631462846FFF712FFE188BC
:106C00002846FFF701FF13E02389A2886188284600
:106C1000FFF707FFE1882846FFF7F6FE23893A468B
:106C200031462846FFF747FFE1882846FFF73AFF3D
:106C3000BDE8F0810A884B881A438B881A43CB88B9
:106C40001A430B891A434B891A438B891A43A0F8BC
:106C5000442070474FF6FF71818000210180C18080
:106C60004180017270470021018041808180C18094
:106C7000018141818181C181704700210180418072
:106C8000012181800021C1800181704700210180A4
:106C900041808180C18001814181818170470000F4
:106CA000002C014000340140000400400008004076
:106CB000000C004021B1028842F00102028004E091
:106CC00002884FF6FE731A400280704731B1B0F867
:106CD000442042F40042A0F8442005E0B0F84420EB
:106CE000C2F30E02A0F8442070471AB183890B4307
:106CF000838102E083898B4383817047818270475F
:106D000041EA0203A0F8483070471AB183890B4367
:106D1000838102E083898B438381704701894FF629
:106D2000F8721140018170470A46002101894FF62F
:106D30008F73194011430181704730B504460D46E9
:106D400029462046FFF7F0FF208940F00700208108
:106D500030BD2DE9F04104460D4616461F46602D14
:106D600006D13B46012231462046FFF75AFE05E098
:106D70003B46012231462046FFF79DFE294620462C
:106D8000FFF7D2FF208940F007002081BDE8F081A5
:106D900030B50C4600210189C9B24FF6FF7505EAEE
:106DA0000325154325432943018130BD2DE9F041D9
:106DB00005460E4617469846002443463A46314655
:106DC0002846FFF7E5FF2C894FF6F870044044F0A1
:106DD00007044FF68F70044044F070042C81BDE826
:106DE000F081F0B504460D4616461F463B46324636
:106DF00029462046FFF7CCFF208940F480402081BF
:106E0000F0BD0185828270470A46002101884FF655
:106E10008F731940114301807047F0B50C46154639
:106E20001E460021002200230189028B038C4FF6AD
:106E3000F877394021434FF6FC473A4040F20117BA
:106E40003A434FF6DD773B404FF6FF7707EA0617E8
:106E50002F433B43018102830384F0BD0A46002196
:106E6000018B4FF68F7319401143018370470A4617
:106E70000021018B48F6FF7319404FF6FF7303EAB8
:106E800002231943018370470A460021818B4FF684
:106E90008F7319401143818370470A460021818B0B
:106EA00048F6FF7319404FF6FF7303EA02231943B4
:106EB0008183704721B1028842F08002028004E0A1
:106EC00002884FF67F731A400280704721B1828892
:106ED00042F00402828004E082884FF6FB731A407D
:106EE0008280704721B1828842F00802828004E0EB
:106EF00082884FF6F7731A408280704721B18288EA
:106F000042F00102828004E082884FF6FE731A404C
:106F1000828070470A460021018B4FF6F7731940B3
:106F20001143018370470A460021018B4FF2FF7322
:106F300019404FF6FF7303EA022319430183704798
:106F40000A460021818B4FF6F77319401143818364
:106F500070470A460021818B4FF2FF7319404FF6AC
:106F6000FF7303EA02231943818370470A46002115
:106F7000018B4FF6FB7319401143018370470A469A
:106F80000021018B4FF6FF3319404FF6FF7303EAE0
:106F900002231943018370470A460021818B4FF673
:106FA000FB7319401143818370470A460021818B8E
:106FB0004FF6FF3319404FF6FF7303EA02231943DC
:106FC000818370470A460021018B4FF67F73194079
:106FD0001143018370470A460021018BC1F30E0162
:106FE0004FF6FF7303EA02231943018370470A46F1
:106FF0000021818B4FF67F731940114381837047C5
:107000000A460021818BC1F30E014FF6FF7303EA9C
:1070100002231943818370470A460021018C4FF6F1
:10702000FD7319401143018470470A460021018C09
:107030004FF6F77319401143018470470A46002147
:10704000018C4FF6DF7319404FF6FF7303EA02130A
:107050001943018470470A460021018C4FF67F7363
:1070600019404FF6FF7303EA021319430184704776
:107070000A460021018C4FF6FF5319404FF6FF736B
:1070800003EA02231943018470470A460021018C58
:107090004FF2FF7319404FF6FF7303EA02231943BF
:1070A000018470470A460021018C4DF6FF73194098
:1070B0004FF6FF7303EA023319430184704730B57A
:1070C000002301248C40A3B2048C9C430484048CD0
:1070D00002FA01F5ADB22C43048430BD30B5002373
:1070E00004248C40A3B2048C9C430484048C02FAD4
:1070F00001F5ADB22C43048430BD70B503460020C9
:1071000000241846183001258D40ACB21D8CA543D3
:107110001D8409B1082909D100EB6100056825F03B
:10712000700505600568154305600EE00D1FC5F389
:107130004E052844056825F4E045056005684FF6CE
:10714000FF7606EA02263543056070BD21B102884C
:1071500042F00202028004E002884FF6FD731A40FA
:107160000280704721B1028842F00402028004E0EC
:1071700002884FF6FB731A400280704721B1828863
:1071800042F08002828004E082884FF67F731A40CA
:107190008280704702884FF6F7731A400280028897
:1071A0000A430280704782884FF68F731A408280AC
:1071B00082880A438280704702894FF6F8731A402A
:1071C000028102890A430281704702894FF67F7368
:1071D0001A40028102890A43028170478184704704
:1071E0008185704781867047018770478187704726
:1071F000A0F84010704702884FF6FF431A40028003
:1072000002880A43028070470146888E7047014613
:10721000088F70470146888F70470146B1F84000DB
:1072200070470146888C70470146088D70470246BA
:107230000020138A0B4201D0012000E0002070479B
:10724000CA430282704730B5024600200023002462
:10725000158A05EA0103958905EA010413B10CB109
:10726000012000E0002030BDCA43028270470000C8
:1072700010B50446FB48844209D101218803FEF77A
:1072800073FE00214FF48040FEF76EFE32E0F648B8
:10729000844209D101214804FEF773FE00214FF416
:1072A0000030FEF76EFE25E0F048844209D101214E
:1072B0008804FEF766FE00214FF48020FEF761FE91
:1072C00018E0EB48844209D10121C804FEF759FEB9
:1072D00000214FF40020FEF754FE0BE0E548844205
:1072E00008D101210805FEF74CFE00214FF4801063
:1072F000FEF747FE10BD2DE9F04786B005460E4665
:107300000024A24600BFA1460027B08900B100BFFB
:107310002F462C8A4CF6FF700440F08804432C82E0
:10732000AC894EF6F3100440B08831890843718966
:1073300008430443AC81AC8A4FF6FF400440B08957
:107340000443AC8201A8FEF788FDC648874202D1FB
:10735000DDF810A001E0DDF80CA0A88910F4004FC2
:1073600008D00AEBCA0000EB0A1031684900B0FBF4
:10737000F1F807E00AEBCA0000EB0A103168890057
:10738000B0FBF1F86420B8FBF0F00401200964219F
:1073900001FB1089A88910F4004F08D0322000EBBF
:1073A000C900B0FBF1F000F00700044308E0322010
:1073B00000EB09106421B0FBF1F000F00F00044372
:1073C0002C8106B0BDE8F0874FF416510160002112
:1073D0008180C18001810C21418100218181704720
:1073E00010B502460020108A4FF2FF0318400B88A8
:1073F0004C8823438C882343CC8823431843108232
:1074000010BD0021018041808180C180704721B181
:10741000828942F40052828104E082894DF6FF7332
:107420001A4082817047F0B50346002400260025EB
:107430000020A1F510676A3F00D100BF1846C1F3D4
:10744000421401F01F06012707FA06F5012C01D1AD
:107450000C3004E0022C01D1103000E014301AB1DD
:1074600007682F43076002E00768AF430760F0BD7D
:107470001AB1838A0B43838202E0838A8B4383821F
:107480007047028A4FF6F0731A400282028A0A435A
:107490000282704782894FF2FF731A40828182898B
:1074A0000A438281704721B1828942F002028281BF
:1074B00004E082894FF6FD731A4082817047028A88
:1074C0004FF6DF731A400282028A0A430282704733
:1074D00021B1028A42F48042028204E0028A4BF621
:1074E000FF731A4002827047C1F30802828070471E
:1074F00001468888C0F308007047818941F0010186
:1075000081817047028BD2B20283028B42EA012250
:1075100002837047028B02F47F420283028B0A438C
:107520000283704721B1828A42F02002828204E005
:10753000828A4FF6DF731A408282704721B1828AB5
:1075400042F01002828204E0828A4FF6EF731A4002
:107550008282704721B1828A42F00802828204E06E
:10756000828A4FF6F7731A408282704721B182896E
:1075700042F40042828103E08289C2F30E028281DA
:10758000704721B1828A42F40062828204E0828ADA
:107590004FF2FF731A4082827047828A4FF6FB7364
:1075A0001A408282828A0A438282704721B1828A8B
:1075B00042F00202828204E0828A4FF6FD731A4092
:1075C0008282704702460020B1F5007F00D100BFE3
:1075D00013880B4201D0012000E00020704701F425
:1075E0000072B2F5007F00D100BFCA43028070472D
:1075F00070B502460024002300250020A1F5106686
:107600006A3E00D100BFC1F3421501F01F030126FD
:1076100006FA03F3012D02D19689334006E0022DCC
:1076200002D1168A334001E0968A33400C120126BB
:1076300006FA04F41688344013B10CB1012000E0BE
:10764000002070BD10B500220023A1F510646A3C33
:1076500000D100BF0A1201249440A3B2DC4304808D
:1076600010BD0000003801400044004000480040C8
:10767000004C0040005000402DE9F84F0025002646
:10768000FF244FF0000A4FF0000B4FF000080020DD
:107690000090814605F055FB0A22FE49FE4803F0A2
:1076A0002EFA0822FB491031FB481C3003F027FA60
:1076B00000F0EAFFF8481E3801F0D5F800F00DFFA1
:1076C00000F000FECEE0B8F1140F03D100F0FAFD97
:1076D0004FF0000808F1010000F0FF08322002F02E
:1076E0004FF805F032FB0446B9F1000F0FD1FF2C23
:1076F0000DD1681C85B2E948006800EB4000B5EB8D
:10770000400F04D300F0EEFF4FF001090025B9F15E
:10771000010F0ED1022C05D0042C03D0032C01D074
:10772000012C06D100F0D0FF4FF0000905F009FB55
:10773000FF24FF2C06D0FE2C04D0FA20D849087074
:10774000BDE8F88F4FF40272D649012002F022FD05
:107750008246BAF1070F28D1D2480078AA2824D14E
:10776000D0484078752820D1CE4880780D281CD18B
:10777000CC48C078022818D1CA480079A8B9C948AD
:107780004079012811D1C7488079D1280DD1C64848
:107790000068C0F3400747B10020C449087003F0F7
:1077A00005FEFD20BE490870CAE74FF40272BD49CC
:1077B000032002F0EEF98346BBF1070F23D1B9484D
:1077C0000078AA281FD1B748407875281BD1B54842
:1077D00080780D2817D1B348C078022813D1B1485A
:1077E000007980B9AF48407901280CD1AD48807943
:1077F000D12808D10120AD49087003F0D7FDFD2044
:10780000A74908709CE7A8480068C0F3400717B173
:107810000020A6490870701C86B2152E22D10026C1
:1078200005F083FA00F059FE05F0E5F900900098A4
:10783000042817D105F043FA00209D49087042F64C
:10784000C9539C4A6421012004F054FE01E005F074
:107850006CFA974800780028F9D0012004F09DFECA
:1078600005F054FB2FE708B501210820FEF762FB65
:107870000220ADF8000010208DF8030003208DF8E1
:10788000020069468C48FEF71DF802218A48FEF77F
:10789000C4F808BD08B501210420FEF74BFB4FF4E6
:1078A0008070ADF8000010208DF8030003208DF8E3
:1078B000020069467C480838FEF704F84FF48071EE
:1078C00079480838FEF7ABF808BD08B50121082053
:1078D000FEF730FB8020ADF8000010208DF803008B
:1078E00003208DF8020069467348FDF7EBFF802105
:1078F0007148FEF792F808BD08B501210820FEF78F
:1079000019FB4020ADF8000010208DF80300032083
:107910008DF8020069466848FDF7D4FF40216648AB
:10792000FEF77BF808BD08B501210820FEF702FB31
:107930000120ADF8000010208DF8030003208DF821
:10794000020069465C48FDF7BDFF01215A48FEF779
:1079500064F808BD08B501210420FEF7EBFA022007
:10796000ADF8000028208DF8030003208DF80200F8
:1079700069464D480838FDF7A5FF08BD86B000BF31
:107980004EA003C8CDE904014EA103C9CDE902010F
:1079900000BF4FF4A0414FF00060FDF7FBFB01F08A
:1079A000A3FE01F07BFF05F021FA05F0D2F92020BB
:1079B00005F05DFA4FF4807005F059FA4FF400407D
:1079C00005F055FA05F0C4FA202005F056FA4FF4F8
:1079D000807005F052FA4FF4004005F04EFA002195
:1079E000AF2000F021FB00203849087038490870AA
:1079F00002F06AFF01F0D6FD02F066FF00F044FEDF
:107A000034480423302202210090202000F02CFD75
:107A100031A20221302000F0FFFBFFF79BFFFFF7B0
:107A200082FFFFF769FFFFF750FF802022491031E6
:107A30000860FFF72FFF4FF480701B490C3108607E
:107A4000FFF711FF02201C491431086004F0F4FC18
:107A500004F0A3FE02F0CEF902F0EBF902F07CFC98
:107A600002F09BFC01F07AFF01F09AFF01F0B7FFF2
:107A70004FF400600C490C31086005F065F805F022
:107A800074F8002103480C3803F075F901480C38EC
:107A900026E00000300018009E0300205002002065
:107AA000750000202D110020080801401B00002057
:107AB000E1100020EFC50008000C0140557ABB0121
:107AC0000001000030313233343500001E00002048
:107AD0001D0000205D030020BACFBFC6BCBC000063
:107AE00003F060F9012801D103F01AFAFF201849C8
:107AF000087012E016480078FA2809D0FD2804D052
:107B0000FF2808D1FFF7B8FD06E004F0E9FB03E029
:107B100000F078FF00E000BF00BFEBE708B50121EF
:107B20000820FEF707FA4FF48040ADF8000010205F
:107B30008DF8030003208DF8020069460548FDF723
:107B4000C1FE4FF480410348FDF769FF08BD000006
:107B500075000020000C0140704700BFFEE700BF29
:107B6000FEE700BFFEE700BFFEE7704770477047C3
:107B7000704710B540F225519548FFF739FDB8B16F
:107B80009348FFF7B5FCC4B292484188801D445425
:107B9000801F4088401C8F49488008464088FE2846
:107BA00001DB0020488040F225518948FFF74AFD5B
:107BB00010BD10B540F225518748FFF719FDB8B147
:107BC0008548FFF795FCC4B284484188801D445421
:107BD000801F4088401C8149488008464088FE2814
:107BE00001DB0020488040F225517B48FFF72AFD49
:107BF000FF227B49022002F031FC0446032C12DBF9
:107C000002F077FD77480078FF2809D100F03CFDAD
:107C1000754800F028FE00F060FC00F053FB02E025
:107C2000022005F087F810BD10B540F225516F48CD
:107C3000FFF7DEFCB8B16D48FFF75AFCC4B26C48E0
:107C40004188801D4454801F4088401C68494880FA
:107C500008464088FE2801DB0020488040F225517C
:107C60006248FFF7EFFC10BD70B501218807FFF7F0
:107C7000EAFAC0B101218807FFF7F6FA5D4C00254A
:107C80000FE0A06850B1A088401CA080A088618847
:107C9000884203DBA06880470020A0800C34681C69
:107CA000C5B2032DEDDB70BD10B500244FF40050BC
:107CB000FDF78EFD002829D002204F4908703220A0
:107CC00001F05EFD4D48007808B105F04DF905F072
:107CD00025F904465CB100F0D7FC05F045F90A220D
:107CE00047A1012002F01EF90120484908704FF415
:107CF0000050FDF77EFD0F2245A1012002F012F990
:107D00003D480178012002F029F922E04FF40040BB
:107D1000FDF75EFDA0B1042037490870322001F064
:107D20002FFD4FF40040FDF764FD0F223CA1012020
:107D300002F0F8F830480178012002F00FF908E06D
:107D40000F223BA1012002F0EDF84FF47A7001F010
:107D500017FD10BD10B52020FDF73AFD98B10120A8
:107D600025490870322001F00BFD2020FDF741FD70
:107D70000F2233A1012002F0D5F81F48017801201D
:107D800002F0ECF822E04FF48070FDF721FDA0B185
:107D9000032019490870322001F0F2FC4FF4807082
:107DA000FDF727FD0F222AA1012002F0BBF812489F
:107DB0000178012002F0D2F808E00E221CA1012077
:107DC00002F0B0F84FF47A7001F0DAFC10BD000058
:107DD0000038014052140020004400405615002095
:107DE0003200002075000020800300200048004081
:107DF0004E1300205C2600201C0000201D000020E7
:107E00006C6F6E6720707265737300001E00002037
:107E1000696E74657272757074204B45593200003A
:107E2000696E74657272757074204B455934000028
:107E3000696E74657272757074206D61736B000089
:107E4000696E74657272757074204B45593100000B
:107E5000696E74657272757074204B4559330000F9
:107E600000210020674A126842F48032654B1A6094
:107E700000BF644A126802F40030491C10B9B1F521
:107E8000A06FF6D15F4A126812F4003F01D00120C2
:107E900000E00020012842D15B4A126842F0100243
:107EA000594B1A601A46126822F003021A601A46E9
:107EB000126842F002021A60524A5268514B5A60EC
:107EC0001A4652685A601A46526842F480625A60F2
:107ED0001A46526822F47C125A601A46526842F4DA
:107EE000E8125A601A46126842F080721A6000BFA7
:107EF000444A126812F0007FFAD0424A526822F0D7
:107F00000302404B5A601A46526842F002025A601D
:107F100000BF3C4A526802F00C02082AF9D17047AF
:107F200010B5FFF79DFF10BD10B53648006840F052
:107F30000100344908600846406834490840314926
:107F4000486008460068324908402E4908600846E3
:107F5000006820F4802008600846406820F4FE0095
:107F600048604FF41F008860FFF7DAFF4FF00060B1
:107F70002849086010BD10B5002100200022214BC7
:107F80005B6803F00C0121B1042906D0082928D12F
:107F900007E0214B214C236027E01F4B1F4C23603F
:107FA00023E0184B5B6803F47010164B5B6803F416
:107FB0008032022303EB904022B9194B4343174C04
:107FC00023600DE00F4B5B6813F4003F04D0144BAB
:107FD0004343124C236003E00F4B43430F4C236099
:107FE00003E00D4B0D4C236000BF00BF054B5B68E9
:107FF000C3F303130B4CE15C084B1B68CB40074CED
:10800000236010BD00100240002002400000FFF875
:10801000FFFFF6FE08ED00E000127A007800002075
:1080200000093D007C00002070B504460E462EB1CC
:108030004FF48051FE48FDF7F0FC04E04FF480510E
:10804000FB48FDF7ECFC4FF40071F948FDF7E7FC45
:1080500000251BE04FF40051F548FDF7E0FC14F05B
:10806000800F05D04FF40041F148FDF7D6FC04E045
:108070004FF40041EE48FDF7D2FC4FF40051EC48BC
:10808000FDF7CBFC6006040E681CC5B2082DE1DBD1
:108090004FF40071E648FDF7C0FC4FF48051E4480E
:1080A000FDF7BBFC70BD70B504460D4605F1B0018F
:1080B000C8B20021FFF7B8FF102141EA14100021D7
:1080C000FFF7B2FF04F00F01881C0021FFF7ACFF9F
:1080D00070BD2DE9F04F89B007460E461546287849
:1080E000A03800F0FF086878A03800F0FF09A9F177
:1080F0000100A8F101015E2202FB01004FEA401AD3
:10810000CC48006800EB0A0B2022594601A802F077
:108110000CFEC948007801280AD1002406E001A815
:10812000005DC04301A90855601CC4B2202CF6DBD9
:1081300031463846FFF7B7FF002406E001A9085D85
:108140000121FFF771FF601CC4B2102CF6DB701C1C
:10815000C1B23846FFF7A7FF002408E001AA04F1E6
:108160001001505C0121FFF75FFF601CC4B2102CAE
:10817000F4DB09B0BDE8F08F2DE9FF4107460E465C
:10818000904600250024A8F12000C5B2AA48007836
:1081900060B900BF07E004EB0510A849085C0DF8C2
:1081A0000400601CC4B2102CF5DB0DE0002409E0D3
:1081B00004EB0510A149085CC043C0B20DF80400EF
:1081C000601CC4B2102CF3DB7F2F02DD0027B01C33
:1081D000C6B231463846FFF766FF002406E01DF8B8
:1081E00004000121FFF720FF601CC4B2082CF6DB5D
:1081F000701CC1B23846FFF756FF002408E004F1B6
:1082000008011DF801000121FFF70EFF601CC4B238
:10821000082CF4DBBDE8FF812DE9F04105460F464F
:108220001446002617E02078802809DA227839469B
:108230002846FFF7A1FF641C05F10800C5B208E05D
:10824000224639462846FFF744FFA41C05F11000DA
:10825000C5B2701CC6B2207808B1142EE3DBBDE8AD
:10826000F0812DE9F04706460F4690461C46E1177F
:1082700004EB5171C910B4EBC10105D12046E117DF
:1082800004EB5171CD1005E02046E11704EB51716C
:10829000C9104D1C3D4611E029463046FFF703FF4B
:1082A000B14607E001210020FFF7BEFE09F1010001
:1082B00000F0FF09C145F5DB681CC5B2A542EBDB48
:1082C000BDE8F08710B58CB004F09CFB32208DF82F
:1082D000200030208DF8210059480078040904F16D
:1082E00030008DF822005648007800F00F0404F1A9
:1082F00030008DF82300C4208DF82400EA208DF88A
:1083000025004F484078040904F130008DF826001C
:108310004B48407800F00F0404F130008DF827003E
:10832000D4208DF82800C2208DF829004448807898
:10833000040904F130008DF82A004148807800F0EB
:108340000F0404F130008DF82B00C8208DF82C00AC
:10835000D5208DF82D0000208DF82E003848C078EB
:10836000040904F130008DF810003548C07800F0A1
:108370000F0404F130008DF81100CA208DF81200AE
:10838000B1208DF813002E480079040904F1300063
:108390008DF814002A48007900F00F0404F1300031
:1083A0008DF81500B7208DF81600D6208DF817002F
:1083B00023484079040904F130008DF81800204862
:1083C000407900F00F0404F130008DF81900C3204B
:1083D0008DF81A00EB208DF81B0000208DF81C0092
:1083E0009DF826008DF804009DF827008DF8050003
:1083F0002F208DF806009DF82A008DF807009DF8C3
:108400002B008DF8080020208DF809009DF8100041
:108410008DF80A009DF811008DF80B003A208DF8B8
:108420000C009DF814008DF80D009DF8150009E072
:10843000000C01404C0200201A0000208ED20008DF
:108440002C0000208DF80E0000208DF80F00022374
:10845000602200210846FFF704FF01AA0021084618
:10846000FFF7DAFE0CB010BD2DE9F05F06460F46AF
:1084700090461C46DDF828A04FF0000BE11704EBF6
:108480005171C910B4EBC10105D12046E11704EBCD
:108490005171CD1005E02046E11704EB5171C91070
:1084A0004D1C3D4615E029463046FFF7FCFDB14620
:1084B0000BE059460BF1010B1AF801000121FFF7FF
:1084C000B3FD09F1010000F0FF09C145F1DB681CB3
:1084D000C5B2A542E7DBBDE8F09F38B50024022312
:1084E000802200216020FFF7BCFE04F084FB0446DC
:1084F00044B9FE4802238022002100906020FFF74B
:10850000B3FF28E0012C08D1F94802238022002182
:1085100000906020FFF7A8FF1DE0022C08D1F5486D
:1085200002238022002100906020FFF79DFF12E0CF
:10853000032C08D1F0480223802200210090602003
:10854000FFF792FF07E0EC48022380220021009011
:108550006020FFF789FF38BD70B504460D4616460A
:10856000324629462046FFF757FE70BD70B50446D7
:108570000D4616460120E14908703246294620463C
:10858000FFF74AFE0020DD49087070BD2DE9F84F65
:1085900006464FF0020B377896F80180A8EB0700EB
:1085A000401C00F0FF09012511E0C5EBC50306EBF7
:1085B00083039A1CC5EBC50306EB83035978C5EB0F
:1085C000C50316F82300FFF7C7FF681CC5B2BD42FC
:1085D000EBDBB9F1020F0BDC002405E03819C0B267
:1085E0000DF80400601CC4B24C45F7DBCA4620E01D
:1085F000A8F10100C249097888420CDA002407E09A
:10860000A8F101002044C0B20DF80400601CC4B2FF
:10861000022CF5DB0BE0002407E0B9480078204489
:10862000C0B20DF80400601CC4B2022CF5DB4FF0A0
:10863000020A002524E01DF80500B14909788842A6
:108640000ED11DF80500C0EBC00006EB8000821CB7
:10865000022000EB4500C1B22020FFF787FF0DE0AC
:108660001DF80500C0EBC00006EB8000821C022054
:1086700000EB4500C1B22020FFF76EFF681CC5B2B9
:108680005545D8DBBDE8F88F70B5002419E004F13A
:10869000B001C8B20021FFF7C7FC00211020FFF78E
:1086A000C3FC00210846FFF7BFFC002505E00121BF
:1086B0000020FFF7B9FC681CC5B2862DF7DB601CF3
:1086C000C4B2082CE3DB70BD10B500218D20FFF78C
:1086D000ABFC00211420FFF7A7FC0021AF20FFF71F
:1086E000A3FC10BD10B500218D20FFF79DFC0021DB
:1086F0001020FFF799FC0021AE20FFF795FC10BD7C
:108700002DE9F04700250026AA467E4890F8009003
:1087100090F8018000787A49087004F012FBFFF7A6
:10872000B3FF7848FFF732FFFFF7D7FEFFF7CAFD28
:1087300095E004F00AFB044604F0A5FBFF2C0CD1E5
:10874000701CC6B2642001F01BF86F4800688642B6
:1087500003D3FFF7C7FF01250026012D0DD1022C01
:1087600005D0042C03D0032C01D0012C05D1FFF738
:10877000ABFF002504F0E5FAFF24012C22D10026EE
:10878000604800785E490978884205DA5C480078DC
:10879000401E5B49087009E05A480078584909783A
:1087A000884203DB5748407855490870FFF76CFF53
:1087B0005448FFF7EBFEFFF790FEFFF783FD04F050
:1087C000C0FA46E0032C1DD100264D4800784045F4
:1087D00005DA4B480078401C4949087006E04848D3
:1087E0000078404502DB464880F80090FFF74CFFD8
:1087F0004448FFF7CBFEFFF770FEFFF763FD04F080
:10880000A0FA26E0042C1BD10026FFF73DFF3C48D0
:10881000077801460978C1EBC1013A4A02EB8101B0
:108820008869804736480770FFF72EFF3548FFF705
:10883000ADFEFFF752FEFFF745FD04F082FA08E0B7
:108840002DB9022C03D1002604F07BFA08E004F0D5
:1088500078FA04F029FB4FF4967000F091FF68E776
:1088600000BFBDE8F08770B50446012511E0C5EBF7
:10887000C50304EB83039A1CC5EBC50304EB830318
:108880005978C5EBC50314F82300FFF765FE681C93
:10889000C5B26078A842EADA70BD2DE9F04700263B
:1088A0000027B2461948057890F8019014480570E1
:1088B00004F047FAFFF7E8FE1448FFF767FEFFF7FA
:1088C0000CFEFFF7FFFC99E004F03FFA044604F0C9
:1088D000DAFAFF2C09D1781CC7B20B48006887422E
:1088E00003D3FFF7FFFE0126002711E05D02002001
:1088F0009D020020DD0200201D0300201A00002040
:1089000019000020B005002050020020980400202B
:10891000012E0DD1022C05D0042C03D0032C01D044
:10892000012C05D1FFF7D0FE002604F00AFAFF243F
:10893000012C19D10027F8480078A84205DDF64837
:108940000078401EF449087002E0F34880F8009077
:10895000FFF79AFEF148FFF719FEFFF7BEFDFFF79C
:10896000B1FC04F0EEF943E0032C18D10027EA48EB
:108970000078484505DAE8480078401CE649087068
:1089800001E0E5480570FFF77FFEE448FFF7FEFDD4
:10899000FFF7A3FDFFF796FC04F0D3F928E0042CC1
:1089A0001DD1002704F0CDF9FFF76EFEDA4890F8EC
:1089B000008001460978C1EBC101D84A02EB810170
:1089C00088698047D44880F8008004F0BAF9D34819
:1089D000FFF7DCFDFFF781FDFFF774FC08E02EB91F
:1089E000022C03D1002704F0ACF908E004F0A9F947
:1089F00004F05AFA4FF4967000F0C2FE64E700BF2C
:108A0000BDE8F0872DE9F04700250026A846A946D5
:108A1000C348077890F801A0BF480770FFF734FEFD
:108A2000BF48FFF720FFFFF758FDFFF74BFC002082
:108A3000BC49087042F6C953BB4A0121084603F0FD
:108A400059FD47E004F081F90446FF2C0BD1701C5E
:108A5000C6B2B6480068864205D30021AE20FFF7B3
:108A6000E3FA01250026012D0FD1022C05D0042C9C
:108A700003D0032C01D0012C07D10021AF20FFF738
:108A8000D3FA002504F05DF9FF2404F0FCF985B960
:108A9000042C0ED10026FFF700FFFFF7F5FDA048DC
:108AA000FFF7E1FEFFF719FDFFF70CFC04F049F9B1
:108AB0000AE0022C06D12DB90026FFF721FE04F0B2
:108AC00040F901E004F03DF904F0EEF94FF496703E
:108AD00000F056FE934800780028B3D0FF20944958
:108AE0000870BDE8F08710B5FFF78CFF10BD10B51A
:108AF000FFF7D3FE10BD10B5FFF702FE10BD2DE944
:108B0000F0470026002500278A4890F8008090F85A
:108B1000019000788049087004F013F9FFF7B4FD64
:108B20008448FFF7A0FEFFF7D8FCFFF7CBFB45E03A
:108B300004F00BF9044604F0A6F9FF2C09D1681CD7
:108B4000C5B27A480068854203D3FFF7CBFD012602
:108B50000025012E0DD1022C05D0042C03D0032CAE
:108B600001D0012C05D1FFF7AFFD002604F0E9F894
:108B7000FF24042C13D10025FFF786FD66480078FA
:108B8000032800D11BE064490978C1EBC101694A9F
:108B900002EB81018869804704F0D3F808E0022CD9
:108BA00004D1FFF771FD04F0CCF808E004F0C9F837
:108BB00004F07AF94FF4967000F0E2FDB8E700BFD8
:108BC000BDE8F08710B5FFF79AFF10BD70B50546F8
:108BD000012426E050480078844210D1C4EBC4033D
:108BE00005EB83039A1CC4EBC40305EB830359789C
:108BF000C4EBC40315F82300FFF7B8FC0FE0C4EB87
:108C0000C40305EB83039A1CC4EBC40305EB830385
:108C10005978C4EBC40315F82300FFF79DFC601CD2
:108C2000C4B26878A042D5DA70BD2DE9F0470025BE
:108C300000260027A846404890F8009090F801A030
:108C400000783549087004F07CF8FFF71DFD3A48BC
:108C5000FFF7BCFFFFF741FCFFF734FB50E104F0E6
:108C600074F8044604F00FF9FF2C0CD1701CC6B246
:108C7000642000F085FD2D480068864203D3FFF78D
:108C800031FD01250026012D0DD1022C05D0042C2B
:108C900003D0032C01D0012C05D1FFF715FD0025D1
:108CA00004F04FF8FF24012C4AD100261A4800781E
:108CB000C0EBC000204901EB80008078401C1649C1
:108CC0000978C1EBC1011C4A02EB8101887012488E
:108CD0000078C0EBC000114601EB80008078392895
:108CE00007DD30200C490978C1EBC10102EB81019D
:108CF000887009480078C0EBC0000F4901EB800084
:108D0000817805480078001F0C4A115404F019F8C6
:108D10000948FFF75BFFEDE01900002098040020F0
:108D200080030020E1100020EFC500085002002061
:108D300075000020F8080020E00700205402002001
:108D4000032C36D10026F6480078C0EBC000F54968
:108D500001EB80008078401EF1490978C1EBC10128
:108D6000F04A02EB81018870ED480078C0EBC0004A
:108D7000114601EB80008078302807DA3920E84975
:108D80000978C1EBC10102EB81018870E4480078E9
:108D9000C0EBC000E34901EB80008178E048007837
:108DA000001FE14A115403F0CCFFDE48FFF70EFF2D
:108DB000A0E0042C7ED10026DA484078D849097812
:108DC00088420ADDD6480078401CD549087003F077
:108DD000B8FFD448FFF7FAFE8CE0D2484078D0497B
:108DE0000978884297DC0422D049D14801F087FEF7
:108DF000CD480178CE4800783030814241D1CA4810
:108E00004178CB484078303081423AD1C6488178A9
:108E1000C74880783030814233D1C348C178C448D4
:108E2000C078303081422CD1FFF72EFCC1A2022144
:108E30002020FFF7F1F9C2A204212820FFF7ECF966
:108E40003020B949087048708870C8703021B54822
:108E500080F8721080F88E1080F8AA1080F8C61082
:108E6000642000F08DFC0220B749086041F2883090
:108E700000F086FC0220B449091D0860FFF704FCDD
:108E80003FE0FFF701FCB1A202211820FFF7C4F96F
:108E9000B1A204211820FFF7BFF93020A2490870C1
:108EA00048708870C87030219E4880F8721080F831
:108EB0008E1000E013E080F8AA1080F8C6104FF47E
:108EC000FA6000F05DFCFFF7DFFB964800789449FC
:108ED00008709448FFF77AFE03F033FF0AE03DB9CB
:108EE000022C05D10026FFF7CFFB03F02AFF08E094
:108EF00003F027FF03F0D8FF4FF4967000F040FC1A
:108F0000ADE600BFBDE8F08710B5FFF78EFE10BDDF
:108F100010B5FFF7E7FB01209249087010BD10B5AE
:108F2000FFF7E0FBFFF7B9FC10BD2DE9F047002685
:108F3000002500278C4890F8008090F80190007878
:108F40007749087003F0FDFEFFF79EFB8648FFF7A8
:108F50003DFEFFF7C2FAFFF7B5F930E003F0F5FE8A
:108F6000044603F090FFFF2C09D1681CC5B27F486E
:108F70000068854203D3FFF7B5FB01260025012ECB
:108F80000DD1022C05D0042C03D0032C01D0012CD0
:108F900005D1FFF799FB002603F0D3FEFF24042C34
:108FA00005D10025FFF770FB03F0CBFE08E003F0CE
:108FB000C8FE03F079FF4FF4967000F0E1FBCDE7B7
:108FC00000BFBDE8F0872DE9F04700250026002707
:108FD000674890F8008090F8019000785049087038
:108FE00003F0AFFEFFF750FB6148FFF7EFFDFFF71F
:108FF00074FAFFF767F9C5E003F0A7FE044603F033
:1090000042FFFF2C09D1701CC6B258480068864246
:1090100003D3FFF767FB01250026012D0DD1022C9C
:1090200005D0042C03D0032C01D0012C05D1FFF76F
:109030004BFB002503F085FEFF24012C22D10026E6
:109040004B48007836490978884205DA3448007878
:10905000401E3349087009E04548007830490978D6
:10906000884203DB424840782D490870FFF70CFB2B
:109070003F48FFF7ABFDFFF730FAFFF723F903F0A6
:1090800060FE79E0032C23D1002600273848407881
:1090900023490978884205DD21480078401C204991
:1090A000087009E0324840781D490978884203DC9D
:1090B0002F4800781A490870FFF7E6FA2C48FFF7A6
:1090C00085FDFFF70AFAFFF7FDF803F036FE53E0DF
:1090D000042C1DD10026002711480078032803D155
:1090E0002120224908600EE00D480078042803D1B1
:1090F00063201E49086006E009480078052802D16F
:10910000C8201A490860FFF710FFFFF7BDFA3AE0E0
:109110002DB9022C2ED1002603F013FE33E029E0F6
:1091200019000020E0070020540200205000180021
:1091300058020020C3DCC2EBD5FDC8B7A3A10000D4
:10914000BFAACBF8D6D00000100C0140C3DCC2EBA4
:10915000B4EDCEF3A3A10000C7EBD6D8D0C2CAE4C9
:10916000C8EB000017000020C806002050020020B5
:10917000400C002003F0E5FD03F096FE4FF49670DE
:1091800000F0FEFA38E700BFBDE8F08710B5FFF742
:109190001AFF10BD2DE9F047002600250027FA48E8
:1091A00090F8008090F801900078F849087003F07A
:1091B000C8FDFFF769FAF448FFF708FDFFF78DF9DE
:1091C000FFF780F830E003F0C0FD044603F05BFEDB
:1091D000FF2C09D1681CC5B2ED480068854203D355
:1091E000FFF780FA01260025012E0DD1022C05D0B3
:1091F000042C03D0032C01D0012C05D1FFF764FA15
:10920000002603F09EFDFF24042C05D10025FFF766
:109210003BFA03F096FD08E003F093FD03F044FEF3
:109220004FF4967000F0ACFACDE700BFBDE8F087D0
:1092300010B5FFF7AFFF10BD2DE9FE4F064689467A
:1092400017461D46DDF830800020029001908246CE
:10925000834600241EE0281B401E81000F2000FAD8
:1092600001FA07EA0A0B281B401E80002BFA00F0C7
:10927000C0B2029008EBD871491001FB0461C8B27A
:10928000C44BCDF8008002995A5C4946FEF774FF42
:10929000601CC4B2AC42DEDBBDE8FE8F2DE9FE43AC
:1092A000002600250027BC4890F8008090F8019027
:1092B0000078B649087003F044FDFFF7E5F9B648B9
:1092C000FFF7D1FAFFF709F9FEF7FCFF84E003F09E
:1092D0003CFD044603F0D7FDFF2C09D1681CC5B244
:1092E000AB480068854203D3FFF7FCF9012600254F
:1092F000012E0DD1022C05D0042C03D0032C01D05B
:10930000012C05D1FFF7E0F9002603F01AFDFF2438
:10931000042C52D100250623802204210020FEF7D0
:10932000A0FF00F0EDFC06229C4901A801F0E7FB3C
:10933000102000909DF8042002230421FFF77CFFF9
:10934000102000909DF80520022304212020FFF723
:1093500073FF102000909DF8062002230421302086
:10936000FFF76AFF102000909DF8072002230421D8
:109370004020FFF761FF102000909DF80820022395
:1093800004215020FFF758FF102000909DF809207D
:10939000022304216020FFF74FFF4FF47A7000F0A2
:1093A000EFF9062201A9012000F0BCFD4FF47A700C
:1093B00000F0E6F903F0C5FC08E0022C04D1FFF749
:1093C00063F903F0BEFC08E003F0BBFC03F06CFDA6
:1093D0004FF4967000F0D4F979E700BFBDE8FE8342
:1093E00010B5FFF75BFF10BD08B50120009001220A
:1093F0006A491031684601F0A8FB03F0B5FD08BDCD
:109400002DE9F047002600250027654890F80080E8
:1094100090F8019000785D49087003F092FCFFF726
:1094200033F95F48FFF7D2FBFFF757F8FEF74AFF23
:1094300038E003F08AFC044603F025FDFF2C09D137
:10944000681CC5B252480068854203D3FFF74AF949
:1094500001260025012E0DD1022C05D0042C03D0AD
:10946000032C01D0012C05D1FFF72EF9002603F0C3
:1094700068FCFF24042C07D10025FFF705F903F051
:1094800060FCFFF7B1FF07E0022C03D1002503F0D9
:1094900058FC08E003F055FC03F006FD4FF496700D
:1094A00000F06EF9C5E700BFBDE8F08710B5FFF723
:1094B000A7FF10BD704710B50246012000E05043E1
:1094C0000B00A1F10104E1B2F9D110BD2DE9FF5F5C
:1094D000074691461D460E9E4FF0000A002433E0D9
:1094E000281B401EC1B20A20FFF7E5FFB9FBF0F0D0
:1094F0000A21B0FBF1F201FB1208BAF1000F13D1FF
:10950000681EA04210DDB8F1000F0BD1B34606EB88
:10951000DB71491001FB0471C8B220220199FEF7EA
:109520002BFE0FE04FF0010AB34606EBDB7149104A
:1095300001FB0471C8B208F13001CAB20199FEF70B
:109540001BFE00BF601CC4B2AC42C9DBBDE8FF9F7C
:109550002DE9F04104460F46154600260EE0AA5DAF
:1095600039462046FEF708FE04F10800C4B2782C04
:1095700002DD0024B81CC7B2701CC6B2A85D00286A
:10958000EDD1BDE8F0810000580D00201900002049
:10959000500200207ED80008880F002060001800CC
:1095A000700E002008B501211C20FCF7C3FC4BF213
:1095B0001020ADF8000010208DF8030003208DF876
:1095C000020069464748FCF77DF910214548FCF741
:1095D00024FA642000F0D4F810214248FCF71FFA66
:1095E000642000F0CDF810213E48FCF716FA002167
:1095F000AE20FEF719FD00210220FEF715FD002127
:109600001020FEF711FD00214020FEF70DFD002186
:109610008120FEF709FD0021CF20FEF705FD002186
:10962000A120FEF701FD0021C820FEF7FDFC00216E
:10963000A620FEF7F9FC0021A820FEF7F5FC00218A
:109640003F20FEF7F1FC0021D320FEF7EDFC0021C6
:109650000846FEF7E9FC0021D520FEF7E5FC0021D5
:109660008020FEF7E1FC0021D920FEF7DDFC00217F
:10967000F120FEF7D9FC0021DA20FEF7D5FC00210D
:109680001220FEF7D1FC0021DB20FEF7CDFC0021EB
:109690004020FEF7C9FC00212020FEF7C5FC002178
:1096A0000220FEF7C1FC00218D20FEF7BDFC002149
:1096B0001420FEF7B9FC0021A420FEF7B5FC002120
:1096C000A620FEF7B1FC0021AF20FEF7ADFC002183
:1096D000AF20FEF7A9FCFEF7D7FF00210846FEF7F2
:1096E000E2FC08BD000C014030B585B06846FCF7CF
:1096F000B4FB674A0198B0FBF2F1481EB0F1807FDD
:1097000000D31BE0481E4FF0E022506150170F229B
:10971000002807DA13071D0E5E4B00F00F04241F0C
:109720001D5503E013071C0E5B4B1C5400BF0020AB
:109730004FF0E02290610520106100BF05B030BD00
:1097400030B5034600200021002200244FF0E02520
:109750006C69A96911E04FF0E025A869884202D23E
:109760000D1A2A4402E0251A0D442A4403EBC305CE
:10977000B2EBC50F00D301E00146ECE700BF30BDFE
:1097800070B5034600200021002200244FF0E025A0
:109790006C69A96916E04FF0E025A869884202D2F9
:1097A0000D1A2A4402E0251A0D442A4403EBC3058E
:1097B000ED0005EB4506C6EBC515B2EBC50F00D3B2
:1097C00001E00146E7E700BF70BD2DE9FC5F0646FA
:1097D0000F4600BF00BF4FF000084446454600BF9B
:1097E0004FF0E02CDCF814C0CDE900C84FF0E02CBD
:1097F000DCF81820434646E04FF0E02CDCF8180077
:109800000021B0EB020C71EB030C08D2B2EB0008A4
:1098100063EB010C18EB04044CEB05050DE0DDE9EE
:10982000008CB8EB00086CEB010C18EB02084CEB59
:10983000030C18EB04044CEB05054FF048084FF0FF
:109840000009A6FB08CA07FB08A806FB098A4FF413
:109850007A794FF0000BACFB098E0AFB09E90CFB8F
:109860000B994FF47A7CDA46E346A8FB0BCE09FB52
:109870000BE908FB0A98B4EB0C0C75EB080C00D351
:1098800002E002460B46B7E700BFBDE8FC9F0000C0
:1098900040420F0018ED00E000E400E008B54FF48E
:1098A000A060FBF73FFC25208DF8000001208DF81B
:1098B000010000208DF8020001208DF803006846A9
:1098C000FBF735FC26208DF8000000208DF8010004
:1098D0008DF8020001208DF803006846FBF727FC95
:1098E00027208DF8000001208DF8010000208DF860
:1098F000020001208DF803006846FBF718FC1C20CD
:109900008DF8000002208DF8010000208DF8020083
:1099100001208DF803006846FBF709FC17208DF83D
:10992000000000208DF8010003208DF802000120C6
:109930008DF803006846FBF7FAFB28208DF800003D
:1099400000208DF8010003208DF8020001208DF821
:1099500003006846FBF7EBFB08BD000008B50121DA
:109960000820FCF7E7FA01218804FCF7F0FA182038
:109970008DF803004FF48060ADF8000003208DF8EF
:1099800002006946F848FBF79DFF04208DF80300AC
:109990004002ADF800006946F348FBF793FF08BDAD
:1099A0001FB54FF4165000900020ADF80400ADF83C
:1099B0000600ADF80800ADF80C000C20ADF80A0068
:1099C0006946EA48FDF797FC0121E848FDF71FFDCD
:1099D000012240F22551E548FDF725FD1FBD08B5E0
:1099E00001210420FCF7A6FA4FF40060ADF8000056
:1099F00010208DF8030003208DF802006946DC4832
:109A0000FBF760FF4FF48050ADF8000010208DF898
:109A1000030003208DF802006946D548FBF752FF8A
:109A200008BD10B50446002240F22551CF48FDF78D
:109A3000FAFC0020CF49087048808880012240F25B
:109A40002551CA48FDF7EFFC10BD70B505460C4620
:109A50004FF48050C6491431086000BF4021C3480C
:109A6000FDF7B0FD0028F9D02146C048FDF73CFDC8
:109A700000BF4021BD48FDF7A5FD0028F9D04FF4F7
:109A80008050BB491031086070BD2DE9F041074698
:109A90000D4616464FF48050B549143108604FF416
:109AA000FA70FFF76DFE00240CE0295DAF48FDF76A
:109AB0001BFD00BF4021AD48FDF784FD0028F9D013
:109AC000601CC4B2B442F0DB4FF47A70FFF758FE6A
:109AD0004FF48050A649103108604FF47A70FFF7B8
:109AE0004FFEBDE8F08170B505462A240020A2494A
:109AF0000870002240F225519C48FDF794FC9D48D7
:109B000040889C49898888420FD09A4881888088FB
:109B1000401C984A9080901D445C801F8088FE28DD
:109B200006DB00201146888002E00120924908707F
:109B3000012240F225518D48FDF775FC204670BD8D
:109B40002DE9F04107460E461446002240F2255109
:109B50008648FDF768FC002510E086488188801D56
:109B6000405C705583488088401CFE2190FBF1F2D8
:109B700001FB12007F498880681C85B2A542ECDB9E
:109B8000012240F225517948FDF74DFC2046BDE801
:109B9000F0812DE9F047824689469046002603F081
:109BA000C4F8002240F225517048FDF73CFC714892
:109BB000408870498988884272D06E4840886D49D3
:109BC0008988884206DB6B4880786A490979401A9F
:109BD000C7B206E067488078801E66490979401A56
:109BE000C7B2042F5CDD63488188801D405CAA28D1
:109BF0000AD060488088401CFE2190FBF1F201FBF6
:109C000012005C4988804BE05A488088401CFE2145
:109C100090FBF1F201FB1200C5B25648801D405D79
:109C2000752809D053488088801C90FBF1F201FB15
:109C300012005049888033E04E488088C01CFE21C5
:109C400090FBF1F201FB1200C5B24A48801D405D55
:109C5000401DC6B2BE4222DC464520D200240FE0A1
:109C6000444880882044FE2190FBF1F201FB120061
:109C7000C5B24048801D405D09F80400601CC4B2B4
:109C8000A8F10100A04201D9B442E9DB681CFE2121
:109C900090FBF1F201FB12003649888000E00026BB
:109CA000012240F225513148FDF7BDFB03F03DF89C
:109CB0003046BDE8F08770B505460024002240F22A
:109CC00025512A48FDF7AFFB2A4840882949898851
:109CD000884206DB2748408826498988401A84B292
:109CE00006E024484088FE3022498988401A84B220
:109CF000012240F225511D48FDF795FB204670BD1D
:109D0000F0B59DB00024002500260127002000901A
:109D100001900320FFF785FE002005465BE014223A
:109D200016A10320FFF7B1FE3220FFF729FD0A221A
:109D300017A10320FFF7A9FE3220FFF721FD032022
:109D4000FFF7B9FFC6B2324604A90320FFF7F8FEB9
:109D5000002425E004A8005D30281FD104A9601C60
:109D6000085C78281AD11EE0000C01400048004031
:109D7000000801404E130020B110002054544D3A09
:109D80005253542D53595354454D52455345540045
:109D900054544D3A4D41432D3F000000601CC4B265
:109DA000701EA042D6DC00BFA6F10D00A0420FDD60
:109DB000A01CC4B204A908190C2202A902F0C1FA1D
:109DC00006220B4902A800F0C0FE01201DB0F0BD24
:109DD000681CC0B20546BD42A1DBBD4206DB0622BF
:109DE0000349684600F0B1FE0020EFE700BFEDE751
:109DF0006000180008B5012144F20400FCF79AF84D
:109E000018208DF803004FF40070ADF80000032017
:109E10008DF802006946FD48FBF754FD04208DF8DB
:109E200003000002ADF800006946F848FBF74AFD60
:109E300008BD1FB54FF4E13000900020ADF80400DC
:109E4000ADF80600ADF80800ADF80C000C20ADF838
:109E50000A006946EE48FDF74EFA0121EC48FDF78D
:109E6000D6FA012240F22551E948FDF7DCFA1FBD80
:109E700070B504460D46E1B2E548FDF735FB00BF7D
:109E80004021E348FDF79EFB0028F9D0204670BD35
:109E900010B5044600BF2021DD48FDF793FB0028E4
:109EA000F9D0DB48FDF724FB10BD08B501210420E3
:109EB000FCF740F80220ADF8000048208DF80300C0
:109EC00003208DF802006946D048FBF7FBFC08BD73
:109ED00010B50446002240F22551CD48FDF7A3FA03
:109EE0000020CC49087048808880012240F225512A
:109EF000C748FDF798FA10BD70B505460C4600BF7F
:109F00004021C348FDF75EFB0028F9D02146C04838
:109F1000FDF7EAFA00BF4021BD48FDF753FB0028DA
:109F2000F9D070BD2DE9F04107460D461646402197
:109F3000B748FDF747FB00240CE0295DB448FDF766
:109F4000D3FA00BF4021B248FDF73CFB0028F9D00E
:109F5000601CC4B2B442F0DBBDE8F08138B5054600
:109F60000C46ADA000680090642094FBF0F0303007
:109F7000C0B28DF80000642094FBF0F100FB1140AA
:109F80000A2190FBF1F03030C0B28DF801000A20B8
:109F900094FBF0F100FB11403030C0B28DF80200AC
:109FA000032269460120FFF7BDFF38BD38B50546DD
:109FB0000C4600200090200E8DF80000200C8DF83B
:109FC0000100200A8DF80200E0B28DF8030004229F
:109FD00069460120FFF7A6FF38BD70B506460C465E
:109FE000002505E0615D0120FFF786FF681CC5B212
:109FF000605D0028F6D170BD70B506460C460025A0
:10A000000D210120FFF778FF0A210120FFF774FFDF
:10A0100005E0615D0120FFF76FFF681CC5B2605D60
:10A020000028F6D10D210120FFF766FF0A2101204B
:10A03000FFF762FF70BD70B505462A2400207749FE
:10A040000870002240F225517148FDF7ECF9714883
:10A0500040887049898888420FD06E4881888088FE
:10A06000401C6C4A9080901D445C801F8088FE28B4
:10A0700006DB00201146888002E001206749087055
:10A08000012240F225516248FDF7CDF9204670BD0E
:10A090002DE9F04107460E461446002240F22551B4
:10A0A0005B48FDF7C0F9002510E05A488188801D03
:10A0B000405C705557488088401CFE2190FBF1F2AF
:10A0C00001FB120053498880681C85B2A542ECDB75
:10A0D000012240F225514E48FDF7A5F92046BDE882
:10A0E000F0812DE9F04782460E4690464FF0000978
:10A0F000002240F225514648FDF795F94548408831
:10A100004449898888423CD04248408841498988EE
:10A11000884206DB3F4880783E490979401AC7B239
:10A1200006E03C488078801E3A490979401AC7B257
:10A1300000241FE0374880880519FE2D00D3FE3D1E
:10A140003448801D405D30553248801D405D0D28EB
:10A150000FD1601C00F0FF09002006F80900681C00
:10A160002C49888008468088FE2801DB00208880F2
:10A1700006E0641CA8F10100A04201D9BC42D9D379
:10A1800000BF012240F225512148FDF74CF9484615
:10A19000BDE8F0872DE9F0478246894690460026C3
:10A1A00002F0C3FD002240F225511948FDF73BF9AA
:10A1B000184840881749898888427DD015484088CA
:10A1C00014498988884206DB124880781149097948
:10A1D000401AC7B206E00F488078801E0D49097901
:10A1E000401AC7B2042F67DD0A488188801D405C91
:10A1F000AA2815D007488088401CFE2190FBF1F268
:10A2000001FB12000349888056E00000000801406D
:10A21000003801405214002030303000B2100020CD
:10A220003D488088401CFE2190FBF1F201FB1200AA
:10A23000C5B23948801D405D752809D036488088F0
:10A24000801C90FBF1F201FB12003349888033E05F
:10A2500031488088C01CFE2190FBF1F201FB120006
:10A26000C5B22D48801D405D401DC6B2BE4222DCF5
:10A27000464520D200240FE0274880882044FE2154
:10A2800090FBF1F201FB1200C5B22348801D405D36
:10A2900009F80400601CC4B2A8F10100A04201D971
:10A2A000B442E9DB681CFE2190FBF1F201FB1200D5
:10A2B0001949888000E00026012240F22551174804
:10A2C000FDF7B1F802F031FD3046BDE8F08770B51A
:10A2D00005460024002240F225511048FDF7A3F85E
:10A2E0000D4840880C498988884206DB0A48408826
:10A2F00009498988401A84B206E007484088FE3040
:10A3000005498988401A84B2012240F22551034848
:10A31000FDF789F8204670BD521400200038014036
:10A3200008B50120ADF8000048208DF80300032097
:10A330008DF802006946F748FBF7C4FA0220ADF831
:10A34000000048208DF8030003208DF802006946C4
:10A35000F048FBF7B7FA08BD08B501210420FBF768
:10A36000E9FD01214804FBF7F2FD18208DF80300F8
:10A370000420ADF8000003208DF802006946E5488E
:10A38000FBF7A0FA04208DF803000820ADF80000C8
:10A390006946E048FBF796FA08BD1FB54FF4165022
:10A3A00000900020ADF80400ADF80600ADF80800FC
:10A3B000ADF80C000C20ADF80A006946D648FCF751
:10A3C0009AFF0121D448FDF722F8012240F22551DD
:10A3D000D148FDF728F81FBD70B505460C4600BFF3
:10A3E0004021CD48FDF7EEF80028F9D02146CA48B3
:10A3F000FDF77AF800BF4021C748FDF7E3F80028D1
:10A40000F9D070BD2DE9F04107460D4616460024EF
:10A410000CE0295DC048FDF767F800BF4021BE4849
:10A42000FDF7D0F80028F9D0601CC4B2B442F0DBCC
:10A43000BDE8F08110B50446002240F22551B6482F
:10A44000FCF7F1FF0020B5490870488088800122A0
:10A4500040F22551B048FCF7E6FF10BD2DE9F0476A
:10A4600081460C4692464FF00008002240F22551EA
:10A47000A948FCF7D8FFA9484088A849898888429C
:10A4800043D0A6484088A5498988884206DBA3486E
:10A490008078A2490979401AC6B206E09F488078C0
:10A4A0000A309E490979401AC6B2052E2DDB0026D6
:10A4B000002510E09948808828440A2190FBF1F299
:10A4C00001FB1200C7B29548801DC05D6055605DFC
:10A4D0004640681CC5B2052DECDB56B9781C0A2134
:10A4E00090FBF1F201FB12008C4988804FF00508C7
:10A4F0000BE08A488088401C0A2190FBF1F201FBA6
:10A500001200864988804FF00008012240F2255150
:10A510008148FCF788FFB8F1050F12D1207840B9C7
:10A52000607830B9A07820B9E07810B94FF0000811
:10A5300007E0052221460120FFF7F4FC0020FFF789
:10A5400079FF4046BDE8F08770B502F0EEFB4FF0B2
:10A55000181000F027FC044602222146704800F043
:10A56000F4FA0422A11C6F4800F0EFFA02F04AFA54
:10A570000622A11D6C4800F0E8FA012204F10C014A
:10A580006A4800F0E2FA0D222146694800F0B7FA65
:10A590000D2267490120FFF7C5FC4FF47A70FFF7E1
:10A5A000EFF80D3421464FF0181000F0E4FB4FF0A7
:10A5B000181000F0F7FB5F490860084601680120A9
:10A5C000FFF7F4FC4FF47A70FFF7DAF85A4800F01E
:10A5D000E9FB05466D1C2946574800F0CCFB564860
:10A5E00000F0E0FB55490860084601680120FFF7CC
:10A5F000DDFC4FF47A70FFF7C3F870BD10B54FF46F
:10A6000096744FF480704349103108602046FFF77C
:10A61000B7F84FF480703F491431086010BD10B591
:10A6200064244FF480703B49103108602046FFF7E6
:10A63000A7F84FF480703749143108602046FFF7BF
:10A640009FF84FF480703349103108602046FFF7BF
:10A6500097F84FF480702F491431086010BD2DE930
:10A66000F8434FF004083448103800F09BFB0746CD
:10A67000A7F500201921B0FBF1F0C6B2002430E0AC
:10A6800004EBC40000EB041000F5002000EB08050B
:10A6900004222946684600F032FA02F046FB2148BF
:10A6A00000789DF80010884219D11E4840789DF826
:10A6B0000110884213D11B4880789DF8021088420F
:10A6C0000DD11848C0789DF80310884207D1291F82
:10A6D0000222134800F013FA0120BDE8F883601C41
:10A6E000C4B2B442CCDB00200D490870487000BFF2
:10A6F000F3E77FB512A207CA01AB07C3002405E048
:10A700001248005D07490855601CC4B2042CF7DBF1
:10A71000002424E0000801400044004056150020B9
:10A72000DD100020D91000202C0000201600002091
:10A73000141100202800002014001800240000201C
:10A74000AA75110600010000000000003200002080
:10A750005348015D01AAA01D1154601CC4B2042C11
:10A76000F6DB9DF804009DF8051048409DF80610A2
:10A7700048409DF8071048409DF8081048409DF853
:10A78000091048409DF80A1048409DF80B104840B9
:10A790009DF80C1048409DF80D1048408DF80E00B3
:10A7A00002F0C3FAFDF770FF3EA202211020FDF770
:10A7B00033FD102000903C480278022319463020D7
:10A7C000FEF73AFD102000903748427802231946E0
:10A7D0004020FEF731FD102000903348827802239C
:10A7E00019465020FEF728FD102000902E48C27810
:10A7F000022319466020FEF71FFDFFF730FF0546D4
:10A80000E5B90623802204210020FDF72AFD27A2B6
:10A8100004212420FDF700FDFFF701FF40F2DC508A
:10A82000FEF7AEFF022023490870FFF78DFEFF20E0
:10A830002149087002201F4908707FBD012D2CD1CD
:10A8400002F073FA0B2201A90320FFF71EF9FFF7AC
:10A85000D5FE022019490860062380220421002029
:10A86000FDF7FFFC16A204212420FDF7D5FC4FF4D0
:10A870007A70FEF785FF01200E490870FFF764FE2D
:10A8800002200E49091D0860FF200B49087002F0E4
:10A890004CFA0220FFF7CEFDCFE700BFCDE7000066
:10A8A0003200002049443A00D9100020CEB4CADA60
:10A8B000C8A800001600002075000020100C014000
:10A8C000D2D1CADAC8A8000000B587B0012104209F
:10A8D000FBF730FB01210803FBF72CFB01210846A5
:10A8E000FBF728FB2020ADF8040003208DF80600BC
:10A8F00018208DF8070001A9FB48FAF7E3FF402074
:10A90000ADF8040001A9F848FAF7DCFF8020ADF8A3
:10A91000040001A9F448FAF7D5FF1020ADF80400AF
:10A920008DF8070001A9F048FAF7CCFF1021EE4896
:10A93000FBF773F80020ADF808004FF48270ADF813
:10A940000A000020ADF80C000220ADF80E00012036
:10A95000ADF810004002ADF812000820ADF8140068
:10A960000020ADF816000720ADF8180002A9DF4856
:10A97000FBF710FC0121DD48FBF7B1FC07B000BD7F
:10A9800010B5044600BF0221D848FBF72CFD002873
:10A99000F9D02146D548FBF7D3FC00BF0121D348AD
:10A9A000FBF721FD0028F9D0D048FBF7CBFCC0B263
:10A9B00010BD10B500241021CB48FBF730F805205E
:10A9C000FFF7DEFF00BFFF20FFF7DAFF044614F0B9
:10A9D000010FF8D11021C448FBF71FF810BD10B5C6
:10A9E0001021C148FBF71BF80620FFF7C9FF102113
:10A9F000BD48FBF712F810BD10B50446FFF7EFFF96
:10AA0000FFF7D7FF1021B848FBF709F82020FFF720
:10AA1000B7FFC4F30740FFF7B3FFC4F30720FFF706
:10AA2000AFFFE0B2FFF7ACFF1021AF48FAF7F5FF38
:10AA3000FFF7BFFF10BD10B5FFF7D1FF1021AA48E7
:10AA4000FAF7EDFFC720FFF79BFF1021A648FAF7A2
:10AA5000E4FFFFF7AEFF10BD70B505460C46164685
:10AA6000FFF7BDFFFFF7A5FF10219F48FAF7D7FFBB
:10AA70000220FFF785FFC4F30740FFF781FFC4F30F
:10AA80000720FFF77DFFE0B2FFF77AFFB6F5807F82
:10AA900001DD4FF4807603E02878FFF771FF6D1C2D
:10AAA0003000A6F101018EB2F6D110218E48FAF7DE
:10AAB000B4FFFFF77EFF70BD2DE9F04107460E465B
:10AAC0001446F0B2C0F58075AC4200DC254612E0B9
:10AAD0002A4631463846FFF7BFFFAC4200D10BE0B3
