:020000040800F2
:1000000098170020890100080D0300080F0300085D
:1000100013030008170300081B030008000000007A
:100020000000000000000000000000001F030008A6
:100030002103000800000000230300082503000836
:10004000A3010008A3010008A3010008A301000800
:10005000A3010008A3010008A3010008A3010008F0
:10006000A3010008A3010008A3010008A3010008E0
:10007000A3010008A3010008A3010008A3010008D0
:10008000A3010008A3010008A3010008A3010008C0
:10009000A3010008A3010008A3010008A3010008B0
:1000A000A3010008A3010008A3010008A3010008A0
:1000B000A3010008A3010008A3010008A301000890
:1000C000A3010008A3010008A3010008A301000880
:1000D000A301000827030008A3010008A3010008EA
:1000E000A3010008A3010008A301000800F002F822
:1000F00000F03AF80AA090E8000C82448344AAF188
:100100000107DA4501D100F02FF8AFF2090EBAE885
:100110000F0013F0010F18BFFB1A43F0010318473B
:100120003C2000005C200000103A24BF78C878C151
:10013000FAD8520724BF30C830C144BF04680C60ED
:10014000704700000023002400250026103A28BF35
:1001500078C1FBD8520728BF30C148BF0B60704739
:100160001FB51FBD10B510BD01F0C1FF1146FFF74F
:10017000F7FF00F029F801F0DFFF03B4FFF7F2FF0B
:1001800003BC01F0E3FF000009488047094800472D
:10019000FEE7FEE7FEE7FEE7FEE7FEE7FEE7FEE737
:1001A000FEE7FEE704480549054A064B7047000094
:1001B00015130008ED000008981100209817002082
:1001C000981300209813002008B50120009001F03A
:1001D0009FFE01F077FF01F049FC01F066FC01F0A1
:1001E00019F91A2227A1012001F0D8FC0D210120C4
:1001F00001F0BEFC0A21012001F0BAFC0D2228A169
:10020000012001F0CBFC192229A1012001F0C6FC3C
:100210000D21012001F0ACFC0A21012001F0A8FC15
:100220000D221FA1012001F0B9FC172227A10120F6
:1002300001F0B4FC0D21012001F09AFC0A210120FB
:1002400001F096FC4FF47A7001F0AFFE0B2225A16D
:10025000012001F0A3FC01F094F901222449684631
:1002600001F019FA0AE0234800682349884205D1C1
:100270000D2222A1012001F091FC00E0F3E700BF74
:10028000002008BDB4AEBFDAD6FACAD6C9E8D6C3D4
:10029000CEAAA3BA39363030B2A8CCD8C2CA000030
:1002A00020202020202020202020202020000000AE
:1002B000B4AEBFDAD6FACAD6C9E8D6C3CEAAA3BAB4
:1002C0004153434949BDD3CAD5000000B4AEBFDA9B
:1002D000D6FACAD6C9E8D6C3CEAAA3BA484558B7F3
:1002E000A2CBCD00C7EBB7A2CBCDD7D6BFE20000E3
:1002F0007000180000000020FEFF1F00D7D6BFE2EC
:10030000CFC2D4D8BDE1CAF800000000704700BFDA
:10031000FEE700BFFEE700BFFEE700BFFEE7704755
:1003200070477047704708B540F225510C4800F0FF
:1003300049FF98B140F22551094800F06DFF084887
:1003400000F0C0FEC0B20090064801680068401C82
:10035000044B01221860684601F0F5F908BD000061
:10036000003801400000002031490143314A11604A
:10037000704770B5002100230F22C4780CB32D4CB8
:10038000246804F4E064C4F5E064210AC1F10403C4
:10039000CA40447804FA03F18478144021430901E7
:1003A000254C0678A155047804F01F050124AC40C3
:1003B00005786D114FF0E02606EB8505C5F8004184
:1003C00009E0047804F01F050124AC401B4D0678B9
:1003D000761145F8264070BD194A0A400243154B74
:1003E0001B1F1A60704739B1124A121D126802436E
:1003F000104B1B1D1A6006E00E4A121D1268824344
:100400000C4B1B1D1A607047042808D14FF0E021E7
:10041000096941F004014FF0E022116107E04FF05B
:10042000E021096921F004014FF0E02211617047D9
:100430000000FA050CED00E000E400E080E100E0DF
:1004400080FFFF1F10B50446CA48844208D101212D
:10045000042000F023FB0021042000F01FFB46E0F5
:10046000C548844208D10121082000F017FB002173
:10047000082000F013FB3AE0C048844208D1012173
:10048000102000F00BFB0021102000F007FB2EE0F5
:10049000BB48844208D10121202000F0FFFA00214E
:1004A000202000F0FBFA22E0B648844208D1012166
:1004B000402000F0F3FA0021402000F0EFFA16E0AF
:1004C000B148844208D10121802000F0E7FA0021E0
:1004D000802000F0E3FA0AE0AC48844207D1012111
:1004E000801500F0DBFA0021A01500F0D7FA10BD4E
:1004F00010B50121084600F0D1FA0021012000F0DA
:10050000CDFA10BD2DE9F04102460025002600205D
:1005100000230024002791F803C00CF00F0591F888
:1005200003C01CF0100F03D091F802C04CEA05057F
:1005300091F800C0BCF1000F31D0146800202BE00E
:100540004FF0010C0CFA00F3B1F800C00CEA0306FE
:100550009E4220D183004FF00F0C0CFA03F7BC43EE
:1005600005FA03FC4CEA040491F803C0BCF1280F1F
:1005700006D14FF0010C0CFA00FCC2F814C00AE0DE
:1005800091F803C0BCF1480F05D14FF0010C0CFAF3
:1005900000FCC2F810C0401C0828D1D31460B1F888
:1005A00000C0BCF1FF0F34DD546800202EE000F1E4
:1005B000080C4FF0010808FA0CF3B1F800C00CEA7F
:1005C00003069E4221D183004FF00F0C0CFA03F773
:1005D000BC4305FA03FC4CEA040491F803C0BCF1E7
:1005E000280F05D100F1080C08FA0CF8C2F81480A5
:1005F00091F803C0BCF1480F07D100F1080C4FF08F
:10060000010808FA0CF8C2F81080401C0828CED364
:100610005460BDE8F0814FF6FF71018002218170C6
:100620000421C17070470246002093680B4201D03C
:10063000012000E0002070470146886880B27047C2
:1006400002460020D3680B4201D0012000E00020C8
:1006500070470146C86880B27047016170474161C8
:1006600070470AB1016100E041617047C1607047A5
:100670004FF480320A4382618161826182698269BA
:10068000704702460020424B18684FF680731840AE
:1006900040EA021008433E4B186070473D49C8616C
:1006A0007047F0B50A46002300240021002500F021
:1006B0000046B6F1004F02D1354EF16901E0344EEB
:1006C0007168C0F3034583B200F44016B6F5401FCD
:1006D00008D121F070612E4E766826F070662C4F9E
:1006E0007E6012E000F48016B6F5801F06D1032666
:1006F00006FA05F4A14341F0706106E0460D3601AB
:1007000003FA06F6B14341F0706122B1460D36019D
:1007100003FA06F6314300F00046B6F1004F02D16D
:100720001B4EF16101E01A4E7160F0BD30B5002240
:100730008B071C0F0F2303FA04F2154B08338C10A0
:1007400053F824309343124C08348D1044F825306C
:1007500023468C1053F824308C07240F00FA04F43D
:1007600023430B4C08348D1044F8253030BD0A4922
:100770000860704700080140000C01400010014073
:100780000014014000180140001C014000200140FD
:100790000000014000002042DC002042DB480068ED
:1007A00040F00100D949086008464068D84908402F
:1007B000D649486008460068D6490840D3490860D1
:1007C0000846006820F4802008600846406820F44D
:1007D000FE0048604FF41F0088607047CB490968ED
:1007E00021F48031C94A11601146096821F4802141
:1007F0001160B0F5803F03D0B0F5802F0ED106E038
:10080000C249096841F48031C04A116007E0BF491C
:10081000096841F4A021BD4A116000E000BF00BF9B
:10082000704710B501460022002300204A11012A1A
:1008300002D1B64C236806E0022A02D1B34C236AE7
:1008400001E0B24C636A01F01F02012494401C4293
:1008500001D0012000E0002010BD70B5002400256B
:10086000002600BF3120FFF7DCFF0646641CB4F50C
:10087000A06F01D0002EF5D03120FFF7D2FF08B1D4
:10088000012500E00025284670BD014600209F4A52
:10089000106820F0F80040EAC100106070479E49DF
:1008A0000860704702460020984B586820F47C107E
:1008B00042EA01031843954B586070479649086611
:1008C000704701460020914A506820F00300084319
:1008D000506070478D48406800F00C00704701463A
:1008E00000208A4A506820F0F000084350607047AA
:1008F00001460020854A506820F4E06008435060BB
:10090000704701460020814A506820F4605040EA58
:10091000C1005060704729B17C4A527A02437B4B38
:100920005A7204E0794A527A8243784B5A7270477D
:100930007A490860704701460020744A506820F4E4
:1009400040400843506070470021754A11706F4A5B
:1009500082F82010012802D0042808D103E00121E8
:100960006F4A117004E005216D4A117000E000BF6C
:1009700000BF70476B49086070476449096A0143CA
:10098000624A11627047674944390860704730B560
:1009900000210022002400235C4D6D6805F00C014D
:1009A00021B1042905D0082923D105E05E4D056059
:1009B00022E05D4D05601FE0544D6D6805F4701236
:1009C000524D6D6805F48034022505EB92421CB946
:1009D000564D554305600BE04C4D6D6815F4003FD6
:1009E00003D0524D5543056002E04F4D554305601D
:1009F00002E04D4D056000BF00BF444D6D6805F03D
:100A0000F00109094A4D6B5C0568DD4045603F4DCA
:100A10006D6805F4E061090A454D6B5C4568DD4091
:100A200085603A4D6D6805F46051C90A404D6B5CB4
:100A30004568DD40C560354D6D6805F44041890B62
:100A40003C4D6B5CC568B5FBF3F5056130BD29B164
:100A50002E4A526902432D4B5A6104E02B4A5269D7
:100A600082432A4B5A61704729B1284A926902434E
:100A7000264B9A6104E0254A92698243234B9A618E
:100A8000704729B1214AD2690243204BDA6104E060
:100A90001E4AD26982431D4BDA61704729B11B4A55
:100AA000D2680243194BDA6004E0184AD2688243E4
:100AB000164BDA60704729B1144A12690243134B8E
:100AC0001A6104E0114A12698243104B1A6170479F
:100AD00014494039086070470F49C86470470B4992
:100AE000C87170470948406A40F080700749486201
:100AF000704701460020054A92680A4201D0012051
:100B000000E00020704701498872704700100240E1
:100B10000000FFF8FFFFF6FE00004242D80042420C
:100B2000201002408004424200127A0000093D0079
:100B3000040000201400002010B50446BE48844282
:100B400008D101218014FFF7A9FF0021A014FFF7AD
:100B5000A5FF16E0B948844208D101210014FFF72F
:100B6000AAFF00212014FFF7A6FF0AE0B448844240
:100B700007D10121C013FFF79EFF0021E013FFF70B
:100B80009AFF10BD10B50022028802F441520B8872
:100B90004C8823438C882343CC8823430C892343EC
:100BA0004C8923438C892343CC8923431A430280F5
:100BB000838B4FF2FF74234083830B8A038210BD23
:100BC0002DE9F04F85B005460C464FF0000902278D
:100BD0004FF000084FF0010B0026B246A88B4FF2F1
:100BE00040010840A88302202884B5F81C90A06822
:100BF000022801D100BF38E0A08810B94FF0010BE6
:100C000001E04FF0020B8D48854200D100E000BFAB
:100C10006846FFF7BCFEDDF800A0E088B0F5007F75
:100C20000AD14FEA1A2000EB80004000A168B0FB17
:100C3000F1F0401D86B20BE04FEA4B10BAFBF0F02A
:100C400000EB80004000A168B0FBF1F0401D86B2CF
:100C50000A20B6FBF0F606F00108A6EB0800C0F388
:100C60004F074FF6FF7000EA0828022F01DBFF2F25
:100C700002DD02274FF00008E08840EA0800384310
:100C80002884A088A18908436188084321880843F3
:100C900040F4006040EA0909A5F81C9005B0BDE8E1
:100CA000F08F0021018041808180C18001814181DC
:100CB0008181C1810721018270470021018041802B
:100CC0008180C1800221816000218181704721B132
:100CD000028842F04002028004E002884FF6BF73AF
:100CE0001A400280704721B1828B42F48062828375
:100CF00004E0828B4FF6FF331A408283704730B591
:100D0000002400230C110125A540ABB21AB185883F
:100D10001D43858002E085889D43858030BD1AB1E2
:100D200083880B43838002E083888B4383807047F2
:100D300081817047014688897047A1F57E42FF3A5C
:100D400004D0028842F48072028004E002884FF6E8
:100D5000FF631A400280704721B1828842F004028A
:100D6000828004E082884FF6FB731A4082807047CD
:100D700002884FF2FF731A40028002880A43028001
:100D80007047018841F480510180704721B1028889
:100D900042F40052028004E002884DF6FF731A40CC
:100DA0000280704702460020012901D0108B00E02C
:100DB000908A70470146088A7047B1F5804F04D188
:100DC000028842F48042028004E002884BF6FF73FE
:100DD0001A40028070470246002013890B4201D05E
:100DE000012000E000207047CA4302817047F0B53F
:100DF0000246002000240023002501F00F070126F1
:100E0000BE40B4B20B1101269E40B3B2968806EAEA
:100E100003051689264202D00DB1012000E0002012
:100E2000F0BD10B5002201F00F040123A3409AB2D7
:100E3000D343038110BD0000003001400038004062
:100E4000003C004010B50446FB48844209D1012112
:100E50008803FFF723FE00214FF48040FFF71EFEBA
:100E600032E0F648844209D101214804FFF723FE0D
:100E700000214FF40030FFF71EFE25E0F0488442C9
:100E800009D101218804FFF716FE00214FF48020CC
:100E9000FFF711FE18E0EB48844209D10121C80494
:100EA000FFF709FE00214FF40020FFF704FE0BE0DE
:100EB000E548844208D101210805FFF7FCFD002127
:100EC0004FF48010FFF7F7FD10BD2DE9F04786B015
:100ED00005460E460024A24600BFA1460027B08961
:100EE00000B100BF2F462C8A4CF6FF700440F088FA
:100EF00004432C82AC894EF6F3100440B08831894B
:100F00000843718908430443AC81AC8A4FF6FF4023
:100F10000440B0890443AC8201A8FFF738FDC648FD
:100F2000874202D1DDF810A001E0DDF80CA0A8890D
:100F300010F4004F08D00AEBCA0000EB0A10316829
:100F40004900B0FBF1F807E00AEBCA0000EB0A1019
:100F500031688900B0FBF1F86420B8FBF0F00401BF
:100F60002009642101FB1089A88910F4004F08D0E2
:100F7000322000EBC900B0FBF1F000F007000443A1
:100F800008E0322000EB09106421B0FBF1F000F022
:100F90000F0004432C8106B0BDE8F0874FF41651D2
:100FA000016000218180C18001810C2141810021EB
:100FB0008181704710B502460020108A4FF2FF036E
:100FC00018400B884C8823438C882343CC882343C8
:100FD0001843108210BD0021018041808180C180B2
:100FE000704721B1828942F40052828104E08289F3
:100FF0004DF6FF731A4082817047F0B50346002416
:10100000002600250020A1F510676A3F00D100BF2F
:101010001846C1F3421401F01F06012707FA06F52E
:10102000012C01D10C3004E0022C01D1103000E081
:1010300014301AB107682F43076002E00768AF4316
:101040000760F0BD1AB1838A0B43838202E0838A72
:101050008B4383827047028A4FF6F0731A400282F4
:10106000028A0A430282704782894FF2FF731A4054
:10107000828182890A438281704721B1828942F04C
:101080000202828104E082894FF6FD731A40828158
:101090007047028A4FF6DF731A400282028A0A43BF
:1010A0000282704721B1028A42F48042028204E047
:1010B000028A4BF6FF731A4002827047C1F308029E
:1010C0008280704701468888C0F308007047818994
:1010D00041F0010181817047028BD2B20283028B01
:1010E00042EA012202837047028B02F47F420283AC
:1010F000028B0A430283704721B1828A42F02002A8
:10110000828204E0828A4FF6DF731A40828270473F
:1011100021B1828A42F01002828204E0828A4FF674
:10112000EF731A408282704721B1828A42F008022E
:10113000828204E0828A4FF6F7731A4082827047F7
:1011400021B1828942F40042828103E08289C2F3A4
:101150000E028281704721B1828A42F4006282824B
:1011600004E0828A4FF2FF731A4082827047828ABB
:101170004FF6FB731A408282828A0A43828270474A
:1011800021B1828A42F00202828204E0828A4FF612
:10119000FD731A408282704702460020B1F5007F3D
:1011A00000D100BF13880B4201D0012000E00020D5
:1011B000704701F40072B2F5007F00D100BFCA434E
:1011C0000280704770B502460024002300250020ED
:1011D000A1F510666A3E00D100BFC1F3421501F0CF
:1011E0001F03012606FA03F3012D02D1968933402D
:1011F00006E0022D02D1168A334001E0968A334080
:101200000C12012606FA04F41688344013B10CB10E
:10121000012000E0002070BD10B500220023A1F5E0
:1012200010646A3C00D100BF0A1201249440A3B2AA
:10123000DC43048010BD0000003801400044004041
:1012400000480040004C00400050004000210020B9
:10125000674A126842F48032654B1A6000BF644AE4
:10126000126802F40030491C10B9B1F5A06FF6D134
:101270005F4A126812F4003F01D0012000E0002014
:10128000012842D15B4A126842F01002594B1A60A1
:101290001A46126822F003021A601A46126842F0D7
:1012A00002021A60524A5268514B5A601A465268FA
:1012B0005A601A46526842F480625A601A4652686E
:1012C00022F47C125A601A46526842F4E8125A60BC
:1012D0001A46126842F080721A6000BF444A1268CF
:1012E00012F0007FFAD0424A526822F00302404BCB
:1012F0005A601A46526842F002025A6000BF3C4AE5
:10130000526802F00C02082AF9D1704710B5FFF7B5
:101310009DFF10BD10B53648006840F0010034490B
:10132000086008464068344908403149486008462A
:101330000068324908402E4908600846006820F4D9
:10134000802008600846406820F4FE0048604FF4A2
:101350001F008860FFF7DAFF4FF00060284908603F
:1013600010BD10B5002100200022214B5B6803F066
:101370000C0121B1042906D0082928D107E0214B0E
:10138000214C236027E01F4B1F4C236023E0184BA8
:101390005B6803F47010164B5B6803F48032022321
:1013A00003EB904022B9194B4343174C23600DE0E7
:1013B0000F4B5B6813F4003F04D0144B4343124CB3
:1013C000236003E00F4B43430F4C236003E00D4BBE
:1013D0000D4C236000BF00BF054B5B68C3F30313D4
:1013E0000B4CE15C084B1B68CB40074C236010BDE5
:1013F00000100240002002400000FFF8FFFFF6FE50
:1014000008ED00E000127A001800002000093D00FD
:101410001C00002000B587B001210420FFF724FB49
:1014200001210803FFF720FB01210846FFF71CFB01
:101430002020ADF8040003208DF8060018208DF858
:10144000070001A9FB48FFF75DF84020ADF8040054
:1014500001A9F848FFF756F88020ADF8040001A96B
:10146000F448FFF74FF81020ADF804008DF807009E
:1014700001A9F048FFF746F81021EE48FFF7EDF814
:101480000020ADF808004FF48270ADF80A0000208B
:10149000ADF80C000220ADF80E000120ADF81000F0
:1014A0004002ADF812000820ADF814000020ADF89D
:1014B00016000720ADF8180002A9DF48FFF762FB0D
:1014C0000121DD48FFF703FC07B000BD10B504465D
:1014D00000BF0221D848FFF77EFC0028F9D0214642
:1014E000D548FFF725FC00BF0121D348FFF773FC67
:1014F0000028F9D0D048FFF71DFCC0B210BD10B5D0
:1015000000241021CB48FFF7AAF80520FFF7DEFFE3
:1015100000BFFF20FFF7DAFF044614F0010FF8D1F7
:101520001021C448FFF799F810BD10B51021C1482B
:10153000FFF795F80620FFF7C9FF1021BD48FFF718
:101540008CF810BD10B50446FFF7EFFFFFF7D7FF8B
:101550001021B848FFF783F82020FFF7B7FFC4F346
:101560000740FFF7B3FFC4F30720FFF7AFFFE0B278
:10157000FFF7ACFF1021AF48FFF76FF8FFF7BFFF91
:1015800010BD10B5FFF7D1FF1021AA48FFF767F88B
:10159000C720FFF79BFF1021A648FFF75EF8FFF773
:1015A000AEFF10BD70B505460C461646FFF7BDFFF1
:1015B000FFF7A5FF10219F48FFF751F80220FFF722
:1015C00085FFC4F30740FFF781FFC4F30720FFF74F
:1015D0007DFFE0B2FFF77AFFB6F5807F01DD4FF4C3
:1015E000807603E02878FFF771FF6D1C3000A6F1CC
:1015F00001018EB2F6D110218E48FFF72EF8FFF7C9
:101600007EFF70BD2DE9F04107460E461446F0B24C
:10161000C0F58075AC4200DC254612E02A46314612
:101620003846FFF7BFFFAC4200D10BE02F442E44F9
:10163000601B84B2B4F5807F02DD4FF4807500E05A
:101640002546EBE700BFBDE8F08170B505460C46C6
:10165000164610217748FFF702F80320FFF736FF00
:10166000C4F30740FFF732FFC4F30720FFF72EFF54
:10167000E0B2FFF72BFF04E0FF20FFF727FF287001
:101680006D1C3000A6F101018EB2F5D11021694820
:10169000FEF7E3FF70BD2DE9F04781460F46164681
:1016A0004FEA1738C7F30B0ACAF58054A64200DC8C
:1016B000344644E04FEA08314FF480525F48FFF768
:1016C000C4FF002508E00AEB05005C49085CFF2820
:1016D00000D003E0681C85B2A542F4DB00BFA54240
:1016E00016DA4046FFF72EFF002507E019F805003F
:1016F00005EB0A01514A5054681C85B2A542F5DB3E
:101700004FEA08314FF480524C48FFF77BFF04E06A
:10171000224639464846FFF775FFA64200D10FE042
:1017200008F101084FF0000AA1442744301B86B29B
:10173000B6F5805F02DD4FF4805400E03446B9E72F
:1017400000BFBDE8F0872DE9F05F07460E4614465E
:101750004FF00008C146C2460025AB4606F0FF0A1E
:10176000CAF10000C5B22046E11704EB1161C1F3D4
:101770000728E11704EB11610912A4EB012101F024
:10178000FF09BAF1000F20D1B8F1000F05D12246B0
:1017900031463846FFF706FF6BE009E04FF48072F0
:1017A00031463846FFF7FEFE06F5807607F580776E
:1017B0005FEA0800A8F1010101F0FF08EED14A46F6
:1017C00031463846FFF7EEFE53E0B8F1000F18D16E
:1017D000A94510DDA9EB050000F0FF0B2A463146B4
:1017E0003846FFF7DFFE2E442F445A46314638462E
:1017F000FFF7D8FE3DE0224631463846FFF7D2FEDD
:1018000037E0601B84B22046E11704EB1161C1F39D
:101810000728E11704EB11610912A4EB012101F083
:10182000FF092A4631463846FFF7BCFE2E442F44B6
:1018300010E00000000801400030014030000020AE
:101840004FF4807231463846FFF7ACFE06F58076DD
:1018500007F580775FEA0800A8F1010101F0FF08B1
:10186000EED1B9F1000F04D04A4631463846FFF7B1
:1018700099FEBDE8F09F70B505460C46164610214E
:101880007848FEF7ECFE0320FFF720FEC4F3074084
:10189000FFF71CFEC4F30720FFF718FEE0B2FFF7C6
:1018A00015FE04E0FF20FFF711FE28706D1C3000CC
:1018B000A6F101018EB2F5D110216A48FEF7CDFEE6
:1018C00070BD38B505460C4600200090E0B28DF89A
:1018D0000000200A8DF80100200C8DF80200200E77
:1018E0008DF80300042229466846FFF7D4FE38BD70
:1018F00038B50446002000900025042221466846A1
:10190000FFF7A3FE9DF800109DF8010001EB0021F8
:101910009DF8020001EB00419DF8030001EB00651A
:10192000284638BD2DE9F041002400250026002777
:1019300010214C48FEF793FE9F20FFF7C7FDFF20C4
:10194000FFF7C4FD0546FF20FFF7C0FD0646FF2058
:10195000FFF7BCFD074610214248FEF77EFE280433
:1019600040EA062040EA07042046BDE8F08110B5B1
:10197000002410213B48FEF772FEAB20FFF7A6FDC6
:10198000FF20FFF7A3FDFF20FFF7A0FDFF20FFF7DB
:101990009DFDFF20FFF79AFD044610213148FEF718
:1019A0005CFE204610BD10B5044610212D48FEF700
:1019B00056FE0320FFF78AFDC4F30740FFF786FDBC
:1019C000C4F30720FFF782FDE0B2FFF77FFD10BDF3
:1019D00010B5FF20FFF77AFD10BD10B5044600BF1B
:1019E00002212148FFF7F7F90028F9D021461E48C7
:1019F000FFF79EF900BF01211B48FFF7ECF9002813
:101A0000F9D01948FFF796F910BD10B50024102140
:101A10001448FEF724FE0520FFF758FDFF20FFF7CE
:101A200055FD044610210F48FEF717FE204610BD55
:101A300010B510210B48FEF712FEB920FFF746FD46
:101A400010210848FEF709FE10BD10B51021054809
:101A5000FEF705FEAB20FFF739FD10210148FEF728
:101A6000FCFD10BD000801400030014008B5012117
:101A700044F20400FEF7F8FF18208DF803004FF43D
:101A80000070ADF8000003208DF802006946FE48A2
:101A9000FEF738FD04208DF803000002ADF80000C9
:101AA0006946F948FEF72EFD08BD1FB54FF41650E4
:101AB00000900020ADF80400ADF80600ADF8080075
:101AC000ADF80C000C20ADF80A006946EF48FFF7AE
:101AD000FCF90121ED48FFF784FA012240F225517B
:101AE000EA48FFF78AFA1FBD70B504460D46E1B219
:101AF000E648FFF7E3FA00BF4021E448FFF74CFB5C
:101B00000028F9D0204670BD10B5044600BF202142
:101B1000DE48FFF741FB0028F9D0DC48FFF7D2FA96
:101B200010BD08B501210420FEF79EFF0220ADF88C
:101B3000000048208DF8030003208DF8020069465C
:101B4000D148FEF7DFFC08BD10B50446002240F284
:101B50002551CE48FFF751FA0020CD490870488042
:101B60008880012240F22551C848FFF746FA10BD8F
:101B700070B505460C4600BF4021C448FFF70CFB7A
:101B80000028F9D02146C148FFF798FA00BF40214C
:101B9000BE48FFF701FB0028F9D070BD2DE9F041E8
:101BA00007460D4616464021B848FFF7F5FA0024CF
:101BB0000CE0295DB548FFF781FA00BF4021B3482A
:101BC000FFF7EAFA0028F9D0601CC4B2B442F0DB97
:101BD000BDE8F08170B506460C46002505E0615D64
:101BE0000120FFF7C5FF681CC5B2605D0028F6D173
:101BF00070BD70B506460C4600250D210120FFF78B
:101C0000B7FF0A210120FFF7B3FF05E0615D012066
:101C1000FFF7AEFF681CC5B2605D0028F6D10D214C
:101C20000120FFF7A5FF0A210120FFF7A1FF70BDEA
:101C300070B505462A24002096490870002240F21B
:101C400025519248FFF7D9F99148408890498988F1
:101C500088420FD08E4881888088401C8C4A9080B2
:101C6000901D445C801F8088FE2806DB0020114602
:101C7000888002E0012087490870012240F2255146
:101C80008248FFF7BAF9204670BD2DE9F0410746BA
:101C90000E461446002240F225517C48FFF7ADF96C
:101CA000002510E07A488188801D405C7055784896
:101CB0008088401CFE2190FBF1F201FB1200744968
:101CC0008880681C85B2A542ECDB012240F22551D8
:101CD0006E48FFF792F92046BDE8F0812DE9F04704
:101CE00082460E4690464FF00009002240F22551F0
:101CF0006648FFF782F966484088654989888842C6
:101D00003CD06348408862498988884206DB604845
:101D100080785F490979401AC7B206E05C4880784C
:101D2000801E5B490979401AC7B200241FE0584859
:101D300080880519FE2D00D3FE3D5548801D405D6D
:101D400030555348801D405D0D280FD1601C00F0B8
:101D5000FF09002006F80900681C4D4988800846E4
:101D60008088FE2801DB0020888006E0641CA8F142
:101D70000100A04201D9BC42D9D300BF012240F2E8
:101D800025514248FFF739F94846BDE8F0872DE96B
:101D9000F0478246894690460026002240F22551AF
:101DA0003A48FFF72AF93A484088394989888842F1
:101DB0007BD03748408836498988884206DB3448DA
:101DC000807833490979401AC7B206E030488078F4
:101DD000801E2F490979401AC7B2042F65DD2C48AF
:101DE0008188801D405CAA280AD029488088401C30
:101DF000FE2190FBF1F201FB12002549888054E09E
:101E000023488088401CFE2190FBF1F201FB120068
:101E1000C5B21F48801D405D752809D01C488088C8
:101E2000801C90FBF1F201FB1200194988803CE014
:101E300017488088C01CFE2190FBF1F201FB1200C4
:101E4000C5B21348801D405D401DC6B2BE422BDCAA
:101E5000464529D200240FE00D4880882044FE2109
:101E600090FBF1F201FB1200C5B20948801D405DF4
:101E700009F80400601CC4B2A8F10100A04201D915
:101E8000B442E9DB681C07E000080140003801406B
:101E9000301000202C000020FE2190FBF1F201FB0D
:101EA00012001949888000E00026012240F22551E5
:101EB0001648FFF7A2F83046BDE8F08770B5054632
:101EC0000024002240F225511048FFF796F80E48F2
:101ED00040880D498988884206DB0B4840880A49BA
:101EE0008988401A84B206E007484088FE300649D7
:101EF0008988401A84B2012240F225510348FFF735
:101F00007CF8204670BD00003010002000380140F1
:101F100030B585B06846FEF73AFD674A0198B0FBD8
:101F2000F2F1B1F1807F00D31DE021F07F40401E2F
:101F30004FF0E022506150170F22002807DA1307F4
:101F40001D0E5E4B00F00F04241F1D5503E0130708
:101F50001C0E5B4B1C5400BF00204FF0E022906130
:101F60000720106100BF05B030BD30B5034600202A
:101F70000021002200244FF0E0256C69A96911E0DE
:101F80004FF0E025A869884202D20D1A2A4402E0E7
:101F9000251A0D442A4403EBC305B2EBC50F00D349
:101FA00001E00146ECE700BF30BD70B503460020FC
:101FB0000021002200244FF0E0256C69A96916E099
:101FC0004FF0E025A869884202D20D1A2A4402E0A7
:101FD000251A0D442A4403EBC305ED0005EB450625
:101FE000C6EBC515B2EBC50F00D301E00146E7E72C
:101FF00000BF70BD2DE9FC5F06460F4600BF00BF65
:102000004FF000084446454600BF4FF0E02CDCF896
:1020100014C0CDE900C84FF0E02CDCF8182043468E
:1020200046E04FF0E02CDCF818000021B0EB020C89
:1020300071EB030C08D2B2EB000863EB010C18EB58
:1020400004044CEB05050DE0DDE9008CB8EB00085D
:102050006CEB010C18EB02084CEB030C18EB0404BE
:102060004CEB05054FF048084FF00009A6FB08CAE5
:1020700007FB08A806FB098A4FF47A794FF0000B9A
:10208000ACFB098E0AFB09E90CFB0B994FF47A7C37
:10209000DA46E346A8FB0BCE09FB0BE908FB0A98DE
:1020A000B4EB0C0C75EB080C00D302E002460B46B7
:1020B000B7E700BFBDE8FC9F40420F0018ED00E00D
:1020C00000E400E008B54FF4E060FEF74DF925208C
:1020D0008DF8000000208DF8020001208DF803002B
:1020E0006846FEF746F908BD704770477047754669
:1020F00000F028F8AE4605006946534620F0070078
:10210000854618B020B5FEF74DF8BDE820404FF0E9
:1021100000064FF000074FF000084FF0000B21F0D1
:102120000701AC46ACE8C009ACE8C009ACE8C0099E
:10213000ACE8C0098D4670470446AFF300802046E6
:10214000FEF71BF8004870473411002001491820A1
:10215000ABBEFEE726000200704700007C210008AD
:10216000000000203000000028010008AC21000819
:10217000300000206817000044010008BE011C0068
:10218000000000000102030401020304060708091D
:102190000204060800A24A0400000000000000003B
:0C21A0000102030406070809000000000B
:04000005080000ED02
:00000001FF
